:020000040800F2
:100000000000012021DD010801BE010809BE010830
:1000100011BE010819BE010821BE01080000000040
:1000200000000000000000000000000029BE0108E0
:1000300035BE01080000000041BE01084DBE0108A8
:1000400069DD010869DD010869DD010869DD010874
:1000500069DD010869DD010869DD010869DD010864
:1000600069DD010869DD010869DD010859BE010883
:1000700069DD01086DBE010869DD010869DD01085F
:1000800069DD010869DD010869DD010869DD010834
:1000900081BE010869DD010869DD010869DD01082B
:1000A00069DD010869DD010869DD010869DD010814
:1000B00095BE0108A9BE010869DD010869DD0108D6
:1000C00069DD010869DD010869DD010869DD0108F4
:1000D00069DD010869DD010869DD010869DD0108E4
:1000E00069DD010869DD010869DD010869DD0108D4
:1000F00069DD010869DD010869DD010869DD0108C4
:1001000069DD010869DD010869DD010869DD0108B3
:1001100069DD010869DD0108BDBE010869DD01086E
:1001200069DD0108D1BE010869DD0108E5BE0108ED
:1001300000000000000000000000000000000000BF
:1001400000000000000000000000000000000000AF
:10015000000000000000000000000000000000009F
:10016000000000000000000000000000000000008F
:10017000000000000000000000000000000000007F
:10018000000000000000000000000000000000006F
:10019000000000000000000000000000000000005F
:1001A000000000000000000000000000000000004F
:1001B000000000000000000000000000000000003F
:1001C000000000000000000000000000000000002F
:1001D000000000000000000000000000000000001F
:0401E0005FF8E0F1F3
:1001E80010B5054C237833B9044B13B10448AFF369
:1001F80000800123237010BDF801002000000000DA
:10020800AC4B030808B5034B1BB103490348AFF3D4
:10021800008008BD00000000FC010020AC4B030872
:10022800034613F8012B002AFBD1181A013870472E
:1002380081F0004102E000BF83F0004330B54FEA8F
:1002480041044FEA430594EA050F08BF90EA020FFC
:100258001FBF54EA000C55EA020C7FEA645C7FEA8F
:10026800655C00F0E2804FEA5454D4EB5555B8BFB2
:100278006D420CDD2C4480EA020281EA030382EA23
:10028800000083EA010180EA020281EA0303362DB5
:1002980088BF30BD11F0004F4FEA01314FF4801C88
:1002A8004CEA113102D0404261EB410113F0004F9A
:1002B8004FEA03334CEA133302D0524263EB430351
:1002C80094EA050F00F0A780A4F10104D5F1200EEF
:1002D8000DDB02FA0EFC22FA05F2801841F100014A
:1002E80003FA0EF2801843FA05F359410EE0A5F11E
:1002F80020050EF1200E012A03FA0EFC28BF4CF04F
:10030800020C43FA05F3C01851EBE37101F0004504
:1003180007D54FF0000EDCF1000C7EEB00006EEB11
:100328000101B1F5801F1BD3B1F5001F0CD349089B
:100338005FEA30004FEA3C0C04F101044FEA4452F2
:1003480012F5800F80F09A80BCF1004F08BF5FEA79
:10035800500C50F1000041EB045141EA050130BD59
:100368005FEA4C0C404141EB0101013C28BFB1F56B
:10037800801FE9D291F0000F04BF01460020B1FAB6
:1003880081F308BF2033A3F10B03B3F120020CDA89
:100398000C3208DD02F1140CC2F10C0201FA0CF067
:1003A80021FA02F10CE002F11402D8BFC2F1200CCC
:1003B80001FA02F120FA0CFCDCBF41EA0C01904082
:1003C800E41AA2BF01EB0451294330BD6FEA0404CB
:1003D8001F3C1CDA0C340EDC04F11404C4F12002B6
:1003E80020FA04F001FA02F340EA030021FA04F3C8
:1003F80045EA030130BDC4F10C04C4F1200220FA1F
:1004080002F001FA04F340EA0300294630BD21FA5C
:1004180004F0294630BD94F0000F83F4801306BF22
:1004280081F480110134013D4EE77FEA645C18BF16
:100438007FEA655C29D094EA050F08BF90EA020FAD
:1004480005D054EA000C04BF1946104630BD91EAA5
:10045800030F1EBF0021002030BD5FEA545C05D1A8
:100468004000494128BF41F0004130BD14F58004E7
:100478003CBF01F5801130BD01F0004545F0FE415B
:1004880041F470014FF0000030BD7FEA645C1ABF90
:10049800194610467FEA655C1CBF0B46024650EAC7
:1004A800013406BF52EA033591EA030F41F40021F3
:1004B80030BD00BF90F0000F04BF0021704730B579
:1004C8004FF4806404F132044FF000054FF000014E
:1004D80050E700BF90F0000F04BF0021704730B50F
:1004E8004FF4806404F1320410F0004548BF4042E4
:1004F8004FF000013EE700BF42004FEAE2014FEA39
:1005080031014FEA02701FBF12F07F4393F07F4F13
:1005180081F06051704732F07F4208BF704793F016
:100528007F4F04BF41F40021704730B54FF4607429
:1005380001F0004521F000411CE700BF50EA01022C
:1005480008BF704730B54FF000050AE050EA0102D5
:1005580008BF704730B511F0004502D5404261EB45
:1005680041014FF4806404F132045FEA915C3FF486
:10057800D8AE4FF003025FEADC0C18BF03325FEA23
:10058800DC0C18BF033202EBDC02C2F1200300FAD4
:1005980003FC20FA02F001FA03FE40EA0E0021FAF9
:1005A80002F11444BDE600BF70B54FF0FF0C4CF4E7
:1005B800E06C1CEA11541DBF1CEA135594EA0C0F99
:1005C80095EA0C0F00F0DEF82C4481EA030621EAD4
:1005D8004C5123EA4C5350EA013518BF52EA03350F
:1005E80041F4801143F4801338D0A0FB02CE4FF0C1
:1005F8000005E1FB02E506F00042E0FB03E54FF0F1
:100608000006E1FB03569CF0000F18BF4EF0010EE8
:10061800A4F1FF04B6F5007F64F5407404D25FEAE4
:100628004E0E6D4146EB060642EAC62141EA555197
:100638004FEAC52040EA5E504FEACE2EB4F1FD0CD9
:1006480088BFBCF5E06F1ED8BEF1004F08BF5FEA57
:10065800500E50F1000041EB045170BD06F0004609
:1006680046EA010140EA020081EA0301B4EB5C04B6
:10067800C2BFD4EB0C0541EA045170BD41F48011AE
:100688004FF0000E013C00F3AB8014F1360FDEBFD3
:10069800002001F0004170BDC4F10004203C35DAAF
:1006A8000C341BDC04F11404C4F1200500FA05F332
:1006B80020FA04F001FA05F240EA020001F00042D3
:1006C80021F0004110EBD37021FA04F642EB060149
:1006D8005EEA430E08BF20EAD37070BDC4F10C0473
:1006E800C4F1200500FA04F320FA05F001FA04F237
:1006F80040EA020001F0004110EBD37041F1000123
:100708005EEA430E08BF20EAD37070BDC4F120052D
:1007180000FA05F24EEA020E20FA04F301FA05F295
:1007280043EA020321FA04F001F0004121FA04F23D
:1007380020EA020000EBD3705EEA430E08BF20EA0D
:10074800D37070BD94F0000F0FD101F00046400047
:1007580041EB010111F4801F08BF013CF7D041EAC9
:10076800060195F0000F18BF704703F000465200CD
:1007780043EB030313F4801F08BF013DF7D043EA9E
:100788000603704794EA0C0F0CEA135518BF95EA54
:100798000C0F0CD050EA410618BF52EA4306D1D1DB
:1007A80081EA030101F000414FF0000070BD50EAFA
:1007B800410606BF1046194652EA430619D094EA84
:1007C8000C0F02D150EA013613D195EA0C0F05D16E
:1007D80052EA03361CBF104619460AD181EA0301C2
:1007E80001F0004141F0FE4141F470014FF000007A
:1007F80070BD41F0FE4141F4780170BD70B54FF015
:10080800FF0C4CF4E06C1CEA11541DBF1CEA135594
:1008180094EA0C0F95EA0C0F00F0A7F8A4EB050476
:1008280081EA030E52EA03354FEA013100F088806D
:100838004FEA03334FF0805545EA131343EA126336
:100848004FEA022245EA111545EA10654FEA0026EB
:100858000EF000419D4208BF964244F1FD0404F5A4
:10086800407402D25B084FEA3202B61A65EB030500
:100878005B084FEA32024FF480104FF4002CB6EBBD
:10088800020E75EB030E22BFB61A754640EA0C003D
:100898005B084FEA3202B6EB020E75EB030E22BF7D
:1008A800B61A754640EA5C005B084FEA3202B6EBBE
:1008B800020E75EB030E22BFB61A754640EA9C007D
:1008C8005B084FEA3202B6EB020E75EB030E22BF4D
:1008D800B61A754640EADC0055EA060E18D04FEA0B
:1008E800051545EA16754FEA06164FEAC30343EAAB
:1008F80052734FEAC2025FEA1C1CC0D111F4801F78
:100908000BD141EA00014FF000004FF0004CB6E770
:1009180011F4801F04BF01430020B4F1FD0C88BF0F
:10092800BCF5E06F3FF6AFAEB5EB030C04BFB6EB1A
:10093800020C5FEA500C50F1000041EB045170BD0D
:100948000EF0004E4EEA113114EB5C04C2BFD4EB3A
:100958000C0541EA045170BD41F480114FF0000EBE
:10096800013C90E645EA060E8DE60CEA135594EA3A
:100978000C0F08BF95EA0C0F3FF43BAF94EA0C0F3D
:100988000AD150EA01347FF434AF95EA0C0F7FF4B2
:1009980025AF104619462CE795EA0C0F06D152EA06
:1009A80003353FF4FDAE1046194622E750EA4106EA
:1009B80018BF52EA43067FF4C5AE50EA41047FF4FB
:1009C8000DAF52EA43057FF4EBAE12E74FF0FF3C60
:1009D80006E000BF4FF0010C02E000BF4FF0010C31
:1009E8004DF804CD4FEA410C7FEA6C5C4FEA430CAA
:1009F80018BF7FEA6C5C1BD001B050EA410C0CBFF9
:100A080052EA430C91EA030F02BF90EA020F00205A
:100A1800704710F1000F91EA030F58BF994208BFC1
:100A280090422CBFD8176FEAE37040F0010070477E
:100A38004FEA410C7FEA6C5C02D150EA013C07D1D5
:100A48004FEA430C7FEA6C5CD6D152EA033CD3D020
:100A58005DF8040B704700BF8446104662468C461A
:100A68001946634600E000BF01B5FFF7B7FF00284D
:100A780048BF10F1000F01BD4DF808EDFFF7F4FF76
:100A88000CBF012000205DF808FB00BF4DF808ED01
:100A9800FFF7EAFF34BF012000205DF808FB00BF24
:100AA8004DF808EDFFF7E0FF94BF012000205DF846
:100AB80008FB00BF4DF808EDFFF7CEFF94BF0120FB
:100AC80000205DF808FB00BF4DF808EDFFF7C4FFF4
:100AD80034BF012000205DF808FB00BF4FEA410C3D
:100AE8007FEA6C5C02D150EA013C0AD14FEA430C20
:100AF8007FEA6C5C02D152EA033C02D14FF000005D
:100B080070474FF0010070474FEA410212F500129A
:100B180015D211D56FF47873B3EB625212D94FEA3C
:100B2800C12343F0004343EA505311F0004F23FA26
:100B380002F018BF404270474FF00000704750EA7B
:100B4800013005D111F0004008BF6FF00040704738
:100B58004FF00000704700BF4A0011D212F5001292
:100B680011D20DD56FF47873B3EB62520ED44FEAFD
:100B7800C12343F0004343EA505323FA02F070477D
:100B88004FF00000704750EA013002D14FF0FF30BB
:100B980070474FF0000070474FEA4102B2F1E0435E
:100BA80024BFB3F5001CDCF1FE5C0DD901F0004C4C
:100BB8004FEAC0024CEA5070B2F1004F40EB83009C
:100BC80008BF20F00100704711F0804F21D113F1C8
:100BD8003872BCBF01F00040704741F480114FEA01
:100BE8005252C2F11802C2F1200C10FA0CF320FA8A
:100BF80002F018BF40F001004FEAC1234FEAD323A7
:100C080003FA0CFC40EA0C0023FA02F34FEA430310
:100C1800CCE77FEA625307D150EA01331EBF4FF099
:100C2800FE4040F44000704701F0004040F0FE40B4
:100C380040F40000704700BF80F0004002E000BFB1
:100C480081F0004142001FBF5FEA410392EA030FAF
:100C58007FEA226C7FEA236C6AD04FEA1262D2EBF9
:100C68001363C1BFD218414048404140B8BF5B42FE
:100C7800192B88BF704710F0004F40F4000020F097
:100C88007F4018BF404211F0004F41F4000121F0AD
:100C98007F4118BF494292EA030F3FD0A2F10102F7
:100CA80041FA03FC10EB0C00C3F1200301FA03F135
:100CB80000F0004302D5494260EB4000B0F5000F58
:100CC80013D3B0F1807F06D340084FEA310102F117
:100CD8000102FE2A51D2B1F1004F40EBC25008BFC9
:100CE80020F0010040EA03007047490040EB000093
:100CF800013A28BFB0F5000FEDD2B0FA80FCACF194
:100D0800080CB2EB0C0200FA0CF0AABF00EBC250C0
:100D180052421843BCBFD0401843704792F0000FAE
:100D280081F4000106BF80F400000132013BB5E701
:100D38004FEA41037FEA226C18BF7FEA236C21D077
:100D480092EA030F04D092F0000F08BF08467047DC
:100D580090EA010F1CBF0020704712F07F4F04D1AA
:100D6800400028BF40F00040704712F100723CBFBD
:100D780000F50000704700F0004343F0FE4040F4E7
:100D8800000070477FEA226216BF08467FEA2363A5
:100D98000146420206BF5FEA412390EA010F40F490
:100DA800800070474FF0000304E000BF10F00043DC
:100DB80048BF40425FEA000C08BF704743F09643C3
:100DC80001464FF000001CE050EA010208BF7047DE
:100DD8004FF000030AE000BF50EA010208BF704765
:100DE80011F0004302D5404261EB41015FEA010C7A
:100DF80002BF84460146002043F0B64308BFA3F172
:100E08008053A3F50003BCFA8CF2083AA3EBC25353
:100E180010DB01FA02FC634400FA02FCC2F1200272
:100E2800BCF1004F20FA02F243EB020008BF20F0A9
:100E38000100704702F1200201FA02FCC2F120020F
:100E480050EA4C0021FA02F243EB020008BF20EA04
:100E5800DC7070474FF0FF0C1CEAD0521EBF1CEA32
:100E6800D15392EA0C0F93EA0C0F6FD01A4480EA20
:100E7800010C400218BF5FEA41211ED04FF0006309
:100E880043EA501043EA5111A0FB01310CF0004035
:100E9800B1F5000F3EBF490041EAD3715B0040EA5B
:100EA800010062F17F02FD2A1DD8B3F1004F40EB2B
:100EB800C25008BF20F00100704790F0000F0CF0FE
:100EC800004C08BF49024CEA502040EA51207F3AC2
:100ED800C2BFD2F1FF0340EAC250704740F400009D
:100EE8004FF00003013A5DDC12F1190FDCBF00F08E
:100EF80000407047C2F10002410021FA02F1C2F13C
:100F0800200200FA02FC5FEA310040F1000053EAD7
:100F18004C0308BF20EADC70704792F0000F00F025
:100F2800004C02BF400010F4000F013AF9D040EA2B
:100F38000C0093F0000F01F0004C02BF490011F4BF
:100F4800000F013BF9D041EA0C018FE70CEAD153BD
:100F580092EA0C0F18BF93EA0C0F0AD030F0004C3D
:100F680018BF31F0004CD8D180EA010000F00040F1
:100F7800704790F0000F17BF90F0004F084691F0AF
:100F8800000F91F0004F14D092EA0C0F01D14202E9
:100F98000FD193EA0C0F03D14B0218BF084608D1B2
:100FA80080EA010000F0004040F0FE4040F40000FC
:100FB800704740F0FE4040F4400070474FF0FF0C8F
:100FC8001CEAD0521EBF1CEAD15392EA0C0F93EAD6
:100FD8000C0F69D0A2EB030280EA010C49024FEA28
:100FE800402037D04FF0805343EA111143EA1013E1
:100FF8000CF000408B4238BF5B0042F17D024FF499
:10100800000C8B4224BF5B1A40EA0C00B3EB510F73
:1010180024BFA3EB510340EA5C00B3EB910F24BF5C
:10102800A3EB910340EA9C00B3EBD10F24BFA3EBE1
:10103800D10340EADC001B0118BF5FEA1C1CE0D1A9
:10104800FD2A3FF650AF8B4240EBC25008BF20F05C
:10105800010070470CF0004C4CEA50207F32C2BFB0
:10106800D2F1FF0340EAC250704740F400004FF04D
:101078000003013A37E792F0000F00F0004C02BF7E
:10108800400010F4000F013AF9D040EA0C0093F048
:10109800000F01F0004C02BF490011F4000F013BA2
:1010A800F9D041EA0C0195E70CEAD15392EA0C0F0A
:1010B80008D142027FF47DAF93EA0C0F7FF470AF42
:1010C800084676E793EA0C0F04D14B023FF44CAF85
:1010D80008466EE730F0004C18BF31F0004CCAD11A
:1010E80030F000427FF45CAF31F000437FF43CAF56
:1010F8005FE700BF4FF0FF3C06E000BF4FF0010C78
:1011080002E000BF4FF0010C4DF804CD4FEA400259
:101118004FEA41037FEA226C18BF7FEA236C11D0A3
:1011280001B052EA530C18BF90EA010F58BFB2EB56
:10113800030088BFC81738BF6FEAE17018BF40F0D6
:10114800010070477FEA226C02D15FEA402C05D18A
:101158007FEA236CE4D15FEA412CE1D05DF8040B0F
:10116800704700BF844608466146FFE70FB5FFF7A2
:10117800C9FF002848BF10F1000F0FBD4DF808ED5A
:10118800FFF7F4FF0CBF012000205DF808FB00BF4B
:101198004DF808EDFFF7EAFF34BF012000205DF8A5
:1011A80008FB00BF4DF808EDFFF7E0FF94BF0120F2
:1011B80000205DF808FB00BF4DF808EDFFF7D2FFEF
:1011C80094BF012000205DF808FB00BF4DF808ED32
:1011D800FFF7C8FF34BF012000205DF808FB00BFFF
:1011E8004FEA40024FEA41037FEA226C02D15FEAEC
:1011F800402C08D17FEA236C02D15FEA412C02D14E
:101208004FF0000070474FF0010070474FEA40026E
:10121800B2F1FE4F0FD34FF09E03B3EB12620DD91C
:101228004FEA002343F0004310F0004F23FA02F086
:1012380018BF404270474FF00000704712F1610F2D
:1012480001D1420205D110F0004008BF6FF0004004
:1012580070474FF00000704780B582B000AF7860EB
:101268007B681B7883F00103DBB2002B06D17B6817
:1012780008331946786800F047F800E000BF0837DF
:10128800BD4680BD80B582B000AF78607B681B78B2
:1012980083F00103DBB2002B06D17B6810331946BB
:1012A800786800F031F800E000BF0837BD4680BD1F
:1012B80080B582B000AF78607B681B7883F001034B
:1012C800DBB2002B06D17B6820331946786800F022
:1012D8001BF800E000BF0837BD4680BD80B582B06E
:1012E80000AF78607B681B7883F00103DBB2002BCA
:1012F80006D17B6828331946786800F005F800E0C5
:1013080000BF0837BD4680BD80B582B000AF7860A9
:1013180039607B685B68002B0AD17B683A685A6041
:101328000021054821F070FD044821F027FB00E06A
:1013380000BF0837BD4680BD305D0020985E0020A4
:1013480080B584B000AF78607B685B68991C7A6868
:1013580051601B88FB817B685B68991C7A685160C7
:101368001B88BB81BB89002B0ED10021104821F0BE
:1013780005FE104821F062FB0D4B1B6800225A63E2
:101388007B6800225A600FE0FB895A1E084B1B68D5
:10139800DA62FB895B089AB2054B1B685A63BB8902
:1013A8005A1E044B1B68DA621037BD4680BD00BF69
:1013B800305D0020985E002080B483B000AF786074
:1013C8007B681A46002313607B6818460C37BD46B5
:1013D80080BC704780B483B000AF78607B68DB78EE
:1013E80043F04003DAB27B68DA7000BF0C37BD46C1
:1013F80080BC704780B483B000AF78607B68DB78CE
:1014080063F07F03DAB27B68DA7000BF0C37BD4641
:1014180080BC704780B483B000AF78607B68DB78AD
:1014280023F04003DAB27B68DA7000BF0C37BD46A0
:1014380080BC704780B483B000AF78607B68DB788D
:1014480003F07F03DAB27B68DA7000BF0C37BD4661
:1014580080BC704780B483B000AF78607B68DB786D
:1014680003F04003002B14BF01230023DBB218460E
:101478000C37BD4680BC704780B483B000AF78603D
:101488007B68DB785BB2DBB2DB09DBB218460C3772
:10149800BD4680BC704780B483B000AF78607B687D
:1014A8000022DA707B68DA787B689A707B689A78B1
:1014B8007B685A707B685A787B681A7000BF0C3753
:1014C800BD4680BC704780B483B000AF78607B684D
:1014D8009B8818460C37BD4680BC704780B483B0E3
:1014E80000AF78607B689B8F03F00103002B14BF6B
:1014F80001230023DBB218460C37BD4680BC704779
:1015080080B483B000AF78607B689B8F03F400736E
:10151800002B14BF01230023DBB218460C37BD464D
:1015280080BC704790B585B000AF78607B6818467E
:101538000BF0B9FD0346BB73BB7B002B40F0B480B6
:10154800786801F019FA0023FB737B6803F58A5366
:1015580018331846FFF7B7FF0346002B14BF0123C3
:101568000023DBB2002B04D0786801F09CF9034615
:10157800FB737A687B6803F5835306331946104674
:101588000BF0F0FE03467B737B7B002B08D07B6857
:1015980003F5835306331946786800F0DFF822E034
:1015A8007B6803F582530833184601F043FB7B68D8
:1015B80003F583530C337A6802F5805214461946B2
:1015C800786800F0D7FE0346E3667B6803F583532B
:1015D80010337A6802F5805214461946786800F08C
:1015E800C9FE034623677A687B6803F58253123382
:1015F800194610460BF0C7FF034683F00103DBB220
:10160800002B06D07B6803F582530833184601F097
:1016180083FB7B6803F58A531833002118460FF0C3
:1016280046F903461946786800F062F97B6803F5C5
:1016380083530C331946786800F05AF97B6803F530
:10164800835310331946786800F052F97B6803F524
:1016580082530833184601F029FEFB7B002B10D07B
:101668007B7B83F00103DBB2002B08D07A687B68B0
:1016780003F583530633194610460BF037FF002352
:101688004AE07B6803F58A5318331846FFF71BFFB7
:101698000346012B8CBF01230023DBB2002B01D0B2
:1016A800012339E0022337E07B6803F582530833CE
:1016B800184601F0BFFA7B6803F5825308331846D1
:1016C80001F02AFB7B6803F586531E330221184676
:1016D80002F0B6F87B6803F583530C331946786833
:1016E80000F006F97B6803F58353103319467868D0
:1016F80000F0FEF87B6803F582530833184601F0C2
:10170800D5FDBB7B012B01D1032305E0BB7B022B5D
:1017180001D1042300E0002318461437BD4690BDCC
:1017280080B582B000AF78607B6803F58A531833C0
:101738001846FFF7C8FE0346002B14BF01230023F9
:10174800DBB2002B04D0786801F0ADF8012300E08B
:10175800002318460837BD4680BD000090B585B007
:1017680000AF786039603B685B88FB813B689B8889
:10177800BB813B689B8A7B813B68DB8B03F0010361
:10178800002B14D1B7F90E3018461AF0CDFC0346D9
:10179800FB81B7F90C3018461AF0C6FC0346BB812A
:1017A800B7F90A3018461AF0BFFC03467B81FB895B
:1017B800444A12881146444A128818461AF082FC94
:1017C8000346FB81BB893F4A128811463E4A12886C
:1017D80018461AF077FC0346BB817B893B4A12887E
:1017E80011463B4A128818461AF06CFC03467B8166
:1017F8003B68DB8B03F00103002B14D1B7F90E30E3
:1018080018461AF077FC0346FB81B7F90C301846E6
:101818001AF070FC0346BB81B7F90A3018461AF073
:1018280069FC03467B813B68FA895A803B68BA8920
:101838009A803B687A899A823B689B7C1E2B02D9E6
:101848003B681E229A743B681B7E1E2B02D93B689C
:101858001E221A763B6806333C681946786800F001
:1018680089FD03461A46A271C3F30722E271C3F346
:1018780007422272C3F3076363723B680A333C680A
:101888001946786800F076FD03461A46A272C3F33B
:101898000722E272C3F307422273C3F30763637339
:1018A8003B6893F82030FF220A2118461AF00AFCF8
:1018B8000346DAB23B6883F8202000BF1437BD46E0
:1018C80090BD00BFA8620308AC620308AE620308BB
:1018D800B062030880B582B000AF78607B680833D7
:1018E8001846FFF769FD7B6818460837BD4680BD76
:1018F80080B588B000AF786039607B6803F58A539B
:101908001833396818460FF006F80346BB83B7F951
:101918001C30002B01DA00237FE00123FB777B6872
:1019280003F58A531833BA8B114618460EF0D9FFBF
:101938000346FB767B6803F586531E3339681846E1
:1019480001F0E6FF0346BB76FB7EFF2B0AD17B68DE
:1019580003F586531E33BA7E1146184601F070FF10
:1019680000235AE007F108031846FFF7B3FF786829
:10197800FA7E07F1080100230BF0ABFE0346002BAB
:1019880014BF01230023DBB2002B0BD07B6803F5C7
:1019980086531E33BA7E1146184601F051FF0023C4
:1019A800FB7739E007F1080308331846FFF764FDB1
:1019B800034683F00103DBB2002B09D07B6803F5F3
:1019C80086531E33BA7E1146184601F039FF23E0CC
:1019D8007B6803F586531E3307F108021146184643
:1019E80001F0BAFF034683F00103DBB2002B09D0F4
:1019F8007B6803F586531E33BA7E1146184601F0FC
:101A08001FFF09E07B6803F586531E33BA7E07F192
:101A18000801184601F0CAFCFB7F18462037BD466E
:101A280080BD80B584B000AF786039607B6803F50D
:101A380086531E333968184601F06AFF0346FB7364
:101A480039687868FFF754FF0346002B17D0FB7BF3
:101A5800002B07D17B6803F580533A686C33106814
:101A6800186009E0FB7B012B06D17B6803F58053E6
:101A78003A68703310681860786800F0B1F900BFF0
:101A88001037BD4680BD80B584B000AF78600B4686
:101A9800FB70FB781946786800F01CF8024607F1DD
:101AA8000803106818607B6803F58A53183307F138
:101AB8000802114618460EF02EFF0346FB81B7F9BF
:101AC8000E30002B01DA0023FB81FB891846103702
:101AD800BD4680BD80B582B000AF78600B46FB7014
:101AE800FB78022B09D17B6803F58A531833002150
:101AF80018460EF0DCFE03460BE0FB78002B04D101
:101B08007B6803F583530C3303E07B6803F5835349
:101B1800103318460837BD4680BD80B586B000AF83
:101B2800F860084611461A4603467B810B463B81FE
:101B38001346FB71FB6803F586501E30FB79B7F935
:101B48000820798901F028FD0346FB82FB6803F52C
:101B5800825308331846FFF7C1FC034683F001039C
:101B6800DBB2002B06D0B7F9163018461AF0C2FAC5
:101B78000346FB82FB8A18461837BD4680BD000025
:101B88002DE9F0418EB002AFF860084611461A46BA
:101B980003467B810B463B811346FB71B7F908402E
:101BA800FB6803F586531E33FA791146184601F08F
:101BB8004BFC0346E31ABB61FB6803F586531E33EF
:101BC800FA790021184601F0C9FC03461A46BB6998
:101BD8009BB21344FB85FB6803F586531E33FA79E1
:101BE8000321184601F0BAFC03461A46BB699BB2AA
:101BF8001344BB85FB6803F582530833F979012246
:101C0800184600F06FFD03467B85FB6803F5825399
:101C18000833F9790122184600F0AAFD03463B85EE
:101C280097F84830002B01D064237B85FB6803F5C7
:101C3800825308331846FFF751FC034683F001032B
:101C4800DBB2002B1BD0B7F92E3018461AF052FA27
:101C58000346FB85B7F92C3018461AF04BFA0346B1
:101C6800BB85B7F92A3018461AF044FA03467B8533
:101C7800B7F9283018461AF03DFA03463B857B89A8
:101C8800798D3A8D18461AF01DFA03467B81002398
:101C9800FB84474B1B88BB847C89FD8DBE8DFB680C
:101CA80003F586531E33FA790021184601F0E8FB44
:101CB80003469846FB6803F586531E33FA790321D9
:101CC800184601F0DDFB0346009343463246294699
:101CD80020461AF06BF903467B847A8CF98CBB8C0E
:101CE8000B44D90F0B445B109A420CDDBA8CFB8C69
:101CF800D31A002B00DA03339B105B429AB27B8C19
:101D080013447B840AE0BA8CFB8CD31A002B00DACC
:101D180003339B109AB27B8C13447B84002387F88F
:101D280021303AE0FB79B7F90820798CF868FFF799
:101D3800F4FE0346FB82FA8A7B899A4201D17B8CA6
:101D480030E0FA8A7B899A4210D27B8CFB84FA8C29
:101D5800BB8C1344DA0F13445B10FB83FA8B7B8C28
:101D68009A4213D17B8C0133FB830FE07B8CBB84BD
:101D7800FA8CBB8C1344DA0F13445B10FB83FA8B89
:101D88007B8C9A4202D17B8C013BFB83FB8B7B844F
:101D980097F82130013387F8213097F82130132B39
:101DA800C0D97B8C18463037BD46BDE8F08100BFEE
:101DB800A462030880B586B000AFF860B960134626
:101DC800FB71FB791946B868FFF784FE7861FB68F8
:101DD800796918460EF0D4FAF8681837BD4680BD00
:101DE80080B582B000AF78607B6803F58253083312
:101DF800184600F061FE0346002B10D17A687B6814
:101E080003F583530633194610460BF06FFB7B68C6
:101E180003F582530833184601F048FA00E000BF82
:101E28000837BD4680BD80B584B000AFF860B960A2
:101E38001346FB71FB79002B18D1BB681B689AB25B
:101E4800FB6803F58053A3F85420BB685B689AB21B
:101E5800FB6803F58053A3F85620BB689B689AB2C9
:101E6800FB6803F58053A3F8582033E0FB79022B75
:101E780018D1BB681B689AB2FB6803F58053A3F8B6
:101E88006020BB685B689AB2FB6803F58053A3F8CF
:101E98006220BB689B689AB2FB6803F58053A3F87D
:101EA800642017E0BB681B689AB2FB6803F580538F
:101EB800A3F85A20BB685B689AB2FB6803F58053A5
:101EC800A3F85C20BB689B689AB2FB6803F5805353
:101ED800A3F85E20FA68FB6803F5825312331946AB
:101EE80010460BF0ADFB00BF1037BD4680BD80B576
:101EF8008AB000AFF8607A601A460B46FB72134648
:101F0800BB7207F114031846FFF7E4FC7B681B88D3
:101F1800BB827B685B88FB827B689B883B837B6892
:101F2800DB887B8397F8303087F82030FB7A1946B6
:101F3800F868FFF7CFFD024607F11C031068186028
:101F4800FB6803F586531E3307F114021146184641
:101F580001F002FD0346002B24D0BA7A07F11403DE
:101F68000833114618460EF0C3FAFB6807F114014E
:101F7800002218460BF054FC0346FB84B7F92630C0
:101F8800002B0FDBFB6803F58A531833FA8CD0B2A9
:101F980007F1140202F10801024618460EF052FC3D
:101FA800012306E007F1140308331846FFF742FA45
:101FB800002318462837BD4680BD80B584B000AFE1
:101FC80078600B46FB70FB7819467868FFF782FD4E
:101FD800F860F868FFF750FA034618461037BD4610
:101FE80080BD80B588B000AF78600B467B807B6889
:101FF80003F58A5318331846FFF765FA0346012B91
:1020080094BF01230023DBB2002B01D0002390E012
:102018000023FB7707F10C031846FFF75BFC7B688E
:1020280003F58A5318337A88114618460EF059FC7E
:102038000346BB83B7F91C30FF2B2CD17B6803F513
:102048008A5318337A88114618460EF030FC024637
:1020580007F108031068186007F1080318460EF026
:102068003BF9034683F00103DBB2002B3BD007F1B9
:1020780008031846FFF7AEF9BB687B617B6803F578
:1020880086531E3307F10C021146184601F00EFC68
:102098000123FB7727E07868BB8BDAB207F10C01E4
:1020A80001230BF016FB0346002B0CBF0123002372
:1020B800DBB2002B17D007F10C0308331846FFF7E3
:1020C800C9F90346002B06D007F10C03083318465C
:1020D800FFF7A0F905E007F10C0308331846FFF7EE
:1020E80079F90123FB77FB7F83F00103DBB2002B37
:1020F80001D000231DE07B6807F10C01012218467E
:102108000BF08EFB0346BB83B7F91C30002B0FDBAB
:102118007B6803F58A531833BA8BD0B207F10C02E7
:1021280002F10801024618460EF08CFB012300E07C
:10213800002318462037BD4680BD90B589B000AF52
:10214800F8607A601A460B46FB721346BB72FB684E
:1021580003F58A5318331846FFF7B5F90346002BE1
:102168000CBF01230023DBB2002B17D00023FB7721
:102178000EE0FA7F13465B0013445B001A467B6847
:10218800134402331846FFF786F9FB7F0133FB77C8
:10219800FA7FBB7A9A42ECD30023E7E0FB7A9BB242
:1021A800013B9BB2BB830323FB762AE097F83030D0
:1021B80083F00103DBB2002B0FD1FB6803F58A53D0
:1021C8001833BA8B114618460EF071FB03461846B1
:1021D800FFF740F90346002B01D0012300E000235C
:1021E800002B0AD0FB7E013BFB76FB7E002B0CBF4D
:1021F80001230023DBB2002B08D1BB8B013B9BB230
:10220800BB83B7F91C30002BD0DC00E000BF0023F3
:10221800BB76B7F91C30002B7DDC0123BB837AE049
:10222800FB6803F58A531833BA8B114618460EF02B
:102238003EFB024607F114031068186097F8303027
:10224800002B0CD007F114031846FFF703F90346D7
:1022580083F00103DBB2002B01D0012300E000234F
:10226800002B4FD197F83830032B11D0FB6803F5BA
:1022780086531E3307F114021146184601F048FB35
:1022880003461A4697F83830934201D0012300E0FC
:102298000023002B38D197F8343083F00103DBB2E8
:1022A800002B0DD097F83830002B09D107F1140313
:1022B80018460EF03FF90346002B01D1012300E038
:1022C8000023002B22D1BA7E13465B0013445B0027
:1022D8001A467B681344BA8B1A80BA7E13465B0091
:1022E80013445B001A467B681344023307F1140257
:1022F80010681860BB7E0133BB76BA7EBB7A9A42FF
:102308001CD204E000BF02E000BF00E000BFBB8BAE
:1023180001339BB2BB83B7F91C40FB6803F58A53B2
:1023280018331846FFF7CFF803469C42B4BF012381
:102338000023DBB2002B7FF473AF00E000BFBB7E4D
:102348007B760EE07A7E13465B0013445B001A46E8
:102358007B68134402331846FFF79DF87B7E0133F0
:102368007B767A7EBB7A9A42ECD3BB7E18462437BA
:10237800BD4690BD90B58BB000AF786039607B6882
:1023880003F58A531833396818460EF0C4FA034621
:10239800FB8338680EF0CEF803467B777B6803F53D
:1023A8008A531833FA8B114618460EF080FA024603
:1023B80007F1140310681860B7F91E30002B6BDAA8
:1023C8004FF6FF73FB840023BB842CE07B6803F586
:1023D8008A531833BA8C114618460EF068FA02462A
:1023E80007F110031068186007F1100318460EF083
:1023F800A1F803461A467B7F93420CBF01230023B2
:10240800DBB2002B0CD0BB8CFB8407F11003184601
:10241800FFF720F80346002B02D03B69BB6123E19C
:10242800BB8C0133BB847B6803F58A531833184689
:10243800FFF749F803461A46BB8C934234BF012381
:102448000023DBB2002BC1D17B6803F58A53183314
:10245800FA8C114618460EF02AFA024607F11403C0
:102468001068186007F1140318460DF035FF03468D
:10247800002B0ED0854B1C68844B1B681846FDF753
:10248800CFFE0346DBB2797F07F1140022460DF038
:1024980083FE7B69BB61E7E0B7F91E30002B0DD1E5
:1024A8007B6803F58A531833002118460EF0FFF9AC
:1024B800024607F1180310681860D5E007F1140305
:1024C8001846FEF7C7FF0346002B02D07B69BB61A5
:1024D800CAE0FB8B013B7B8418E07B6803F58A53D9
:1024E80018337A8C114618460EF0E1F9024607F1C6
:1024F8000C031068186007F10C031846FEF7AAFFD2
:102508000346002B06D17B8C013B7B847B8C002B04
:10251800E3D100E000BFFB8B01333B8418E07B680C
:1025280003F58A5318333A8C114618460EF0BFF952
:10253800024607F108031068186007F108031846F7
:10254800FEF788FF0346002B14D13B8C01333B84F4
:102558007B6803F58A5318331846FEF7B4FF034621
:102568001A463B8C934234BF01230023DBB2002B75
:10257800D5D100E000BF7B8C002B0DD17B6803F523
:102588008A5318331846FEF79EFF03461A463B8CBB
:10259800934201D3012300E00023002B02D07B6982
:1025A800BB6161E07B8C002B0ED17B6803F58A53FD
:1025B80018333A8C114618460EF079F9024607F19D
:1025C8001403106818604DE07B6803F58A531833CC
:1025D8001846FEF778FF03461A463B8C93422CBFF9
:1025E80001230023DBB2002B0ED07B6803F58A534E
:1025F80018337A8C114618460EF059F9024607F13D
:102608001403106818602DE0B7F91E207B8CD31ACC
:1026180083EAE372A2EBE372398CB7F91E30CB1A66
:10262800002BB8BF5B429A420EDA7B6803F58A53E7
:1026380018337A8C114618460EF039F9024607F11C
:102648001403106818600DE07B6803F58A5318338B
:102658003A8C114618460EF02AF9024607F114037F
:10266800106818607B69BB6100233A7E62F3070338
:102678007A7E62F30F23BA7E62F31743FA7E62F31F
:102688001F6318462C37BD4690BD00BF4800002088
:1026980080B586B000AFF860B96011461A460B469F
:1026A800FB711346BB71FB6803F586501E30BB797E
:1026B80097F90720B96800F001FFBB791946F86857
:1026C800FFF708FA78617869FEF784FE97F82030FA
:1026D800002B02D07869FEF78DFE00BF1837BD4683
:1026E80080BD000080B584B000AF78600B46FB70F9
:1026F8001346BB70FB78022B02D11A4B1B8801E0F2
:10270800194B1B88FB81BB7883F00103DBB2002BDC
:102718000AD07868FEF7E2FE034683F00103DBB2D5
:10272800002B01D0012300E00023002B14D0B7F9BF
:102738000E30184619F0DEFC0346FB81FA890B4B74
:10274800A3FB0213D9080B469B000B445B00D31A6A
:102758009BB2FA89D31AFB81FB8918461037BD460C
:1027680080BD00BFAE620308A8620308CDCCCCCC04
:1027780090B583B000AF78600B46FB701346BB7012
:10278800BB78002B05D17868FEF7A8FE0346002B1E
:1027980001D0012400E000247868FEF7B1FE03466A
:1027A800F9782246786800F005F8034618460C3791
:1027B800BD4690BD80B584B000AF7860084611462C
:1027C8001A460346FB700B46BB7013467B701A4BC8
:1027D8001B88FB81FB78002B02D0FB78012B08D1EA
:1027E8007B78002B02D0154B1B8801E0144B1B880B
:1027F800FB81BB7883F00103DBB2002B16D0B7F95D
:102808000E30184619F076FC0346FB81FA890D4B09
:10281800A3FB0213D9080B469B000B445B00D31A99
:102828009BB2FA89D31A9BB20A33FB81FB891846FB
:102838001037BD4680BD00BFB0620308AA62030816
:10284800AC620308CDCCCCCC80B485B000AF786046
:102858007B689B8F03F48063002B02D07B689233E4
:1028680001E07B688E33FB60FB681B8818461437D1
:10287800BD4680BC704780B485B000AF78607B6887
:102888009B8F03F48063002B02D07B68923301E0B6
:102898007B688E33FB60FB6802331B88184614374D
:1028A800BD4680BC704790B589B000AF786007F12D
:1028B80008031846FFF70EF80023FB770023BB83B5
:1028C8003EE07868BB8BDAB207F1080101230AF011
:1028D80000FF0346FB76FB7E002B2AD17B6803F5BD
:1028E80086531E3307F108021146184601F034F8E2
:1028F800034683F00103DBB2002B05D007F1080380
:1029080008331846FEF796FD7B6803F58A5318339B
:10291800BA8BD0B207F1080202F108010246184644
:102928000DF090FF0346002B06D0FB7F0133FB77A9
:1029380002E0FB7E012B15D0BB8B01339BB2BB831E
:10294800B7F91C407B6803F58A5318331846FEF71D
:10295800BAFD03469C42B4BF01230023DBB2002B1F
:10296800AFD100E000BF7B6818460AF0B3FCFB7FDC
:1029780018462437BD4690BD90B58BB000AF78603F
:102988000023FB84002387F8233007F10C03184643
:10299800FEF712FD0EE097F8232007F1100107F16A
:1029A8000C0318460DF039FC0346002B02D0FB8CB3
:1029B8000133FB847B6807F11001102218460BF0E5
:1029C80057F8034687F8233097F82330002B14BFB5
:1029D80001230023DBB2002BDDD17B6818460BF006
:1029E800EAF8FB8C0133FB847B6803F58A531833C0
:1029F800FA8C114618460DF0DFFE0346002B54D022
:102A08002C4B1C682B4B1B681846FDF709FC03462A
:102A1800DBB207F10C00224605210DF0BDFB7B68F7
:102A280003F58A53183307F10C02002118460DF0FC
:102A3800E2FE0123BB842CE07B6807F11001102221
:102A480018460BF015F8034687F8233097F823301B
:102A5800002B23D097F8232007F1100107F10C036E
:102A680018460DF0DAFB0346002B12D07B6803F5FD
:102A78008A53183307F10C02B98C18460DF0BBFEC7
:102A8800034683F00103DBB2002B09D1BB8C013371
:102A9800BB84BA8CFB8C9A42CED302E000BF00E024
:102AA80000BF7B6818460BF086F8FB8C18462C375D
:102AB800BD4690BD4C00002080B582B000AF786064
:102AC8007B681A8C7B68B3F858309A4201D000238F
:102AD800ACE07B685A8C7B68B3F85A309A4201D0D4
:102AE8000023A3E07B685A8E7B68B3F86A309A4269
:102AF80001D000239AE07B6893F831207B6893F833
:102B080069309A4201D0002390E07B689A8D7B68F7
:102B1800B3F864309A4201D0002387E07B6893F8C9
:102B28002E207B6893F866309A4201D000237DE01E
:102B38007B6893F830207B6893F868309A4201D01C
:102B4800002373E07B689A8E7B68B3F86C309A42F6
:102B580001D000236AE07B6893F836207B6893F8FD
:102B68006E309A4201D0002360E07B689A8F7B68C0
:102B7800B3F874309A4201D0002357E07B6893F889
:102B88002F207B6893F867309A4201D000234DE0EC
:102B98007B6893F83E207B6893F876309A4201D0A0
:102BA800002343E07B681A8F7B68B3F870309A4241
:102BB80001D000233AE07B6893F83A207B6893F8C9
:102BC80072309A4201D0002330E07B6803F124027E
:102BD8007B685C33194610460DF0A2FB034683F070
:102BE8000103DBB2002B01D000231FE07B6803F157
:102BF80028027B686033194610460DF091FB0346A6
:102C080083F00103DBB2002B01D000230EE07B68C8
:102C180003F141007B6879331422194631F090FBA7
:102C28000346002B01D0002300E001231846083793
:102C3800BD4680BDB0B582B000AF78607B68EB223E
:102C48001A847B68EB225A847B68C8225A867B6880
:102C5800142283F831207B68052283F830207B68B2
:102C6800B4229A857B68052283F82E207B68B422DB
:102C78009A867B68052283F836207B68B3229A8778
:102C88007B68502283F82F207B68802283F83E20BF
:102C98001E4B1A787B6883F840207B68012283F8F2
:102CA8003F207B68002283F83A207B68B4221A8789
:102CB8007B68413314221649184631F053FB7B6870
:102CC80003F12404134B1D68124B1B681846FDF7CB
:102CD800A7FA0346DBB22A46012120460DF05CFA2A
:102CE8007B6803F128040B4B1D680A4B1B681846C8
:102CF800FDF796FA0346DBB22A46032120460DF07B
:102D08004BFA00BF0837BD46B0BD00BFB26203082A
:102D1800C46203084800002080B483B000AF786024
:102D28007B6840F6FC029A817B683222DA817B68F4
:102D380040F2DF221A827B6840F2C7525A827B68CF
:102D48003B229A827B6840F2FB12DA827B684FF45E
:102D580096721A837B6814225A837B6800229A83AE
:102D680000BF0C37BD4680BC704780B584B000AF4B
:102D7800F860B9601346FB71FB79002B07D1C823B3
:102D88000A2240F23F21F86817F072FD11E0FB7942
:102D9800022B06D1322340229621F86817F068FDED
:102DA80007E040F2A46303224FF4FA71F86817F0C1
:102DB8005FFDF8681037BD4680BD80B586B002AFAC
:102DC80078607B689B8F03F48063002B02D07B685C
:102DD800923301E07B688E33FB607B6893F8313077
:102DE8001846FB681B881A46FB6802331B88009349
:102DF80013466422002119F003F903469BB21846D2
:102E08001037BD4680BD80B483B000AF78600B46F4
:102E1800FB70FB78012B03D17B6893F8363009E00F
:102E2800FB78002B03D17B6893F8303002E07B6895
:102E380093F83A3018460C37BD4680BC704780B4CA
:102E480083B000AF78600B46FB70FB78012B02D192
:102E58007B689B8E07E0FB78002B02D17B689B8DFB
:102E680001E07B681B8F18460C37BD4680BC704755
:102E780080B483B000AF78600B46FB70FB78022B00
:102E880002D17B685B8E07E0FB78012B02D17B685F
:102E98005B8C01E07B681B8C18460C37BD4680BCF8
:102EA8007047000080B582B000AF78607B6893F807
:102EB8004130002B06D17B6841331422044918465F
:102EC80031F050FA7B68413318460837BD4680BD5B
:102ED800C462030880B584B000AF78600846114624
:102EE8001A460346FB700B46BB7013467B707B6823
:102EF8009B8F03F00103002B14BF01230023FB73F6
:102F0800FA7BBB789A423FD0BB78002B1ED07B68F7
:102F18001B8C1BB2184619F007F903469AB27B6856
:102F28001A847B685B8C1BB2184619F0FDF80346BF
:102F38009AB27B685A847B685B8E1BB2184619F07C
:102F4800F3F803469AB27B685A861DE07B681B8CAF
:102F58001BB2184619F0CEF803469AB27B681A8459
:102F68007B685B8C1BB2184619F0C4F803469AB20A
:102F78007B685A847B685B8E1BB2184619F0BAF8D6
:102F880003469AB27B685A867B689B8F03F00C03D2
:102F98009AB27B689A87BB78002B06D07B689B8F98
:102FA80043F001039AB27B689A87FB78002B06D01E
:102FB8007B689B8F43F002039AB27B689A877B7881
:102FC800002B06D07B689B8F43F080039AB27B6806
:102FD8009A873B7E002B06D07B689B8F43F01003BB
:102FE8009AB27B689A873B7F002B06D07B689B8FC1
:102FF80043F020039AB27B689A8797F82030002B19
:1030080006D07B689B8F43F480739AB27B689A875B
:1030180097F82430002B06D07B689B8F43F400730D
:103028009AB27B689A8797F82830FF2201211846C0
:1030380019F048F80346DAB27B6883F83E2097F81F
:103048002C30164A12781146154A1278184619F08B
:1030580039F80346DAB27B6883F8402097F82430C1
:10306800002B16D0002200217868FFF781FB034669
:10307800BB817B681B8CBA899A4202D27B68BA8969
:103088001A847B685B8CBA899A4202D27B68BA89B7
:103098005A8400BF1037BD4680BD00BFB362030825
:1030A800B462030880B483B000AF78600846114664
:1030B8001A460346FB700B46BB7013467B707B6851
:1030C8007A7883F830207B683A8A9A857B683A7DDB
:1030D80083F82E207B689B8F23F00C039AB27B68C1
:1030E8009A87FB78002B06D07B689B8F43F00403FC
:1030F8009AB27B689A87BB78002B06D07B689B8F37
:1031080043F008039AB27B689A873B7E4B2B01D920
:103118004B233B76BB8BB3F5A07F02D94FF4A0734A
:10312800BB83BB8B042B01D80523BB833B7E0433B5
:103138003B763B7E174AA2FB03239B083B763B7EEC
:103148001B01DAB27B6883F82F207B6893F82F3055
:1031580023F00F03DAB27B6883F82F207B6893F89B
:103168002F305AB2BB8B013B0B4981FB0301C910BD
:10317800DB17CB1A5BB203F00F035BB213435BB2EE
:10318800DAB27B6883F82F2000BF0C37BD4680BCBD
:10319800704700BFCDCCCCCC6766666680B582B080
:1031A80000AF78600B46FB7013463B807B683A881B
:1031B8009A86FB781E220021184618F083FF0346E2
:1031C800DAB27B6883F8362000BF0837BD4680BD79
:1031D80080B483B000AF7860084611461A460346AB
:1031E800FB700B46BB7013467B70FB78002B07D037
:1031F8007B689B8F43F040039AB27B689A8706E00E
:103208007B689B8F23F040039AB27B689A87BB78D0
:10321800002B07D07B689B8F43F480639AB27B684E
:103228009A8706E07B689B8F23F480639AB27B6859
:103238009A877B687A7883F83A207B683A8A1A8773
:1032480000BF0C37BD4680BC704780B483B000AF68
:1032580078600B467B8013467B707B78002B03D10C
:103268007B687A881A8405E07B78012B02D17B6819
:103278007A885A8400BF0C37BD4680BC704780B43A
:1032880083B000AF78600B467B8013467B707B6809
:103298007A885A867B78642B03D87B687A7883F897
:1032A800312000BF0C37BD4680BC704780B582B066
:1032B80000AF78607B6803F156007B681E333822C4
:1032C800194631F0F9F800BF0837BD4680BD80B512
:1032D80082B000AF78607B6803F11E007B685633CC
:1032E8003822194631F0E8F800BF0837BD4680BDDE
:1032F80080B485B000AF78607B6893F82F301B09E5
:10330800FB73FB7B1A4692001344DBB21846143752
:10331800BD4680BC704780B485B000AF78607B68DC
:1033280093F82F3003F00F03FB81FB8901339BB225
:103338001A46920013449B009BB218461437BD46A8
:1033480080BC704780B584B000AFF860B9601346A0
:10335800FB71FB79002B0BD1BB689B891946BB68B5
:10336800DB891A46BB681B8AF86817F081FA19E0EE
:10337800FB79022B0BD1BB681B8B1946BB685B8B97
:103388001A46BB689B8BF86817F072FA0AE0BB68AC
:103398005B8A1946BB689B8A1A46BB68DB8AF86851
:1033A80017F066FAF8681037BD4680BD80B487B05C
:1033B80000AFF860B9601346FB71FB79FB75FB7DC4
:1033C800022B3CD8FA7DBB681888F96813469B0025
:1033D80013445B000B4402461A80FA7DBB68588888
:1033E800F96813469B0013445B000B440233024602
:1033F8001A80FA7DBB689888F96813469B001344C5
:103408005B000B44043302461A80FA7DBB68D888F7
:10341800F96813469B0013445B000B4406330246CD
:103428001A80FA7DBB6893F90C00F96813469B0073
:1034380013445B000B44083302461A7000E000BFD7
:103448001C37BD4680BC704780B485B000AF78603B
:103458000B46FB70FB78FB73FB7B022B01D9002327
:10346800FB73FA7B796813469B0013445B000B449B
:10347800083393F9003018461437BD4680BC7047AE
:1034880080B485B000AF78600B46FB701346BB7004
:10349800FB78032B01D900230AE0BB78FB73FA7B86
:1034A800F878796813469B001344034431F81330C5
:1034B80018461437BD4680BC7047000090B486B0EB
:1034C80000AFF860B96011461A460B46FB71134607
:1034D800BB71BB79BB750023FB7511E0FB7D5B00FD
:1034E800BA681344BA7DF87D1C88F96813469B00B6
:1034F80013440344224621F81320FB7D0133FB7556
:10350800FB7D032BEAD9BA7DF96813469B00134467
:103518005B000B4406331A880F4B1B889A420BD961
:10352800BA7D0D4B1888F96813469B0013445B005D
:103538000B44063302461A80BA7DF96813469B008D
:1035480013445B000B440833FA791A7000BF18372C
:10355800BD4690BC704700BFA462030880B483B026
:1035680000AF78600B46FB701346BB70BB78022B2C
:1035780006D1FB787A6810335B001344DB8805E0DA
:10358800FB787A680C335B001344DB8818460C37E9
:10359800BD4680BC704700002DE9F04188B002AFFD
:1035A800F860084611461A4603467B810B463B8164
:1035B8001346FB71FB793B750023FB823B7D022B95
:1035C80001D900230EE1B7F908103A7DF8681346CF
:1035D8009B0013445B000344083393F90030CB1A73
:1035E8003B613A7DF96813469B0013445B000B442A
:1035F8001B887A899A421FD27C893A7DF9681346DA
:103608009B0013445B000B441B881E46B7F9085007
:10361800FB791A460021F868FFF7A0FF03461A460F
:103628003B69134400932B4632460021204618F08C
:10363800E7FC0346FB82C9E03A7DF96813469B0024
:1036480013445B000B4406331B887A899A424BD893
:1036580001237B7544E03A7D787DF96813469B0029
:103668001344034431F813307A899A4235D27C895D
:103678003A7D7B7D581EF96813469B00134403442A
:1036880031F813301E463A7D787DF96813469B0061
:103698001344034431F8133098467B7D013BDBB279
:1036A800FA791946F868FFF759FF03461A463B6945
:1036B800D518FA797B7D1946F868FFF74FFF03465E
:1036C8001A463B69134400932B464246314620462E
:1036D80018F096FC0346FB8278E07B7D01337B750E
:1036E8007B7D032BB7D971E03A7DF96813469B00BF
:1036F80013445B000B44023319883A7DF86813467B
:103708009B0013445B00034406331B88994232D262
:103718007C893A7DF96813469B0013445B000B448F
:1037280002331B881E463A7DF96813469B001344F2
:103738005B000B4406331B889846FB791A46012127
:10374800F868FFF70BFF03461A463B69D518FB7963
:103758001A460321F868FFF701FF03461A463B693A
:10376800134400932B4642463146204618F01EFC6F
:103778000346FB822AE07C893A7DF96813469B0060
:1037880013445B000B4402331B881E46184B1B88EE
:103798009846FB791A460121F868FFF7DFFE0346D1
:1037A8001A463B69D518FB791A460321F868FFF7D2
:1037B800D5FE03461A463B69134400932B464246FE
:1037C8003146204618F0F2FB0346FB82B7F9163063
:1037D800B7F9081040F2E732184618F073FC0346B0
:1037E800FB82FB8A18461837BD46BDE8F08100BF4A
:1037F800A462030890B486B000AFF860B9601346BD
:10380800FB71FB79BB750023FB7510E0BA7DFC7D6D
:10381800FB7D5B00B9681944F86813469B001344A4
:10382800234430F813300B80FB7D0133FB75FB7D9F
:10383800032BEBD900BF00BF1837BD4690BC7047BB
:1038480090B484B000AF78600B46FB70FB78BB7314
:103858000023FB7312E0FB7BBA7BF87B7968143397
:103868005B000B44DC88796813469B0013440344CF
:10387800224621F81320FB7B0133FB73FB7B032BD0
:10388800E9D9094B1B78BA7B58B2796813469B0073
:1038980013445B000B44083302461A7000BF10370C
:1038A800BD4690BC704700BFB262030880B485B0C3
:1038B80000AF786039600023FB73FB7B5A1CFA73F6
:1038C8007A6814335B001344DA883B681A80FB7B00
:1038D8005A1CFA737A6814335B001344DA883B681D
:1038E8005A80FB7B5A1CFA737A6814335B001344C2
:1038F800DA883B689A80FB7B7A6814335B00134450
:10390800DA883B68DA8000BF1437BD4680BC704750
:1039180080B584B000AF7860396038680CF00AFE72
:103928000346FB73FB7B052B0AD0052B0EDC022B11
:1039380002DC002B08DA09E0033B012B06D801E082
:10394800022305E0012303E0002301E000BF032375
:1039580018461037BD4680BD80B483B000AF78608C
:1039680039603B681A883B685B889A4209D23B6891
:103978005B881A463B681B88D31A7A68D28E9342B2
:1039880001DA002324E03B685A883B689B889A4206
:1039980009D23B689B881A463B685B88D31A7A68C9
:1039A800D28E934201DA002312E03B689A883B6882
:1039B800DB889A4209D23B68DB881A463B689B88B9
:1039C800D31A7A68D28E934201DA002300E00123E9
:1039D80018460C37BD4680BC704780B483B000AF32
:1039E80078600B46FB707B6808221A707B6800229F
:1039F8005A607B68FA781A707B6800225A607B6884
:103A080018460C37BD4680BC704780B483B000AF01
:103A180078600B46FB707B68FA781A707B68002226
:103A28005A6000BF0C37BD4680BC704780B483B075
:103A380000AF786039607B681B78DBB21A463B6858
:103A480002FB03F31A467B685A6000BF0C37BD4679
:103A580080BC704780B483B000AF78600B46FB70C1
:103A68007B68002283F842207B68002283F840208C
:103A78007B68FA7883F841207B6818460C37BD4686
:103A880080BC704780B582B000AF78600B46FB7091
:103A98007B68FA7811461846FFF79FFF7B6800227B
:103AA8001A727B6800225A727B684FF4C8725A8176
:103AB8007B684FF4FA729A817B6818460837BD46CE
:103AC80080BD80B483B000AF78607B6814221A6030
:103AD8007B6800229A807B680022DA807B6800225B
:103AE8009A607B680A22DA607B680A221A617B681E
:103AF80000225A617B680A229A617B680522DA6192
:103B08007B680B221A847B68012283F822207B6859
:103B180018460C37BD4680BC7047000080B582B09F
:103B280000AF78607B68234A127811461846FFF781
:103B380091FF7B6844331F4A127811461846FFF7F5
:103B480089FF7B6888331B4A127811461846FFF7AD
:103B580081FF7B680022A3F8CC207B680022A3F8B1
:103B6800CE207B680022A3F8D0207B680022A3F82F
:103B7800D2207B68002283F8D4207B680022C3F817
:103B8800D8207B68002283F8DC207B68002283F839
:103B9800DD207B680022A3F8DE207B680022A3F8E2
:103BA800E0207B680022A3F8E2207B6818460837EB
:103BB800BD4680BDA662030880B582B000AF7860BC
:103BC8007B6804331846FFF77CFF7B682833184668
:103BD800FFF7A4FF0E4A7B681A607B6803F58673BB
:103BE80008211846FFF74EFF7B6803F58E730821FE
:103BF8001846FFF747FF7B6803F5967308211846B8
:103C0800FFF740FF7B6818460837BD4680BD00BFF8
:103C18007055030880B483B000AF7860044A7B68AD
:103C28001A607B6818460C37BD4680BC704700BFD9
:103C38007055030880B582B000AF78607868FFF7E8
:103C4800E9FF4FF49E7178682FF044FC7B681846B2
:103C58000837BD4680BD80B582B000AF78600B469E
:103C68007B807B6803F586737A881146184617F0BF
:103C78002FFB00BF0837BD4680BD80B582B000AFBE
:103C880078600B46FB707B6803F58E72FB78002B1F
:103C980001D0642300E000231946104617F018FBF2
:103CA80000BF0837BD4680BD80B582B000AF7860E0
:103CB8000B46FB707B6803F59672FB78002B01D0EE
:103CC800642300E000231946104617F001FB00BFEB
:103CD8000837BD4680BD80B582B000AF78607B688C
:103CE80000221A607B6800229A807B680633184697
:103CF800FDF762FB7B6818460837BD4680BD0000AB
:103D080080B582B000AF78607B681846FFF754FF33
:103D1800474A7B681A607B680022A3F83C217B68CD
:103D28000022A3F83E217B680022A3F840217B688B
:103D38000022A3F842217B68042283F844217B688F
:103D4800002283F845217B680022A3F846217B687E
:103D5800002283F848217B68002283F849217B6888
:103D680003F5A67308211846FFF737FE7B6803F5AD
:103D7800AA7308211846FFF730FE7B6803F5AE7377
:103D880008211846FFF729FE7B6803F5B27308215E
:103D98001846FFF722FE7B6803F5B673082118461C
:103DA800FFF71BFE7B68002283F874217B680322DF
:103DB80083F875217B680022A3F876217B684FF48D
:103DC8007A72A3F878217B68142283F87A217B68B9
:103DD8006422A3F87C217B68082283F87E217B6813
:103DE8004FF4FA72A3F880217B684FF47A72A3F833
:103DF80082217B68032283F884217B680E2283F862
:103E080085217B68142283F886217B68052283F844
:103E180087217B68022283F888217B6844F6206228
:103E2800C3F88C217B6818460837BD4680BD00BFA3
:103E3800A45F030880B483B000AF78600B46FB70C2
:103E4800FA787B68114683F849117B6883F8482122
:103E580000BF0C37BD4680BC704780B483B000AF4C
:103E680078607B6893F8753118460C37BD4680BC7E
:103E78007047000080B582B000AF78607B68184654
:103E8800FFF79AFE5B4A7B681A607B68002283F81A
:103E98003C217B68002283F83D217B68002283F85F
:103EA8003E217B68012283F83F217B68002283F84A
:103EB80040217B680022A3F842217B680022A3F8F6
:103EC80044217B680022A3F846217B680022C3F8BE
:103ED80048217B680022A3F84C217B680022C3F8A4
:103EE80050217B686422A3F854217B684FF47A72CE
:103EF800A3F856217B6803F5AC7308211846FFF731
:103F08006CFD7B6803F5B07308211846FFF765FD63
:103F18007B6803F5B47308211846FFF75EFD7B68DC
:103F280003F5B87308211846FFF757FD7B6803F5BA
:103F3800BC7308211846FFF750FD7B6803F5C07372
:103F480008211846FFF749FD7B68002283F888217D
:103F58007B680022A3F88A217B68002283F88C21E1
:103F68007B68322283F88D217B68502283F88E216A
:103F78007B684FF4C862A3F890217B683222A3F8CB
:103F880092217B681C4AC3F894217B684EF6602214
:103F9800C3F898217B684FF4FA72A3F89C217B68D8
:103FA8004FF47A72A3F89E217B680D2283F8A02132
:103FB8007B681E2283F8A1217B683C2283F8A2211A
:103FC8007B68072283F8A3217B680A2283F8A4214F
:103FD8007B68102283F8A5217B680122C3F8A821F9
:103FE8007B684EF66022C3F8AC217B681846083718
:103FF800BD4680BD605F0308407E050080B483B085
:1040080000AF78607B6800221A607B6800221A6023
:104018007B6818460C37BD4680BC704780B483B0B7
:1040280000AF78607B6800221A607B6818460C37FE
:10403800BD4680BC704780B582B000AF78607B68B1
:1040480018462DF0BDFA7B6818460837BD4680BD76
:1040580080B582B000AF78607B6804331846FFF7FC
:10406800EAFF044A7B681A607B6818460837BD4631
:1040780080BD00BF4855030880B483B000AF7860A6
:10408800044A7B681A607B6818460C37BD4680BCBA
:10409800704700BF4855030880B582B000AF78600C
:1040A8007868FFF7E9FF502178682FF013FA7B68EA
:1040B80018460837BD4680BD80B483B000AF78602D
:1040C80000BF0C37BD4680BC704780B582B000AFDA
:1040D80078602CF04BFC00BF0837BD4680BD80B52A
:1040E80082B000AF78602CF051FC00BF0837BD46A5
:1040F80080BD80B582B000AF78600B46FB70FB785E
:1041080018462CF053FC00BF0837BD4680BD80B56B
:1041180082B000AF78600B46FB70FB7818462CF035
:104128005DFC00BF0837BD4680BD80B582B000AFDA
:1041380078600B46FB70FB7818462CF067FC00BFD4
:104148000837BD4680BD000080B582B000AF7860FA
:104158007B681846FFF77CFF034A7B681A607B6818
:1041680018460837BD4680BD2055030880B582B083
:1041780000AF7860054A7B681A607B681846FFF7CD
:104188007BFF7B6818460837BD4680BD205503086D
:1041980080B582B000AF78607868FFF7E7FF5021FC
:1041A80078682FF097F97B6818460837BD4680BDB8
:1041B80080B582B000AF78602AF042FE00BF0837B1
:1041C800BD4680BD80B483B000AF78607B680022B4
:1041D8001A807B6800225A607B6800229A607B689C
:1041E80000229A817B6800229A737B6818460C37F4
:1041F800BD4680BC704780B582B000AF78607B68F0
:10420800043318462FF03DFA7B6818460837BD4638
:1042180080BD000090B583B000AF78607B68002255
:104228001A707B681C1DC54B2360231D18462FF090
:10423800FBF91C34C24B2360231D18462FF0F4F9F8
:104248001C34C04B2360231D18462FF0EDF91C3495
:10425800BD4B2360231D18462FF0E6F91C34BB4BD9
:104268002360231D18462FF0DFF91C34B84B236058
:10427800231D18462FF0D8F91C34B64B2360231D94
:1042880018462FF0D1F91C34B34B2360231D184670
:104298002FF0CAF91C34B14B2360231D18462FF0A8
:1042A800C3F91C34AE4B2360231D18462FF0BCF90C
:1042B8001C34AC4B2360231D18462FF0B5F91C3471
:1042C800A94B2360231D18462FF0AEF91C34A74BC9
:1042D8002360231D18462FF0A7F91C34A44B236034
:1042E800231D18462FF0A0F91C34A24B2360231D70
:1042F80018462FF099F91C349F4B2360231D18464C
:104308002FF092F91C349D4B2360231D18462FF083
:104318008BF91C349A4B2360231D18462FF084F91F
:104328001C34984B2360231D18462FF07DF91C344C
:10433800954B2360231D18462FF076F91C34934BB8
:104348002360231D18462FF06FF91C34904B23600F
:10435800231D18462FF068F91C348E4B2360231D4B
:1043680018462FF061F91C348B4B2360231D184627
:104378002FF05AF91C34894B2360231D18462FF05F
:1043880053F91C34864B2360231D18462FF04CF933
:104398001C34844B2360231D18462FF045F91C3428
:1043A800814B2360231D18462FF03EF91C347F4BA8
:1043B8002360231D18462FF037F91C347C4B2360EB
:1043C800231D18462FF030F91C347A4B2360231D27
:1043D80018462FF029F91C34774B2360231D184603
:1043E8002FF022F91C34754B2360231D18462FF03B
:1043F8001BF91C34684B2360231D18462FF014F951
:104408001C346F4B2360231D18462FF00DF91C3404
:104418006C4B2360231D18462FF006F91C346A4B99
:104428002360231D18462FF0FFF81C345F4B2360D0
:10443800231D18462FF0F8F81C345D4B2360231D0C
:1044480018462FF0F1F81C34534B2360231D1846EF
:104458002FF0EAF81C345A4B2360231D18462FF01E
:10446800E3F81C34574B2360231D18462FF0DCF863
:104478001C34384B2360231D18462FF0D5F81C3404
:10448800524B2360231D18462FF0CEF81C34494B9D
:104498002360231D18462FF0C7F81C34444B2360B3
:1044A800231D18462FF0C0F81C34494B2360231DE8
:1044B80018462FF0B9F81C34374B2360231D1846D3
:1044C8002FF0B2F81C34434B2360231D18462FF0FD
:1044D800ABF81C343B4B2360231D18462FF0A4F87F
:1044E8001C343D4B2360231D18462FF09DF81C34C7
:1044F8003A4B2360231D18462FF096F81C34384B8E
:104508002360231D18462FF08FF81C34354B236089
:10451800231D18462FF088F81C34114B2360231DE7
:1045280018462FF081F81C342F4B2360231D1846A2
:104538002FF07AF81C342D4B236059E0C44B030844
:10454800D04B0308DC4B0308EC4B0308FC4B030877
:10455800084C0308144C0308244C0308344C030883
:104568003C4C0308444C0308504C0308584C0308BF
:10457800604C0308704C0308804C03088C4C0308FB
:10458800984C0308A04C0308AC4C0308B84C03082B
:10459800C84C0308D84C0308E44C0308EC4C030847
:1045A800F44C0308044D0308104D03081C4D030880
:1045B800284D0308384D0308484D0308544D030897
:1045C800604D0308704D0308804D0308904D0308A3
:1045D8009C4D0308A84D0308B84D0308C44D0308B3
:1045E800D04D0308D84D0308E04D0308EC4D0308EF
:1045F800231D18462FF018F81C34A64B2360231DE2
:1046080018462FF011F81C34A34B2360231D1846BD
:104618002FF00AF81C34A14B2360231D18462FF0F5
:1046280003F81C349E4B2360231D18462EF0FCFF14
:104638001C349C4B2360231D18462EF0F5FF1C34B8
:10464800994B2360231D18462EF0EEFF1C34974B20
:104658002360231D18462EF0E7FF1C34944B23607B
:10466800231D18462EF0E0FF1C34924B2360231DB7
:1046780018462EF0D9FF1C348F4B2360231D184693
:104688002EF0D2FF1C348D4B2360231D18462EF0CC
:10469800CBFF1C348A4B2360231D18462EF0C4FF21
:1046A8001C34884B2360231D18462EF0BDFF1C3494
:1046B800854B2360231D18462EF0B6FF1C34834B10
:1046C8002360231D18462EF0AFFF1C34804B236057
:1046D800231D18462EF0A8FF1C347E4B2360231D93
:1046E80018462EF0A1FF1C347B4B2360231D18466F
:1046F8002EF09AFF1C34794B2360231D18462EF0A8
:1047080093FF1C34764B2360231D18462EF08CFF34
:104718001C34744B2360231D18462EF085FF1C346F
:10472800714B2360231D18462EF07EFF1C346F4BFF
:104738002360231D18462EF077FF1C346C4B236032
:10474800231D18462EF070FF1C346A4B2360231D6E
:1047580018462EF069FF1C34674B2360231D18464A
:104768002EF062FF1C34654B2360231D18462EF083
:104778005BFF1C34624B2360231D18462EF054FF48
:104788001C34604B2360231D18462EF04DFF1C344B
:104798005D4B2360231D18462EF046FF1C345B4BEF
:1047A8002360231D18462EF03FFF1C34584B23600E
:1047B800231D18462EF038FF1C34564B2360231D4A
:1047C80018462EF031FF1C34534B2360231D184626
:1047D8002EF02AFF1C34514B2360231D18462EF05F
:1047E80023FF1C344E4B2360231D18462EF01CFF5C
:1047F8001C344C4B2360231D18462EF015FF1C3427
:10480800494B2360231D18462EF00EFF1C34474BDE
:104818002360231D18462EF007FF1C34444B2360E9
:10482800231D18462EF000FF1C34424B2360231D25
:1048380018462EF0F9FE1C343F4B2360231D184602
:104848002EF0F2FE1C343D4B2360231D18462EF03B
:10485800EBFE1C343A4B2360231D18462EF0E4FE71
:1048680004F11C03374A1A60043318462EF0DCFEA4
:104878007B68354A03F62C3392E80300186004334A
:10488800198002330A0C1A707B6818460C37BD462B
:1048980090BD00BFF44D0308FC4D0308704D03089C
:1048A800044E0308144E0308244E0308304E030830
:1048B8003C4C03083C4E0308404E0308444E030892
:1048C8004C4E0308544E03085C4E0308644E03081C
:1048D8006C4E0308744E0308784E03087C4E030898
:1048E800804E0308844E03088C4E0308944E030838
:1048F800E04D03089C4E0308A84E0308BC4E03086D
:10490800D04E0308E44E0308FC4E0308084F030882
:10491800184F0308284F0308404F0308584F03084F
:10492800604F03086C4F0308784F0308804F030853
:10493800844F0308884F0308944F0308984F0308CF
:104948009C4F0308A44F0308B44F030880B483B0F6
:1049580000AF78607B6800221A807B6818460C37A5
:10496800BD4680BC704780B483B000AF78600B460A
:10497800FB70FB789AB27B681A8000BF0C37BD4683
:1049880080BC704790B583B000AF78607B68043313
:10499800002B0CD07B68043303F628347B6804337F
:1049A8009C4204D01C3C2046FFF725FCF6E77B68B8
:1049B80018460C37BD4690BD80B582B000AF786010
:1049C8007B681846FFF7C0FB7B6850331846FFF733
:1049D800BDFF7B6854331846FFF7F4FB7B686433EC
:1049E8001846FFF717FC4A4A7B681A607B68494AF1
:1049F800C3F8982B7B680022A3F89C2B7B684FF6A2
:104A0800FF72A3F89E2B7B684FF4FC62A3F8A02BDF
:104A18007B684FF47842A3F8A22B7B68FF22A3F8A7
:104A2800A42B7B684FF6E072A3F8A62B7B684CF2A8
:104A38001862A3F8A82B7B68002283F8AA2B7B684E
:104A480003F6AC331846FFF7D9FA7B6803F53B63E6
:104A58001846FFF7D3FA7B6803F6B4331846FFF716
:104A6800CDFA7B6803F6B8331846FFF7C7FA7B68B8
:104A780003F6BC331846FFF7C1FA7B6803F53C63BD
:104A88001846FFF7CBFA7B68FF2283F8C42B7B68B4
:104A98009622A3F8C62B7B680022A3F8C82B7B6854
:104AA8000022A3F8CA2B7B680022A3F8CC2B7B68D2
:104AB8000022A3F8CE2B7B68C822A3F8D02B7B68F2
:104AC8006E22A3F8D22B7B685A22A3F8D42B7B68DA
:104AD8003C22A3F8D62B7B685A22A3F8D82B7B68F4
:104AE8002022A3F8DA2B7B681922A3F8DC2B7B6839
:104AF800094AC3F8E02B7B68064AC3F8E42B7B68B5
:104B0800044AC3F8E82B7B6818460837BD4680BDC1
:104B1800F854030898670308CC5D030880B582B091
:104B280000AF78601A4A7B681A607B6803F53C63BB
:104B380018462CF0CAFA7B6803F6BC3318462AF0EC
:104B480050FB7B6803F6B83318462AF04AFB7B68AB
:104B580003F6B43318462AF044FB7B6803F53B633D
:104B680018462AF03EFB7B6803F6AC3318462AF059
:104B780038FB7B6864331846FFF704FF7B681846E8
:104B8800FFF7F4FA7B6818460837BD4680BD00BFBA
:104B9800F854030880B582B000AF78607868FFF7F2
:104BA800BDFF40F6EC3178682EF094FC7B6818461F
:104BB8000837BD4680BD000080B483B000AF786080
:104BC8007B6800221A707B6800225A707B6803F5A4
:104BD8008053002283F82C207B6803F580534FF420
:104BE8008052DA857B6803F580531A46124B1363AB
:104BF8007B6803F580531A46104B53637B6803F5B3
:104C080080531A460E4B93637B6803F580531A460C
:104C18000C4BD3637B6803F580531A460A4B136425
:104C28007B6803F580531A46084B53647B68184623
:104C38000C37BD4680BC7047BC4F0308C84F0308FB
:104C4800D44F0308E04F0308EC4F0308F44F030860
:104C5800B0B483B000AF78607B6801221A707B68BB
:104C680000225A607B68134A083392E8030083E8FD
:104C780003007B68104A03F1100413460FCB84E845
:104C88000F007B680D4A203392E8030083E8030095
:104C98007B680B4A03F1280415460FCD0FC495E82D
:104CA800030084E803007B6818460C37BD46B0BC97
:104CB800704700BF045003080C5003081C50030839
:104CC8002450030880B582B000AF78607B68063353
:104CD8001846FCF771FB7B680A331846FCF76CFB37
:104CE8007B6818460837BD4680BD000080B582B095
:104CF80000AF78607B681846FEF7EDFF7B681E33CF
:104D08001846FFF7DFFF7B6856331846FFF7DAFFD0
:104D18007B68074A8E33106818607B68054A9233AF
:104D2800106818607B6818460837BD4680BD00BF0C
:104D38003C5003084050030880B483B000AF78604B
:104D48007B6893F83E3018460C37BD4680BC7047E8
:104D580080B483B000AF78607B68104903F11E020D
:104D68000B4603CB106051607B680D4903F12602A6
:104D78000B4603CB106051607B680A4903F12E0291
:104D88000B4603CB106051607B686422DA867B682F
:104D980018460C37BD4680BC704700BF4450030816
:104DA8004C5003085450030880B582B000AF7860B7
:104DB8007B681846FFF700FF7B6803F582530833CA
:104DC8001846FFF793FF7B6803F586531E33184692
:104DD800FFF7BEFF7B6803F5885318331846FFF7C3
:104DE80037FF7B6803F58A5318331846FEF773FFBD
:104DF8007B6818460837BD4680BD80B483B000AFD5
:104E080078607B68B3F5007F05D24FF400727B6849
:104E1800B2FBF3F300E0012318460C37BD4680BC13
:104E28007047000080B483B000AF7860044A7B68A4
:104E38001A607B6818460C37BD4680BC704700BFB7
:104E4800C454030880B483B000AF7860044A7B6818
:104E58001A607B6818460C37BD4680BC704700BF97
:104E6800C454030880B582B000AF78607868FFF753
:104E7800E9FF042178682EF02DFB7B681846083777
:104E8800BD4680BD80B582B000AF78607B681846AB
:104E980001F016FC7B6818460837BD4680BD000047
:104EA80080B582B000AF78607B681846FFF7BAFF1C
:104EB8000B4A7B681A607B68043318462EF0B4FBF3
:104EC8007B681C33184601F0E7FB7B6844331846BF
:104ED80001F0E2FB7B6818460837BD4680BD00BF7D
:104EE8006860030880B582B000AF78600D4A7B68BF
:104EF8001A607B6844331846FFF7C4FF7B681C338D
:104F08001846FFF7BFFF7B68043318462EF0B9FB3D
:104F18007B681846FFF796FF7B6818460837BD463A
:104F280080BD00BF6860030880B582B000AF7860BC
:104F38007868FFF7D7FF6C2178682EF0CBFA7B688A
:104F480018460837BD4680BD80B582B000AF78608E
:104F58007B6818462EF068FB7B68183318462EF0DD
:104F680063FB7B68303318462EF05EFB7B6818467F
:104F78000837BD4680BD80B582B000AF78607B68D9
:104F8800303318462EF07DFB7B68183318462EF018
:104F980078FB7B6818462EF074FB7B681846083748
:104FA800BD4680BD80B582B000AF7860786801F0FA
:104FB800BCFB7B6818460837BD4680BD80B582B00B
:104FC80000AF78607B68184601F09FFB7B68184645
:104FD8000837BD4680BD80B582B000AF78607B6879
:104FE8001846FFF7EBFF7B6818460837BD4680BDBB
:104FF80080B582B000AF78607B681846FFF750FF35
:10500800084A7B681A607B686C331846FFF79CFF78
:105018007B68B4331846FFF7DEFF7B68184608370D
:10502800BD4680BD3460030880B582B000AF7860AB
:105038007B681846FFF734FF054A7B681A607B686F
:105048000022DA667B6818460837BD4680BD00BF77
:105058000060030880B582B000AF78607B6803F514
:1050680001531C331846FFF7C3FF7B6803F504534D
:105078001C331846FFF7D8FF7B6803F5005300225E
:1050880083F88C217B6803F500531A460023C2F885
:1050980090317B6803F500531A46044BC2F89431EB
:1050A8007B6818460837BD4680BD00BFB862030854
:1050B80080B582B000AF78607B6803F504531C3379
:1050C800184602F0F7FB7B6803F501531C331846BA
:1050D80002F0C4FB7B6818460837BD4680BD000057
:1050E80080B582B000AF78607B681846FFF75CFE39
:1050F8007B6803F58B5304331846FFF7ABFF7B68D7
:1051080003F54B533C331846FFF756FC7B6803F511
:105118007B5328331846FEF7F3FD7B6803F580437D
:1051280078332349184607F03AFD7B6803F5814335
:1051380038332049184607F032FD7B6803F5814370
:1051480078331846FEF796FE7B6803F585432833C7
:105158001846FFF77DFD7B6803F585436833082112
:105168001846FEF73AFC7B6803F580431E2283F855
:10517800F0227B6803F5804340F63C72A3F8F222E4
:105188007B6803F580430F2283F8F4227B6803F5DC
:1051980080430E2283F8F5227B6803F580431422AE
:1051A80083F8F6227B6818460837BD4680BD00BFE5
:1051B800085E0020E05E002080B582B000AF786015
:1051C8000B467B807B6803F5854368337A881146F4
:1051D800184615F01BFF00BF0837BD4680BD80B5D7
:1051E80082B000AF78600B46FB707B6803F57B5399
:1051F80028331846FEF731FE0346002B0CBF012367
:105208000023DBB2002B08D07B6803F57B532833DF
:10521800FA7811461846FEF730FD00BF0837BD463C
:1052280080BD80B582B000AF78600B46FB707B68AC
:1052380003F57B5328331846FEF70FFE0346012B70
:105248000CBF01230023DBB2002B08D07B6803F5D9
:105258007B532833FA7811461846FEF70EFD00BF37
:105268000837BD4680BD000080B483B000AF7860C9
:105278003960124A7B681A607B6800221A717B6861
:1052880000229A607B6800229A817B6800221A615A
:105298007B6800225A617B6800229A617B68002241
:1052A800DA617B6800221A627B683A689A607B68D8
:1052B80018460C37BD4680BC704700BFA854030889
:1052C80080B483B000AF786000BF0C37BD4680BCA7
:1052D800704780B483B000AF7860002318460C375D
:1052E800BD4680BC704780B483B000AF786000BF13
:1052F8000C37BD4680BC704780B483B000AF78607F
:10530800044A7B681A607B6818460C37BD4680BC27
:10531800704700BFA854030880B582B000AF78601A
:105328007868FFF7E9FF242178682EF0D3F87B68C6
:1053380018460837BD4680BD80B582B000AF78609A
:105348007B6802331846FCF737F87B68184608373D
:10535800BD4680BDB0B582B000AF786039607B686B
:1053680039681846FFF780FF0E4A7B681A607B6829
:10537800243309241D4604E02846FFF7DDFF013CDD
:105388000635002CF8DA7B6800221A667B68002252
:105398005A667B68002283F868207B6818460837BD
:1053A800BD46B0BD7862030880B483B000AF7860B2
:1053B80079684FF000024FF00003C1E900237968D3
:1053C8004FF000024FF00003C1E902237B68184642
:1053D8000C37BD4680BC704780B582B000AF78609E
:1053E80039607B6839681846FFF73EFF214A7B68B9
:1053F8001A607B6828331846FFF7D6FF7B680022BF
:1054080083F838207B680022A3F85A207B680022A2
:10541800A3F85C207B68002283F85E207B6800226A
:105428001A667B6800225A667B6800229A667B6847
:10543800002283F86C207B684FF41672A3F86E2064
:105448007B680D4A1A677B6840F6B8325A677B68F2
:1054580041F288329A677B684FF4E172A3F87C20A6
:105468007B684FF49672A3F87E207B68184608374D
:10547800BD4680BD5C620308C0D4010080B582B01F
:1054880000AF786039607B6839681846FFF7ECFE32
:10549800164A7B681A607B6828331846FFF784FF32
:1054A8007B68012283F838207B68002283F8462035
:1054B8007B68002283F847207B6800229A647B6817
:1054C8000022DA647B6840F2DC52A3F850207B6843
:1054D8000022A3F852207B684FF49672A3F8542058
:1054E8007B6818460837BD4680BD00BF4062030888
:1054F80080B582B000AF786039607B68396818463B
:10550800FFF7B2FE124A7B681A607B6800225A6273
:105518007B6800229A627B68002283F82C207B68D3
:10552800002283F82D207B68002283F82E207B68D8
:10553800002283F82F207B68002283F830207B68C4
:1055480003225A867B6818460837BD4680BD00BFCF
:105558002462030880B582B000AF786039607B6848
:1055680039681846FFF780FE284A7B681A607B680E
:1055780006229A847B6841F288329A627B6800220C
:1055880083F82C207B6800221A637B6800225A6308
:105598007B6800229A637B6800229A877B680022D6
:1055A800DA877B680022A3F840207B680022A3F8F2
:1055B80042207B680022A3F844207B68FA22A3F8E3
:1055C80046207B68002283F848207B680022DA6442
:1055D8007B680022A3F850207B68002283F85220C1
:1055E8007B680622A3F854207B684FF4FA629A6518
:1055F8007B684FF4C872A3F85C207B684FF4FA62AA
:105608001A667B6818460837BD4680BD08620308DD
:1056180080B582B000AF786039607B683968184619
:10562800FFF722FE0B4A7B681A607B68012283F829
:1056380024207B68662283F825207B682633002295
:105648001A605A609A60DA601A617B6818460837EF
:10565800BD4680BDEC61030880B584B000AFF8603A
:10566800B9607A60FB68B9681846FFF7FDFD054A1E
:10567800FB681A60FB687A685A62FB68184610373C
:10568800BD4680BDD061030880B584B000AFF86026
:10569800B9607A60FB68B9681846FFF7E5FD054A06
:1056A800FB681A60FB687A685A62FB68184610370C
:1056B800BD4680BDB461030880B582B000AF786094
:1056C80039607B6839681846FFF7CEFD104A7B6859
:1056D8001A607B6800229A847B680022DA847B68DF
:1056E800002283F828207B68002283F829207B6821
:1056F800012283F82A207B684FF448729A857B68D8
:10570800022283F82E207B6818460837BD4680BDE4
:105718009861030880B584B000AFF860B9607A601A
:10572800FB68B9681846FFF79FFD074AFB681A60CF
:10573800FB68022283F82820FB687A685A62FB68B3
:1057480018461037BD4680BD7C61030880B584B01B
:1057580000AFF860B9607A60FB68B9681846FFF76F
:1057680083FD0C4AFB681A60FB68022283F8282034
:10577800FB68012283F82920FB6800225A85FB6810
:1057880000229A85FB687A685A62FB6818461037C7
:10579800BD4680BD6061030880B582B000AF786007
:1057A80039607B6839681846FFF75EFD0E4A7B68EA
:1057B8001A607B68002283F824207B68002283F823
:1057C80025207B6800229A627B68002283F82C20BF
:1057D8007B68002283F82D207B686422DA857B6849
:1057E80018460837BD4680BDB455030880B582B059
:1057F80000AF7860054A7B681A607B681846FFF737
:105808007BFD7B6818460837BD4680BDB455030844
:1058180080B582B000AF78607868FFF7E7FF302185
:1058280078682DF057FE7B6818460837BD4680BD5E
:1058380080B582B000AF786039607B6839681846F7
:10584800FFF7AAFF244A7B681A607B68303305217A
:105858001846FEF7C2F87B6800229A637B6800222C
:10586800DA637B6800221A647B6800225A647B68CA
:1058780000229A647B680022DA647B6800221A6539
:105888007B680022A3F854207B68012283F8562005
:105898007B6800229A657B68012283F85C207B681C
:1058A8004FF4FA72A3F85E207B6840F2DC52A3F84A
:1058B80060207B684FF4FA725A667B6840F6B8320B
:1058C800A3F868207B6847F23052DA667B6818468E
:1058D8000837BD4680BD00BFD462030880B584B0D8
:1058E80000AFF860B9607A60FB68B9681846FFF7DE
:1058F800BBFC274AFB681A60FB6800225A62FB68F7
:10590800012283F82820FB68012283F82920FB68FC
:10591800002283F82A20FB68012283F82B20FB68E9
:10592800012283F82C20FB68002283F82D20FB68D5
:10593800002283F82E20FB68642283F82F20154B61
:105948001A78FB6883F83020FB68002283F831203E
:10595800FB68002283F83220FB68002283F833209A
:10596800FB68002283F83420FB68002283F8352086
:10597800FB68042283F83620FB68082283F8372066
:10598800FB687A685A62FB6818461037BD4680BDC6
:1059980028610308B262030880B584B000AFF860DC
:1059A800B9607A60FB68B9681846FFF75DFC1C4A65
:1059B800FB681A60FB68002283F82C20FB68002231
:1059C80083F82D20FB68002283F82E20FB68002234
:1059D8001A86FB68002283F83220FB68002283F8CD
:1059E8003320FB6800229A86FB68002283F8362061
:1059F800FB68002283F83720FB68022283F83820EE
:105A0800FB68062283F83920FB6878225A87FB68EE
:105A18007A685A62FB6818461037BD4680BD00BFD9
:105A2800F060030880B584B000AFF860B9607A60B0
:105A3800FB68B9681846FFF717FC124AFB681A603A
:105A4800FB68002283F82820FB6800225A85FB683F
:105A5800FF2283F82C20FB68002283F82D20FB68A6
:105A6800002283F82E20FB68012283F82F20FB6890
:105A780078221A86FB687A685A62FB6818461037DB
:105A8800BD4680BDD460030880B584B000AFF8601F
:105A9800B9607A60FB68B9681846FFF7E5FB164AF3
:105AA800FB681A60FB68002283F82820FB68002244
:105AB80083F82920FB68002283F82A20FB6800224B
:105AC8009A85FB68FF2283F82E20FB68002283F862
