:020000040800F2
:1000000000000120DDD80108A1B90108A9B9010843
:10001000B1B90108B9B90108C1B90108000000006F
:10002000000000000000000000000000C9B9010845
:10003000D5B9010800000000E1B90108EDB90108D7
:1000400025D9010825D9010825D9010825D9010894
:1000500025D9010825D9010825D9010825D9010884
:1000600025D9010825D9010825D90108F9B90108C0
:1000700025D901080DBA010825D9010825D901089B
:1000800025D9010825D9010825D9010825D9010854
:1000900021BA010825D9010825D9010825D9010867
:1000A00025D9010825D9010825D9010825D9010834
:1000B00035BA010849BA010825D9010825D901082E
:1000C00025D9010825D9010825D9010825D9010814
:1000D00025D9010825D9010825D9010825D9010804
:1000E00025D9010825D9010825D9010825D90108F4
:1000F00025D9010825D9010825D9010825D90108E4
:1001000025D9010825D9010825D9010825D90108D3
:1001100025D9010825D901085DBA010825D90108AA
:1001200025D9010871BA010825D9010885BA010845
:1001300000000000000000000000000000000000BF
:1001400000000000000000000000000000000000AF
:10015000000000000000000000000000000000009F
:10016000000000000000000000000000000000008F
:10017000000000000000000000000000000000007F
:10018000000000000000000000000000000000006F
:10019000000000000000000000000000000000005F
:1001A000000000000000000000000000000000004F
:1001B000000000000000000000000000000000003F
:1001C000000000000000000000000000000000002F
:1001D000000000000000000000000000000000001F
:0401E0005FF8E0F1F3
:1001E80010B5054C237833B9044B13B10448AFF369
:1001F80000800123237010BDF801002000000000DA
:100208006847030808B5034B1BB103490348AFF31C
:10021800008008BD00000000FC01002068470308BA
:10022800034613F8012B002AFBD1181A013870472E
:1002380081F0004102E000BF83F0004330B54FEA8F
:1002480041044FEA430594EA050F08BF90EA020FFC
:100258001FBF54EA000C55EA020C7FEA645C7FEA8F
:10026800655C00F0E2804FEA5454D4EB5555B8BFB2
:100278006D420CDD2C4480EA020281EA030382EA23
:10028800000083EA010180EA020281EA0303362DB5
:1002980088BF30BD11F0004F4FEA01314FF4801C88
:1002A8004CEA113102D0404261EB410113F0004F9A
:1002B8004FEA03334CEA133302D0524263EB430351
:1002C80094EA050F00F0A780A4F10104D5F1200EEF
:1002D8000DDB02FA0EFC22FA05F2801841F100014A
:1002E80003FA0EF2801843FA05F359410EE0A5F11E
:1002F80020050EF1200E012A03FA0EFC28BF4CF04F
:10030800020C43FA05F3C01851EBE37101F0004504
:1003180007D54FF0000EDCF1000C7EEB00006EEB11
:100328000101B1F5801F1BD3B1F5001F0CD349089B
:100338005FEA30004FEA3C0C04F101044FEA4452F2
:1003480012F5800F80F09A80BCF1004F08BF5FEA79
:10035800500C50F1000041EB045141EA050130BD59
:100368005FEA4C0C404141EB0101013C28BFB1F56B
:10037800801FE9D291F0000F04BF01460020B1FAB6
:1003880081F308BF2033A3F10B03B3F120020CDA89
:100398000C3208DD02F1140CC2F10C0201FA0CF067
:1003A80021FA02F10CE002F11402D8BFC2F1200CCC
:1003B80001FA02F120FA0CFCDCBF41EA0C01904082
:1003C800E41AA2BF01EB0451294330BD6FEA0404CB
:1003D8001F3C1CDA0C340EDC04F11404C4F12002B6
:1003E80020FA04F001FA02F340EA030021FA04F3C8
:1003F80045EA030130BDC4F10C04C4F1200220FA1F
:1004080002F001FA04F340EA0300294630BD21FA5C
:1004180004F0294630BD94F0000F83F4801306BF22
:1004280081F480110134013D4EE77FEA645C18BF16
:100438007FEA655C29D094EA050F08BF90EA020FAD
:1004480005D054EA000C04BF1946104630BD91EAA5
:10045800030F1EBF0021002030BD5FEA545C05D1A8
:100468004000494128BF41F0004130BD14F58004E7
:100478003CBF01F5801130BD01F0004545F0FE415B
:1004880041F470014FF0000030BD7FEA645C1ABF90
:10049800194610467FEA655C1CBF0B46024650EAC7
:1004A800013406BF52EA033591EA030F41F40021F3
:1004B80030BD00BF90F0000F04BF0021704730B579
:1004C8004FF4806404F132044FF000054FF000014E
:1004D80050E700BF90F0000F04BF0021704730B50F
:1004E8004FF4806404F1320410F0004548BF4042E4
:1004F8004FF000013EE700BF42004FEAE2014FEA39
:1005080031014FEA02701FBF12F07F4393F07F4F13
:1005180081F06051704732F07F4208BF704793F016
:100528007F4F04BF41F40021704730B54FF4607429
:1005380001F0004521F000411CE700BF50EA01022C
:1005480008BF704730B54FF000050AE050EA0102D5
:1005580008BF704730B511F0004502D5404261EB45
:1005680041014FF4806404F132045FEA915C3FF486
:10057800D8AE4FF003025FEADC0C18BF03325FEA23
:10058800DC0C18BF033202EBDC02C2F1200300FAD4
:1005980003FC20FA02F001FA03FE40EA0E0021FAF9
:1005A80002F11444BDE600BF70B54FF0FF0C4CF4E7
:1005B800E06C1CEA11541DBF1CEA135594EA0C0F99
:1005C80095EA0C0F00F0DEF82C4481EA030621EAD4
:1005D8004C5123EA4C5350EA013518BF52EA03350F
:1005E80041F4801143F4801338D0A0FB02CE4FF0C1
:1005F8000005E1FB02E506F00042E0FB03E54FF0F1
:100608000006E1FB03569CF0000F18BF4EF0010EE8
:10061800A4F1FF04B6F5007F64F5407404D25FEAE4
:100628004E0E6D4146EB060642EAC62141EA555197
:100638004FEAC52040EA5E504FEACE2EB4F1FD0CD9
:1006480088BFBCF5E06F1ED8BEF1004F08BF5FEA57
:10065800500E50F1000041EB045170BD06F0004609
:1006680046EA010140EA020081EA0301B4EB5C04B6
:10067800C2BFD4EB0C0541EA045170BD41F48011AE
:100688004FF0000E013C00F3AB8014F1360FDEBFD3
:10069800002001F0004170BDC4F10004203C35DAAF
:1006A8000C341BDC04F11404C4F1200500FA05F332
:1006B80020FA04F001FA05F240EA020001F00042D3
:1006C80021F0004110EBD37021FA04F642EB060149
:1006D8005EEA430E08BF20EAD37070BDC4F10C0473
:1006E800C4F1200500FA04F320FA05F001FA04F237
:1006F80040EA020001F0004110EBD37041F1000123
:100708005EEA430E08BF20EAD37070BDC4F120052D
:1007180000FA05F24EEA020E20FA04F301FA05F295
:1007280043EA020321FA04F001F0004121FA04F23D
:1007380020EA020000EBD3705EEA430E08BF20EA0D
:10074800D37070BD94F0000F0FD101F00046400047
:1007580041EB010111F4801F08BF013CF7D041EAC9
:10076800060195F0000F18BF704703F000465200CD
:1007780043EB030313F4801F08BF013DF7D043EA9E
:100788000603704794EA0C0F0CEA135518BF95EA54
:100798000C0F0CD050EA410618BF52EA4306D1D1DB
:1007A80081EA030101F000414FF0000070BD50EAFA
:1007B800410606BF1046194652EA430619D094EA84
:1007C8000C0F02D150EA013613D195EA0C0F05D16E
:1007D80052EA03361CBF104619460AD181EA0301C2
:1007E80001F0004141F0FE4141F470014FF000007A
:1007F80070BD41F0FE4141F4780170BD70B54FF015
:10080800FF0C4CF4E06C1CEA11541DBF1CEA135594
:1008180094EA0C0F95EA0C0F00F0A7F8A4EB050476
:1008280081EA030E52EA03354FEA013100F088806D
:100838004FEA03334FF0805545EA131343EA126336
:100848004FEA022245EA111545EA10654FEA0026EB
:100858000EF000419D4208BF964244F1FD0404F5A4
:10086800407402D25B084FEA3202B61A65EB030500
:100878005B084FEA32024FF480104FF4002CB6EBBD
:10088800020E75EB030E22BFB61A754640EA0C003D
:100898005B084FEA3202B6EB020E75EB030E22BF7D
:1008A800B61A754640EA5C005B084FEA3202B6EBBE
:1008B800020E75EB030E22BFB61A754640EA9C007D
:1008C8005B084FEA3202B6EB020E75EB030E22BF4D
:1008D800B61A754640EADC0055EA060E18D04FEA0B
:1008E800051545EA16754FEA06164FEAC30343EAAB
:1008F80052734FEAC2025FEA1C1CC0D111F4801F78
:100908000BD141EA00014FF000004FF0004CB6E770
:1009180011F4801F04BF01430020B4F1FD0C88BF0F
:10092800BCF5E06F3FF6AFAEB5EB030C04BFB6EB1A
:10093800020C5FEA500C50F1000041EB045170BD0D
:100948000EF0004E4EEA113114EB5C04C2BFD4EB3A
:100958000C0541EA045170BD41F480114FF0000EBE
:10096800013C90E645EA060E8DE60CEA135594EA3A
:100978000C0F08BF95EA0C0F3FF43BAF94EA0C0F3D
:100988000AD150EA01347FF434AF95EA0C0F7FF4B2
:1009980025AF104619462CE795EA0C0F06D152EA06
:1009A80003353FF4FDAE1046194622E750EA4106EA
:1009B80018BF52EA43067FF4C5AE50EA41047FF4FB
:1009C8000DAF52EA43057FF4EBAE12E74FF0FF3C60
:1009D80006E000BF4FF0010C02E000BF4FF0010C31
:1009E8004DF804CD4FEA410C7FEA6C5C4FEA430CAA
:1009F80018BF7FEA6C5C1BD001B050EA410C0CBFF9
:100A080052EA430C91EA030F02BF90EA020F00205A
:100A1800704710F1000F91EA030F58BF994208BFC1
:100A280090422CBFD8176FEAE37040F0010070477E
:100A38004FEA410C7FEA6C5C02D150EA013C07D1D5
:100A48004FEA430C7FEA6C5CD6D152EA033CD3D020
:100A58005DF8040B704700BF8446104662468C461A
:100A68001946634600E000BF01B5FFF7B7FF00284D
:100A780048BF10F1000F01BD4DF808EDFFF7F4FF76
:100A88000CBF012000205DF808FB00BF4DF808ED01
:100A9800FFF7EAFF34BF012000205DF808FB00BF24
:100AA8004DF808EDFFF7E0FF94BF012000205DF846
:100AB80008FB00BF4DF808EDFFF7CEFF94BF0120FB
:100AC80000205DF808FB00BF4DF808EDFFF7C4FFF4
:100AD80034BF012000205DF808FB00BF4FEA410C3D
:100AE8007FEA6C5C02D150EA013C0AD14FEA430C20
:100AF8007FEA6C5C02D152EA033C02D14FF000005D
:100B080070474FF0010070474FEA410212F500129A
:100B180015D211D56FF47873B3EB625212D94FEA3C
:100B2800C12343F0004343EA505311F0004F23FA26
:100B380002F018BF404270474FF00000704750EA7B
:100B4800013005D111F0004008BF6FF00040704738
:100B58004FF00000704700BF4A0011D212F5001292
:100B680011D20DD56FF47873B3EB62520ED44FEAFD
:100B7800C12343F0004343EA505323FA02F070477D
:100B88004FF00000704750EA013002D14FF0FF30BB
:100B980070474FF0000070474FEA4102B2F1E0435E
:100BA80024BFB3F5001CDCF1FE5C0DD901F0004C4C
:100BB8004FEAC0024CEA5070B2F1004F40EB83009C
:100BC80008BF20F00100704711F0804F21D113F1C8
:100BD8003872BCBF01F00040704741F480114FEA01
:100BE8005252C2F11802C2F1200C10FA0CF320FA8A
:100BF80002F018BF40F001004FEAC1234FEAD323A7
:100C080003FA0CFC40EA0C0023FA02F34FEA430310
:100C1800CCE77FEA625307D150EA01331EBF4FF099
:100C2800FE4040F44000704701F0004040F0FE40B4
:100C380040F40000704700BF80F0004002E000BFB1
:100C480081F0004142001FBF5FEA410392EA030FAF
:100C58007FEA226C7FEA236C6AD04FEA1262D2EBF9
:100C68001363C1BFD218414048404140B8BF5B42FE
:100C7800192B88BF704710F0004F40F4000020F097
:100C88007F4018BF404211F0004F41F4000121F0AD
:100C98007F4118BF494292EA030F3FD0A2F10102F7
:100CA80041FA03FC10EB0C00C3F1200301FA03F135
:100CB80000F0004302D5494260EB4000B0F5000F58
:100CC80013D3B0F1807F06D340084FEA310102F117
:100CD8000102FE2A51D2B1F1004F40EBC25008BFC9
:100CE80020F0010040EA03007047490040EB000093
:100CF800013A28BFB0F5000FEDD2B0FA80FCACF194
:100D0800080CB2EB0C0200FA0CF0AABF00EBC250C0
:100D180052421843BCBFD0401843704792F0000FAE
:100D280081F4000106BF80F400000132013BB5E701
:100D38004FEA41037FEA226C18BF7FEA236C21D077
:100D480092EA030F04D092F0000F08BF08467047DC
:100D580090EA010F1CBF0020704712F07F4F04D1AA
:100D6800400028BF40F00040704712F100723CBFBD
:100D780000F50000704700F0004343F0FE4040F4E7
:100D8800000070477FEA226216BF08467FEA2363A5
:100D98000146420206BF5FEA412390EA010F40F490
:100DA800800070474FF0000304E000BF10F00043DC
:100DB80048BF40425FEA000C08BF704743F09643C3
:100DC80001464FF000001CE050EA010208BF7047DE
:100DD8004FF000030AE000BF50EA010208BF704765
:100DE80011F0004302D5404261EB41015FEA010C7A
:100DF80002BF84460146002043F0B64308BFA3F172
:100E08008053A3F50003BCFA8CF2083AA3EBC25353
:100E180010DB01FA02FC634400FA02FCC2F1200272
:100E2800BCF1004F20FA02F243EB020008BF20F0A9
:100E38000100704702F1200201FA02FCC2F120020F
:100E480050EA4C0021FA02F243EB020008BF20EA04
:100E5800DC7070474FF0FF0C1CEAD0521EBF1CEA32
:100E6800D15392EA0C0F93EA0C0F6FD01A4480EA20
:100E7800010C400218BF5FEA41211ED04FF0006309
:100E880043EA501043EA5111A0FB01310CF0004035
:100E9800B1F5000F3EBF490041EAD3715B0040EA5B
:100EA800010062F17F02FD2A1DD8B3F1004F40EB2B
:100EB800C25008BF20F00100704790F0000F0CF0FE
:100EC800004C08BF49024CEA502040EA51207F3AC2
:100ED800C2BFD2F1FF0340EAC250704740F400009D
:100EE8004FF00003013A5DDC12F1190FDCBF00F08E
:100EF80000407047C2F10002410021FA02F1C2F13C
:100F0800200200FA02FC5FEA310040F1000053EAD7
:100F18004C0308BF20EADC70704792F0000F00F025
:100F2800004C02BF400010F4000F013AF9D040EA2B
:100F38000C0093F0000F01F0004C02BF490011F4BF
:100F4800000F013BF9D041EA0C018FE70CEAD153BD
:100F580092EA0C0F18BF93EA0C0F0AD030F0004C3D
:100F680018BF31F0004CD8D180EA010000F00040F1
:100F7800704790F0000F17BF90F0004F084691F0AF
:100F8800000F91F0004F14D092EA0C0F01D14202E9
:100F98000FD193EA0C0F03D14B0218BF084608D1B2
:100FA80080EA010000F0004040F0FE4040F40000FC
:100FB800704740F0FE4040F4400070474FF0FF0C8F
:100FC8001CEAD0521EBF1CEAD15392EA0C0F93EAD6
:100FD8000C0F69D0A2EB030280EA010C49024FEA28
:100FE800402037D04FF0805343EA111143EA1013E1
:100FF8000CF000408B4238BF5B0042F17D024FF499
:10100800000C8B4224BF5B1A40EA0C00B3EB510F73
:1010180024BFA3EB510340EA5C00B3EB910F24BF5C
:10102800A3EB910340EA9C00B3EBD10F24BFA3EBE1
:10103800D10340EADC001B0118BF5FEA1C1CE0D1A9
:10104800FD2A3FF650AF8B4240EBC25008BF20F05C
:10105800010070470CF0004C4CEA50207F32C2BFB0
:10106800D2F1FF0340EAC250704740F400004FF04D
:101078000003013A37E792F0000F00F0004C02BF7E
:10108800400010F4000F013AF9D040EA0C0093F048
:10109800000F01F0004C02BF490011F4000F013BA2
:1010A800F9D041EA0C0195E70CEAD15392EA0C0F0A
:1010B80008D142027FF47DAF93EA0C0F7FF470AF42
:1010C800084676E793EA0C0F04D14B023FF44CAF85
:1010D80008466EE730F0004C18BF31F0004CCAD11A
:1010E80030F000427FF45CAF31F000437FF43CAF56
:1010F8005FE700BF4FF0FF3C06E000BF4FF0010C78
:1011080002E000BF4FF0010C4DF804CD4FEA400259
:101118004FEA41037FEA226C18BF7FEA236C11D0A3
:1011280001B052EA530C18BF90EA010F58BFB2EB56
:10113800030088BFC81738BF6FEAE17018BF40F0D6
:10114800010070477FEA226C02D15FEA402C05D18A
:101158007FEA236CE4D15FEA412CE1D05DF8040B0F
:10116800704700BF844608466146FFE70FB5FFF7A2
:10117800C9FF002848BF10F1000F0FBD4DF808ED5A
:10118800FFF7F4FF0CBF012000205DF808FB00BF4B
:101198004DF808EDFFF7EAFF34BF012000205DF8A5
:1011A80008FB00BF4DF808EDFFF7E0FF94BF0120F2
:1011B80000205DF808FB00BF4DF808EDFFF7D2FFEF
:1011C80094BF012000205DF808FB00BF4DF808ED32
:1011D800FFF7C8FF34BF012000205DF808FB00BFFF
:1011E8004FEA40024FEA41037FEA226C02D15FEAEC
:1011F800402C08D17FEA236C02D15FEA412C02D14E
:101208004FF0000070474FF0010070474FEA40026E
:10121800B2F1FE4F0FD34FF09E03B3EB12620DD91C
:101228004FEA002343F0004310F0004F23FA02F086
:1012380018BF404270474FF00000704712F1610F2D
:1012480001D1420205D110F0004008BF6FF0004004
:1012580070474FF00000704780B582B000AF7860EB
:101268007B681B7883F00103DBB2002B06D17B6817
:1012780008331946786800F047F800E000BF0837DF
:10128800BD4680BD80B582B000AF78607B681B78B2
:1012980083F00103DBB2002B06D17B6810331946BB
:1012A800786800F031F800E000BF0837BD4680BD1F
:1012B80080B582B000AF78607B681B7883F001034B
:1012C800DBB2002B06D17B6820331946786800F022
:1012D8001BF800E000BF0837BD4680BD80B582B06E
:1012E80000AF78607B681B7883F00103DBB2002BCA
:1012F80006D17B6828331946786800F005F800E0C5
:1013080000BF0837BD4680BD80B582B000AF7860A9
:1013180039607B685B68002B0AD17B683A685A6041
:101328000021054821F04EFB044821F005F900E0B2
:1013380000BF0837BD4680BDE05C0020485E002045
:1013480080B584B000AF78607B685B68991C7A6868
:1013580051601B88FB817B685B68991C7A685160C7
:101368001B88BB81BB89002B0ED10021104821F0BE
:10137800E3FB104821F040F90D4B1B6800225A632B
:101388007B6800225A600FE0FB895A1E084B1B68D5
:10139800DA62FB895B089AB2054B1B685A63BB8902
:1013A8005A1E044B1B68DA621037BD4680BD00BF69
:1013B800E05C0020485E002080B483B000AF786015
:1013C8007B681A46002313607B6818460C37BD46B5
:1013D80080BC704780B483B000AF78607B68DB78EE
:1013E80043F04003DAB27B68DA7000BF0C37BD46C1
:1013F80080BC704780B483B000AF78607B68DB78CE
:1014080063F07F03DAB27B68DA7000BF0C37BD4641
:1014180080BC704780B483B000AF78607B68DB78AD
:1014280023F04003DAB27B68DA7000BF0C37BD46A0
:1014380080BC704780B483B000AF78607B68DB788D
:1014480003F07F03DAB27B68DA7000BF0C37BD4661
:1014580080BC704780B483B000AF78607B68DB786D
:1014680003F04003002B14BF01230023DBB218460E
:101478000C37BD4680BC704780B483B000AF78603D
:101488007B68DB785BB2DBB2DB09DBB218460C3772
:10149800BD4680BC704780B483B000AF78607B687D
:1014A8000022DA707B68DA787B689A707B689A78B1
:1014B8007B685A707B685A787B681A7000BF0C3753
:1014C800BD4680BC704780B483B000AF78607B684D
:1014D8009B8818460C37BD4680BC704780B483B0E3
:1014E80000AF78607B68DB8F03F00103002B14BF2B
:1014F80001230023DBB218460C37BD4680BC704779
:1015080080B483B000AF78607B68DB8F03F400732E
:10151800002B14BF01230023DBB218460C37BD464D
:1015280080BC704790B585B000AF78607B6818467E
:101538000BF0CDFC0346BB73BB7B002B40F0B480A3
:10154800786801F0EBF90023FB737B6803F58A5395
:1015580010331846FFF7B7FF0346002B14BF0123CB
:101568000023DBB2002B04D0786801F06DF9034644
:10157800FB737A687B6803F5835306331946104674
:101588000BF004FE03467B737B7B002B08D07B6843
:1015980003F5835306331946786800F0DFF822E034
:1015A8007B6803F582530833184601F015FB7B6806
:1015B80003F5835310337A6802F5805214461946AE
:1015C800786800F0D7FE034623677B6803F58353EA
:1015D80014337A6802F5805214461946786800F088
:1015E800C9FE034663677A687B6803F58253123342
:1015F800194610460BF0DBFE034683F00103DBB20D
:10160800002B06D07B6803F582530833184601F097
:101618004DFB7B6803F58A531033002118460FF001
:101628008AF803461946786800F062F97B6803F582
:10163800835310331946786800F05AF97B6803F52C
:10164800835314331946786800F052F97B6803F520
:1016580082530833184601F0A1FDFB7B002B10D004
:101668007B7B83F00103DBB2002B08D07A687B68B0
:1016780003F583530633194610460BF04BFE00233F
:101688004AE07B6803F58A5310331846FFF71BFFBF
:101698000346012B8CBF01230023DBB2002B01D0B2
:1016A800012339E0022337E07B6803F582530833CE
:1016B800184601F091FA7B6803F5825308331846FF
:1016C80001F0F4FA7B6803F58653163302211846B5
:1016D80002F02EF87B6803F58353103319467868B7
:1016E80000F006F97B6803F58353143319467868CC
:1016F80000F0FEF87B6803F582530833184601F0C2
:101708004DFDBB7B012B01D1032305E0BB7B022BE5
:1017180001D1042300E0002318461437BD4690BDCC
:1017280080B582B000AF78607B6803F58A531033C8
:101738001846FFF7C8FE0346002B14BF01230023F9
:10174800DBB2002B04D0786801F07EF8012300E0BA
:10175800002318460837BD4680BD000090B585B007
:1017680000AF786039603B685B88FB813B689B8889
:10177800BB813B68DB887B813B681B8C03F00103E2
:10178800002B14D1B7F90E3018461AF09DFA03460B
:10179800FB81B7F90C3018461AF096FA0346BB815C
:1017A800B7F90A3018461AF08FFA03467B81FB898D
:1017B800444A12881146444A128818461AF052FAC6
:1017C8000346FB81BB893F4A128811463E4A12886C
:1017D80018461AF047FA0346BB817B893B4A1288B0
:1017E80011463B4A128818461AF03CFA03467B8198
:1017F8003B681B8C03F00103002B14D1B7F90E30A2
:1018080018461AF047FA0346FB81B7F90C30184618
:101818001AF040FA0346BB81B7F90A3018461AF0A5
:1018280039FA03467B813B68FA895A803B68BA8952
:101838009A803B687A89DA803B689B7D1E2B02D9A7
:101848003B681E229A753B689B7E1E2B02D93B681B
:101858001E229A763B680A333C681946786800F07D
:1018680089FD03461A46A272C3F30722E272C3F344
:1018780007422273C3F3076363733B680E333C6804
:101888001946786800F076FD03461A46A273C3F33A
:101898000722E273C3F307422274C3F30763637436
:1018A8003B6893F82230FF220A2118461AF0DAF929
:1018B8000346DAB23B6883F8222000BF1437BD46DE
:1018C80090BD00BF385E03083C5E03083E5E030817
:1018D800405E030880B582B000AF78607B6808334B
:1018E8001846FFF769FD7B6818460837BD4680BD76
:1018F80080B588B000AF786039607B6803F58A539B
:101908001033396818460EF04AFF0346BB83B7F90F
:101918001C30002B01DA00237FE00123FB777B6872
:1019280003F58A531033BA8B114618460EF01DFF83
:101938000346FB767B6803F58653163339681846E9
:1019480001F05EFF0346BB76FB7EFF2B0AD17B6866
:1019580003F586531633BA7E1146184601F0E8FEA1
:1019680000235AE007F108031846FFF7B3FF786829
:10197800FA7E07F1080100230BF0BFFD0346002B98
:1019880014BF01230023DBB2002B0BD07B6803F5C7
:1019980086531633BA7E1146184601F0C9FE002355
:1019A800FB7739E007F1080308331846FFF764FDB1
:1019B800034683F00103DBB2002B09D07B6803F5F3
:1019C80086531633BA7E1146184601F0B1FE23E05D
:1019D8007B6803F58653163307F10802114618464B
:1019E80001F032FF034683F00103DBB2002B09D07C
:1019F8007B6803F586531633BA7E1146184601F004
:101A080097FE09E07B6803F586531633BA7E07F123
:101A18000801184601F042FCFB7F18462037BD46F6
:101A280080BD80B584B000AF786039607B6803F50D
:101A3800865316333968184601F0E2FE0346FB73F5
:101A480039687868FFF754FF0346002B17D0FB7BF3
:101A5800002B07D17B6803F580533A687033106810
:101A6800186009E0FB7B012B06D17B6803F58053E6
:101A78003A68743310681860786800F0B1F900BFEC
:101A88001037BD4680BD80B584B000AF78600B4686
:101A9800FB70FB781946786800F01CF8024607F1DD
:101AA8000803106818607B6803F58A53103307F140
:101AB8000802114618460EF072FE0346FB81B7F97C
:101AC8000E30002B01DA0023FB81FB891846103702
:101AD800BD4680BD80B582B000AF78600B46FB7014
:101AE800FB78022B09D17B6803F58A531033002158
:101AF80018460EF020FE03460BE0FB78002B04D1BD
:101B08007B6803F58353103303E07B6803F5835345
:101B1800143318460837BD4680BD80B586B000AF7F
:101B2800F860084611461A4603467B810B463B81FE
:101B38001346FB71FB6803F586501630FB79B7F93D
:101B48000820798901F0A0FC0346FB82FB6803F5B5
:101B5800825308331846FFF7C1FC034683F001039C
:101B6800DBB2002B06D0B7F9163018461AF092F8F7
:101B78000346FB82FB8A18461837BD4680BD000025
:101B88002DE9F0418EB002AFF860084611461A46BA
:101B980003467B810B463B811346FB71B7F908402E
:101BA800FB6803F586531633FA791146184601F097
:101BB800C3FB0346E31ABB61FB6803F58653163380
:101BC800FA790021184601F041FC03461A46BB6920
:101BD8009BB21344FB85FB6803F586531633FA79E9
:101BE8000321184601F032FC03461A46BB699BB232
:101BF8001344BB85FB6803F582530833F979012246
:101C0800184600F06FFD03467B85FB6803F5825399
:101C18000833F9790122184600F0AAFD03463B85EE
:101C280097F84830002B01D064237B85FB6803F5C7
:101C3800825308331846FFF751FC034683F001032B
:101C4800DBB2002B1BD0B7F92E3018461AF022F859
:101C58000346FB85B7F92C3018461AF01BF80346E3
:101C6800BB85B7F92A3018461AF014F803467B8565
:101C7800B7F9283018461AF00DF803463B857B89DA
:101C8800798D3A8D184619F0EDFF03467B810023C4
:101C9800FB84474B1B88BB847C89FD8DBE8DFB680C
:101CA80003F586531633FA790021184601F060FBD4
:101CB80003469846FB6803F586531633FA790321E1
:101CC800184601F055FB0346009343463246294621
:101CD800204619F03BFF03467B847A8CF98CBB8C39
:101CE8000B44D90F0B445B109A420CDDBA8CFB8C69
:101CF800D31A002B00DA03339B105B429AB27B8C19
:101D080013447B840AE0BA8CFB8CD31A002B00DACC
:101D180003339B109AB27B8C13447B84002387F88F
:101D280021303AE0FB79B7F90820798CF868FFF799
:101D3800F4FE0346FB82FA8A7B899A4201D17B8CA6
:101D480030E0FA8A7B899A4210D27B8CFB84FA8C29
:101D5800BB8C1344DA0F13445B10FB83FA8B7B8C28
:101D68009A4213D17B8C0133FB830FE07B8CBB84BD
:101D7800FA8CBB8C1344DA0F13445B10FB83FA8B89
:101D88007B8C9A4202D17B8C013BFB83FB8B7B844F
:101D980097F82130013387F8213097F82130132B39
:101DA800C0D97B8C18463037BD46BDE8F08100BFEE
:101DB800345E030880B586B000AFF860B96013469A
:101DC800FB71FB791946B868FFF784FE7861FB68F8
:101DD800796918460EF018FAF8681837BD4680BDBC
:101DE80080B582B000AF78607B6803F58253083312
:101DF800184600F033FE0346002B10D17A687B6842
:101E080003F583530633194610460BF083FA7B68B3
:101E180003F582530833184601F0C0F900E000BF0B
:101E28000837BD4680BD80B584B000AFF860B960A2
:101E38001346FB71FB79002B18D1BB681B689AB25B
:101E4800FB6803F58053A3F85420BB685B689AB21B
:101E5800FB6803F58053A3F85620BB689B689AB2C9
:101E6800FB6803F58053A3F8582033E0FB79022B75
:101E780018D1BB681B689AB2FB6803F58053A3F8B6
:101E88006020BB685B689AB2FB6803F58053A3F8CF
:101E98006220BB689B689AB2FB6803F58053A3F87D
:101EA800642017E0BB681B689AB2FB6803F580538F
:101EB800A3F85A20BB685B689AB2FB6803F58053A5
:101EC800A3F85C20BB689B689AB2FB6803F5805353
:101ED800A3F85E20FA68FB6803F5825312331946AB
:101EE80010460BF0C1FA00BF1037BD4680BD80B563
:101EF8008AB000AFF8607A601A460B46FB72134648
:101F0800BB7207F114031846FFF7E4FC7B681B88D3
:101F1800BB827B685B88FB827B689B883B837B6892
:101F2800DB887B8397F8303087F82030FB7A1946B6
:101F3800F868FFF7CFFD024607F11C031068186028
:101F4800FB6803F58653163307F114021146184649
:101F580001F07AFC0346002B24D0BA7A07F1140367
:101F68000833114618460EF007FAFB6807F114010A
:101F7800002218460BF065FB0346FB84B7F92630B0
:101F8800002B0FDBFB6803F58A531033FA8CD0B2B1
:101F980007F1140202F10801024618460EF096FBFA
:101FA800012306E007F1140308331846FFF742FA45
:101FB800002318462837BD4680BD80B584B000AFE1
:101FC80078600B46FB70FB7819467868FFF782FD4E
:101FD800F860F868FFF750FA034618461037BD4610
:101FE80080BD80B588B000AF78600B467B807B6889
:101FF80003F58A5310331846FFF765FA0346012B99
:1020080094BF01230023DBB2002B01D0002390E012
:102018000023FB7707F10C031846FFF75BFC7B688E
:1020280003F58A5310337A88114618460EF09DFB43
:102038000346BB83B7F91C30FF2B2CD17B6803F513
:102048008A5310337A88114618460EF074FB0246FC
:1020580007F108031068186007F1080318460EF026
:102068007FF8034683F00103DBB2002B3BD007F176
:1020780008031846FFF7AEF9BB687B617B6803F578
:102088008653163307F10C021146184601F086FBF9
:102098000123FB7727E07868BB8BDAB207F10C01E4
:1020A80001230BF02AFA0346002B0CBF012300235F
:1020B800DBB2002B17D007F10C0308331846FFF7E3
:1020C800C9F90346002B06D007F10C03083318465C
:1020D800FFF7A0F905E007F10C0308331846FFF7EE
:1020E80079F90123FB77FB7F83F00103DBB2002B37
:1020F80001D000231DE07B6807F10C01012218467E
:102108000BF09FFA0346BB83B7F91C30002B0FDB9B
:102118007B6803F58A531033BA8BD0B207F10C02EF
:1021280002F10801024618460EF0D0FA012300E039
:10213800002318462037BD4680BD90B589B000AF52
:10214800F8607A601A460B46FB721346BB72FB684E
:1021580003F58A5310331846FFF7B5F90346002BE9
:102168000CBF01230023DBB2002B17D00023FB7721
:102178000EE0FA7F13465B0013445B001A467B6847
:10218800134402331846FFF786F9FB7F0133FB77C8
:10219800FA7FBB7A9A42ECD30023E7E0FB7A9BB242
:1021A800013B9BB2BB830323FB762AE097F83030D0
:1021B80083F00103DBB2002B0FD1FB6803F58A53D0
:1021C8001033BA8B114618460EF0B5FA0346184676
:1021D800FFF740F90346002B01D0012300E000235C
:1021E800002B0AD0FB7E013BFB76FB7E002B0CBF4D
:1021F80001230023DBB2002B08D1BB8B013B9BB230
:10220800BB83B7F91C30002BD0DC00E000BF0023F3
:10221800BB76B7F91C30002B7DDC0123BB837AE049
:10222800FB6803F58A531033BA8B114618460EF033
:1022380082FA024607F114031068186097F83030E4
:10224800002B0CD007F114031846FFF703F90346D7
:1022580083F00103DBB2002B01D0012300E000234F
:10226800002B4FD197F83830032B11D0FB6803F5BA
:102278008653163307F114021146184601F0C0FAC6
:1022880003461A4697F83830934201D0012300E0FC
:102298000023002B38D197F8343083F00103DBB2E8
:1022A800002B0DD097F83830002B09D107F1140313
:1022B80018460EF083F80346002B01D1012300E0F5
:1022C8000023002B22D1BA7E13465B0013445B0027
:1022D8001A467B681344BA8B1A80BA7E13465B0091
:1022E80013445B001A467B681344023307F1140257
:1022F80010681860BB7E0133BB76BA7EBB7A9A42FF
:102308001CD204E000BF02E000BF00E000BFBB8BAE
:1023180001339BB2BB83B7F91C40FB6803F58A53B2
:1023280010331846FFF7CFF803469C42B4BF012389
:102338000023DBB2002B7FF473AF00E000BFBB7E4D
:102348007B760EE07A7E13465B0013445B001A46E8
:102358007B68134402331846FFF79DF87B7E0133F0
:102368007B767A7EBB7A9A42ECD3BB7E18462437BA
:10237800BD4690BD90B58BB000AF786039607B6882
:1023880003F58A531033396818460EF008FA0346E5
:10239800FB8338680EF012F803467B777B6803F5F9
:1023A8008A531033FA8B114618460EF0C4F90246C8
:1023B80007F1140310681860B7F91E30002B6BDAA8
:1023C8004FF6FF73FB840023BB842CE07B6803F586
:1023D8008A531033BA8C114618460EF0ACF90246EF
:1023E80007F110031068186007F1100318460DF084
:1023F800E5FF03461A467B7F93420CBF0123002367
:10240800DBB2002B0CD0BB8CFB8407F11003184601
:10241800FFF720F80346002B02D03B69BB6123E19C
:10242800BB8C0133BB847B6803F58A531033184691
:10243800FFF749F803461A46BB8C934234BF012381
:102448000023DBB2002BC1D17B6803F58A5310331C
:10245800FA8C114618460EF06EF9024607F114037D
:102468001068186007F1140318460DF079FE03464A
:10247800002B0ED0854B1C68844B1B681846FDF753
:10248800CFFE0346DBB2797F07F1140022460DF038
:10249800C7FD7B69BB61E7E0B7F91E30002B0DD1A2
:1024A8007B6803F58A531033002118460EF043F970
:1024B800024607F1180310681860D5E007F1140305
:1024C8001846FEF7C7FF0346002B02D07B69BB61A5
:1024D800CAE0FB8B013B7B8418E07B6803F58A53D9
:1024E80010337A8C114618460EF025F9024607F18A
:1024F8000C031068186007F10C031846FEF7AAFFD2
:102508000346002B06D17B8C013B7B847B8C002B04
:10251800E3D100E000BFFB8B01333B8418E07B680C
:1025280003F58A5310333A8C114618460EF003F916
:10253800024607F108031068186007F108031846F7
:10254800FEF788FF0346002B14D13B8C01333B84F4
:102558007B6803F58A5310331846FEF7B4FF034629
:102568001A463B8C934234BF01230023DBB2002B75
:10257800D5D100E000BF7B8C002B0DD17B6803F523
:102588008A5310331846FEF79EFF03461A463B8CC3
:10259800934201D3012300E00023002B02D07B6982
:1025A800BB6161E07B8C002B0ED17B6803F58A53FD
:1025B80010333A8C114618460EF0BDF8024607F162
:1025C8001403106818604DE07B6803F58A531033D4
:1025D8001846FEF778FF03461A463B8C93422CBFF9
:1025E80001230023DBB2002B0ED07B6803F58A534E
:1025F80010337A8C114618460EF09DF8024607F102
:102608001403106818602DE0B7F91E207B8CD31ACC
:1026180083EAE372A2EBE372398CB7F91E30CB1A66
:10262800002BB8BF5B429A420EDA7B6803F58A53E7
:1026380010337A8C114618460EF07DF8024607F1E1
:102648001403106818600DE07B6803F58A53103393
:102658003A8C114618460EF06EF8024607F114033C
:10266800106818607B69BB6100233A7E62F3070338
:102678007A7E62F30F23BA7E62F31743FA7E62F31F
:102688001F6318462C37BD4690BD00BF4800002088
:1026980080B586B000AFF860B96011461A460B469F
:1026A800FB711346BB71FB6803F586501630BB7986
:1026B80097F90720B96800F079FEBB791946F868E0
:1026C800FFF708FA78617869FEF784FE97F82030FA
:1026D800002B02D07869FEF78DFE00BF1837BD4683
:1026E80080BD000080B584B000AF78600B46FB70F9
:1026F8001346BB70FB78022B02D11A4B1B8801E0F2
:10270800194B1B88FB81BB7883F00103DBB2002BDC
:102718000AD07868FEF7E2FE034683F00103DBB2D5
:10272800002B01D0012300E00023002B14D0B7F9BF
:102738000E30184619F0AEFA0346FB81FA890B4BA6
:10274800A3FB0213D9080B469B000B445B00D31A6A
:102758009BB2FA89D31AFB81FB8918461037BD460C
:1027680080BD00BF3E5E0308385E0308CDCCCCCCEC
:1027780090B583B000AF78600B46FB701346BB7012
:10278800BB78002B05D17868FEF7A8FE0346002B1E
:1027980001D0012400E000247868FEF7B1FE03466A
:1027A800F9782246786800F005F8034618460C3791
:1027B800BD4690BD80B584B000AF7860084611462C
:1027C8001A460346FB700B46BB7013467B701A4BC8
:1027D8001B88FB81FB78002B02D0FB78012B08D1EA
:1027E8007B78002B02D0154B1B8801E0144B1B880B
:1027F800FB81BB7883F00103DBB2002B16D0B7F95D
:102808000E30184619F046FA0346FB81FA890D4B3B
:10281800A3FB0213D9080B469B000B445B00D31A99
:102828009BB2FA89D31A9BB20A33FB81FB891846FB
:102838001037BD4680BD00BF405E03083A5E0308FE
:102848003C5E0308CDCCCCCC90B589B000AF7860A5
:1028580007F108031846FFF73DF80023FB7700232C
:10286800BB833EE07868BB8BDAB207F1080101232D
:102878000AF043FE0346FB76FB7E002B2AD17B68D9
:1028880003F58653163307F108021146184600F07F
:10289800DBFF034683F00103DBB2002B05D007F111
:1028A800080308331846FEF7C5FD7B6803F58A530D
:1028B8001033BA8BD0B207F1080202F108010246C0
:1028C80018460DF003FF0346002B06D0FB7F0133AB
:1028D800FB7702E0FB7E012B15D0BB8B01339BB24B
:1028E800BB83B7F91C407B6803F58A53103318463D
:1028F800FEF7E9FD03469C42B4BF01230023DBB287
:10290800002BAFD100E000BF7B6818460AF0F6FB49
:10291800FB7F18462437BD4690BD000090B58BB0AC
:1029280000AF78600023FB84002387F8233007F189
:102938000C031846FEF740FD0EE097F8232007F138
:10294800100107F10C0318460DF0ABFB0346002BF2
:1029580002D0FB8C0133FB847B6807F11001102245
:1029680018460AF08FFF034687F8233097F823307C
:10297800002B14BF01230023DBB2002BDDD17B68C1
:1029880018460BF01FF8FB8C0133FB847B6803F5BA
:102998008A531033FA8C114618460DF051FE03463F
:1029A800002B54D02C4B1C682B4B1B681846FDF78A
:1029B80037FC0346DBB207F10C00224605210DF077
:1029C8002FFB7B6803F58A53103307F10C020021B3
:1029D80018460DF054FE0123BB842CE07B6807F1F8
:1029E8001001102218460AF04DFF034687F82330DD
:1029F80097F82330002B23D097F8232007F11001F4
:102A080007F10C0318460DF04CFB0346002B12D0BF
:102A18007B6803F58A53103307F10C02B98C18460A
:102A28000DF02DFE034683F00103DBB2002B09D124
:102A3800BB8C0133BB84BA8CFB8C9A42CED302E0A8
:102A480000BF00E000BF7B6818460AF0BBFFFB8CA4
:102A580018462C37BD4690BD4C00002080B582B08A
:102A680000AF78607B681A8C7B68B3F858309A425C
:102A780001D00023ABE07B685A8C7B68B3F85A30EE
:102A88009A4201D00023A2E07B689A8C7B68B3F855
:102A98005C309A4201D0002399E07B68DA8C7B682D
:102AA800B3F85E309A4201D0002390E07B681A8E1A
:102AB8007B68B3F868309A4201D0002387E07B68CE
:102AC80093F832207B6893F86A309A4201D0002349
:102AD8007DE07B6893F834207B6893F86C309A42E9
:102AE80001D0002373E07B68DA8E7B68B3F86E3020
:102AF8009A4201D000236AE07B6893F838207B680B
:102B080093F870309A4201D0002360E07B68DA8F36
:102B18007B68B3F876309A4201D0002357E07B688F
:102B280093F833207B6893F86B309A4201D00023E6
:102B38004DE07B6893F840207B6893F878309A42A0
:102B480001D0002343E07B685A8F7B68B3F872306A
:102B58009A4201D000233AE07B6893F83C207B68D6
:102B680093F874309A4201D0002330E07B6803F177
:102B780028027B686033194610460DF015FB0346A2
:102B880083F00103DBB2002B01D000231FE07B6838
:102B980003F12C027B686433194610460DF004FBE0
:102BA800034683F00103DBB2002B01D000230EE0C3
:102BB8007B6803F142007B687A331422194631F0AE
:102BC8009DF90346002B01D0002300E0012318469D
:102BD8000837BD4680BD0000B0B582B000AF786050
:102BE8007B68EB221A847B68EB225A847B68C822B4
:102BF8009A847B684FF49662DA847B68052283F8AE
:102C080034207B68B4221A867B68052283F8322038
:102C18007B68B422DA867B68052283F838207B68D3
:102C2800B322DA877B68502283F833207B688022BE
:102C380083F840207B68012283F841207B680022CA
:102C480083F83C207B68B4225A877B68423314227D
:102C58001449184631F064F97B6803F12804124BD3
:102C68001D68114B1B681846FDF7DAFA0346DBB2FC
:102C78002A46012120460DF0D3F97B6803F12C0484
:102C8800094B1D68084B1B681846FDF7C9FA03462F
:102C9800DBB22A46032120460DF0C2F900BF0837EF
:102CA800BD46B0BD505E03084800002080B483B024
:102CB80000AF78607B6840F6FC029A817B6832221C
:102CC800DA817B6840F2DF221A827B6840F2C752C1
:102CD8005A827B683B229A827B6840F2FB12DA8236
:102CE8007B6864221A837B6820225A837B68C82207
:102CF8009A8300BF0C37BD4680BC704780B584B04E
:102D080000AFF860B9601346FB71FB79002B07D15F
:102D1800C8230A2240F23F21F86817F0F1FC11E0BD
:102D2800FB79022B06D1322340229621F86817F04E
:102D3800E7FC07E040F2A46303224FF4FA71F86855
:102D480017F0DEFCF8681037BD4680BD80B483B04C
:102D580000AF78600B46FB70FB78012B03D17B68D2
:102D680093F8383009E0FB78002B03D17B6893F89F
:102D7800343002E07B6893F83C3018460C37BD4687
:102D880080BC704780B483B000AF78600B46FB709E
:102D9800FB78012B02D17B68DB8E07E0FB78002BE8
:102DA80002D17B681B8E01E07B685B8F18460C376D
:102DB800BD4680BC704780B483B000AF78600B46D6
:102DC800FB70FB78022B02D17B689B8C07E0FB78B9
:102DD800012B02D17B685B8C01E07B681B8C184659
:102DE8000C37BD4680BC704780B582B000AF7860B4
:102DF8007B6893F84230002B06D17B68423314225B
:102E08000449184631F08CF87B6842331846083775
:102E1800BD4680BD505E030880B584B000AF7860C1
:102E2800084611461A460346FB700B46BB7013460C
:102E38007B707B68DB8F03F00103002B14BF012339
:102E48000023FB73FA7BBB789A423FD0BB78002BF8
:102E58001ED07B681B8C1BB2184618F035FF034642
:102E68009AB27B681A847B685B8C1BB2184618F090
:102E78002BFF03469AB27B685A847B689B8C1BB2F3
:102E8800184618F021FF03469AB27B689A841DE021
:102E98007B681B8C1BB2184618F0FCFE03469AB2DE
:102EA8007B681A847B685B8C1BB2184618F0F2FEAC
:102EB80003469AB27B685A847B689B8C1BB218467F
:102EC80018F0E8FE03469AB27B689A847B68DB8F29
:102ED80003F00C039AB27B68DA87BB78002B06D024
:102EE8007B68DB8F43F001039AB27B68DA87FB7853
:102EF800002B06D07B68DB8F43F002039AB27B6815
:102F0800DA877B78002B06D07B68DB8F43F0800361
:102F18009AB27B68DA873B7E002B06D07B68DB8F12
:102F280043F010039AB27B68DA873B7F002B06D008
:102F38007B68DB8F43F020039AB27B68DA8797F8C7
:102F48002030002B06D07B68DB8F43F480739AB265
:102F58007B68DA8797F82430002B06D07B68DB8FF4
:102F680043F400739AB27B68DA8797F82830FF2217
:102F78000121184618F076FE0346DAB27B6883F81A
:102F8800402097F82430002B16D0002200217868C2
:102F9800FFF7EEFB0346BB817B681B8CBA899A421C
:102FA80002D27B68BA891A847B685B8CBA899A4298
:102FB80002D27B68BA895A8400BF1037BD4680BDEB
:102FC80080B483B000AF7860084611461A460346BD
:102FD800FB700B46BB7013467B707B687A7883F86E
:102FE80034207B683A8A1A867B683A7D83F83220D7
:102FF8007B68DB8F23F00C039AB27B68DA87FB7857
:10300800002B06D07B68DB8F43F004039AB27B6801
:10301800DA87BB78002B06D07B68DB8F43F0080388
:103028009AB27B68DA873B7E4B2B01D94B233B76E0
:10303800BB8BB3F5A07F02D94FF4A073BB83BB8BC6
:10304800042B01D80523BB833B7E04333B763B7EB0
:10305800174AA2FB03239B083B763B7E1B01DAB28F
:103068007B6883F833207B6893F8333023F00F03B1
:10307800DAB27B6883F833207B6893F833305AB22E
:10308800BB8B013B0B4981FB0301C910DB17CB1A32
:103098005BB203F00F035BB213435BB2DAB27B6837
:1030A80083F8332000BF0C37BD4680BC704700BF93
:1030B800CDCCCCCC6766666680B582B000AF786050
:1030C8000B46FB7013463B807B683A88DA86FB78B0
:1030D8001E220021184618F0C5FD0346DAB27B68A7
:1030E80083F8382000BF0837BD4680BD80B483B060
:1030F80000AF7860084611461A460346FB700B4637
:10310800BB7013463B80FB78002B07D07B68DB8FB6
:1031180043F040039AB27B68DA8706E07B68DB8F6E
:1031280023F040039AB27B68DA877B68BA7883F821
:103138003C207B683A885A8700BF0C37BD4680BC64
:10314800704780B483B000AF78600B467B8013462D
:103158007B707B78002B03D17B687A881A8405E022
:103168007B78012B02D17B687A885A8400BF0C37A0
:10317800BD4680BC704780B483B000AF78600B4612
:103188007B8013463B807B687A889A847B683A8880
:10319800DA8400BF0C37BD4680BC704780B582B06A
:1031A80000AF78607B6803F156007B681E333822D5
:1031B800194630F05FFF00BF0837BD4680BD80B5B7
:1031C80082B000AF78607B6803F11E007B685633DD
:1031D8003822194630F04EFF00BF0837BD4680BD83
:1031E80080B485B000AF78607B6893F833301B09F2
:1031F800FB73FB7B1A4692001344DBB21846143764
:10320800BD4680BC704780B485B000AF78607B68ED
:1032180093F8333003F00F03FB81FB8901339BB232
:103228001A46920013449B009BB218461437BD46B9
:1032380080BC704780B584B000AFF860B9601346B1
:10324800FB71FB79002B0BD1BB689B891946BB68C6
:10325800DB891A46BB681B8AF86817F051FA19E02F
:10326800FB79022B0BD1BB681B8B1946BB685B8BA8
:103278001A46BB689B8BF86817F042FA0AE0BB68ED
:103288005B8A1946BB689B8A1A46BB68DB8AF86862
:1032980017F036FAF8681037BD4680BD80B487B09D
:1032A80000AFF860B9601346FB71FB79FB75FB7DD5
:1032B800022B3CD8FA7DBB681888F96813469B0036
:1032C80013445B000B4402461A80FA7DBB68588899
:1032D800F96813469B0013445B000B440233024613
:1032E8001A80FA7DBB689888F96813469B001344D6
:1032F8005B000B44043302461A80FA7DBB68D88809
:10330800F96813469B0013445B000B4406330246DE
:103318001A80FA7DBB6893F90C00F96813469B0084
:1033280013445B000B44083302461A7000E000BFE8
:103338001C37BD4680BC704780B485B000AF78604C
:103348000B46FB70FB78FB73FB7B022B01D9002338
:10335800FB73FA7B796813469B0013445B000B44AC
:10336800083393F9003018461437BD4680BC7047BF
:1033780080B485B000AF78600B46FB701346BB7015
:10338800FB78032B01D900230AE0BB78FB73FA7B97
:10339800F878796813469B001344034431F81330D6
:1033A80018461437BD4680BC7047000090B486B0FC
:1033B80000AFF860B96011461A460B46FB71134618
:1033C800BB71BB79BB750023FB7511E0FB7D5B000E
:1033D800BA681344BA7DF87D1C88F96813469B00C7
:1033E80013440344224621F81320FB7D0133FB7567
:1033F800FB7D032BEAD9BA7DF96813469B00134479
:103408005B000B4406331A880F4B1B889A420BD972
:10341800BA7D0D4B1888F96813469B0013445B006E
:103428000B44063302461A80BA7DF96813469B009E
:1034380013445B000B440833FA791A7000BF18373D
:10344800BD4690BC704700BF345E030880B483B0AB
:1034580000AF78600B46FB701346BB70BB78022B3D
:1034680006D1FB787A6810335B001344DB8805E0EB
:10347800FB787A680C335B001344DB8818460C37FA
:10348800BD4680BC704700002DE9F04188B002AF0E
:10349800F860084611461A4603467B810B463B8175
:1034A8001346FB71FB793B750023FB823B7D022BA6
:1034B80001D900230EE1B7F908103A7DF8681346E0
:1034C8009B0013445B000344083393F90030CB1A84
:1034D8003B613A7DF96813469B0013445B000B443B
:1034E8001B887A899A421FD27C893A7DF9681346EB
:1034F8009B0013445B000B441B881E46B7F9085019
:10350800FB791A460021F868FFF7A0FF03461A4620
:103518003B69134400932B4632460021204618F09D
:103528003FFB0346FB82C9E03A7DF96813469B00DE
:1035380013445B000B4406331B887A899A424BD8A4
:1035480001237B7544E03A7D787DF96813469B003A
:103558001344034431F813307A899A4235D27C896E
:103568003A7D7B7D581EF96813469B00134403443B
:1035780031F813301E463A7D787DF96813469B0072
:103588001344034431F8133098467B7D013BDBB28A
:10359800FA791946F868FFF759FF03461A463B6956
:1035A800D518FA797B7D1946F868FFF74FFF03466F
:1035B8001A463B69134400932B464246314620463F
:1035C80018F0EEFA0346FB8278E07B7D01337B75C9
:1035D8007B7D032BB7D971E03A7DF96813469B00D0
:1035E80013445B000B44023319883A7DF86813468C
:1035F8009B0013445B00034406331B88994232D274
:103608007C893A7DF96813469B0013445B000B44A0
:1036180002331B881E463A7DF96813469B00134403
:103628005B000B4406331B889846FB791A46012138
:10363800F868FFF70BFF03461A463B69D518FB7974
:103648001A460321F868FFF701FF03461A463B694B
:10365800134400932B4642463146204618F076FA2A
:103668000346FB822AE07C893A7DF96813469B0071
:1036780013445B000B4402331B881E46184B1B88FF
:103688009846FB791A460121F868FFF7DFFE0346E2
:103698001A463B69D518FB791A460321F868FFF7E3
:1036A800D5FE03461A463B69134400932B4642460F
:1036B8003146204618F04AFA0346FB82B7F916301D
:1036C800B7F9081040F2E732184618F0CBFA03466B
:1036D800FB82FB8A18461837BD46BDE8F08100BF5B
:1036E800345E030890B486B000AFF860B960134642
:1036F800FB71FB79BB750023FB7510E0BA7DFC7D7F
:10370800FB7D5B00B9681944F86813469B001344B5
:10371800234430F813300B80FB7D0133FB75FB7DB0
:10372800032BEBD900BF00BF1837BD4690BC7047CC
:1037380090B484B000AF78600B46FB70FB78BB7325
:103748000023FB7312E0FB7BBA7BF87B79681433A8
:103758005B000B44DC88796813469B0013440344E0
:10376800224621F81320FB7B0133FB73FB7B032BE1
:10377800E9D9094B1B78BA7B58B2796813469B0084
:1037880013445B000B44083302461A7000BF10371D
:10379800BD4690BC704700BF425E030880B485B048
:1037A80000AF786039600023FB73FB7B5A1CFA7307
:1037B8007A6814335B001344DA883B681A80FB7B11
:1037C8005A1CFA737A6814335B001344DA883B682E
:1037D8005A80FB7B5A1CFA737A6814335B001344D3
:1037E800DA883B689A80FB7B7A6814335B00134461
:1037F800DA883B68DA8000BF1437BD4680BC704762
:1038080080B584B000AF7860396038680CF0D6FDB8
:103818000346FB73FB7B052B0AD0052B0EDC022B22
:1038280002DC002B08DA09E0033B012B06D801E093
:10383800022305E0012303E0002301E000BF032386
:1038480018461037BD4680BD80B483B000AF78609D
:1038580039603B681A883B685B889A4209D23B68A2
:103868005B881A463B681B88D31A7A68D28E9342C3
:1038780001DA002324E03B685A883B689B889A4217
:1038880009D23B689B881A463B685B88D31A7A68DA
:10389800D28E934201DA002312E03B689A883B6893
:1038A800DB889A4209D23B68DB881A463B689B88CA
:1038B800D31A7A68D28E934201DA002300E00123FA
:1038C80018460C37BD4680BC704780B483B000AF43
:1038D80078600B46FB707B6808221A707B680022B0
:1038E8005A607B68FA781A707B6800225A607B6895
:1038F80018460C37BD4680BC704780B483B000AF13
:1039080078600B46FB707B68FA781A707B68002237
:103918005A6000BF0C37BD4680BC704780B483B086
:1039280000AF786039607B681B78DBB21A463B6869
:1039380002FB03F31A467B685A6000BF0C37BD468A
:1039480080BC704780B483B000AF78600B46FB70D2
:103958007B68002283F842207B68002283F840209D
:103968007B68FA7883F841207B6818460C37BD4697
:1039780080BC704780B582B000AF78600B46FB70A2
:103988007B68FA7811461846FFF79FFF7B6800228C
:103998001A727B6800225A727B684FF4C8725A8187
:1039A8007B684FF4FA729A817B6818460837BD46DF
:1039B80080BD80B483B000AF78607B6814221A6041
:1039C8007B6800229A807B680022DA807B6800226C
:1039D8009A607B680A22DA607B680A221A617B682F
:1039E80000225A617B680A229A617B680522DA61A3
:1039F8007B680B221A847B68012283F822207B686B
:103A080018460C37BD4680BC7047000080B582B0B0
:103A180000AF78607B68234A127811461846FFF792
:103A280091FF7B6844331F4A127811461846FFF706
:103A380089FF7B6888331B4A127811461846FFF7BE
:103A480081FF7B680022A3F8CC207B680022A3F8C2
:103A5800CE207B680022A3F8D0207B680022A3F840
:103A6800D2207B68002283F8D4207B680022C3F828
:103A7800D8207B68002283F8DC207B68002283F84A
:103A8800DD207B680022A3F8DE207B680022A3F8F3
:103A9800E0207B680022A3F8E2207B6818460837FC
:103AA800BD4680BD365E030880B582B000AF786041
:103AB8007B6804331846FFF77CFF7B682833184679
:103AC800FFF7A4FF0E4A7B681A607B6803F58673CC
:103AD80008211846FFF74EFF7B6803F58E7308210F
:103AE8001846FFF747FF7B6803F5967308211846C9
:103AF800FFF740FF7B6818460837BD4680BD00BF0A
:103B08000051030880B483B000AF7860044A7B6832
:103B18001A607B6818460C37BD4680BC704700BFEA
:103B28000051030880B582B000AF78607868FFF76D
:103B3800E9FF4FF49E7178682FF0AAFA7B6818465F
:103B48000837BD4680BD80B582B000AF78600B46AF
:103B58007B807B6803F586737A881146184617F0D0
:103B6800FFFA00BF0837BD4680BD80B582B000AF00
:103B780078600B46FB707B6803F58E72FB78002B30
:103B880001D0642300E000231946104617F0E8FA34
:103B980000BF0837BD4680BD80B582B000AF7860F1
:103BA8000B46FB707B6803F59672FB78002B01D0FF
:103BB800642300E000231946104617F0D1FA00BF2D
:103BC8000837BD4680BD80B582B000AF78607B689D
:103BD80000221A607B6800229A807B6806331846A8
:103BE800FDF7EAFB7B6818460837BD4680BD000034
:103BF80080B582B000AF78607B681846FFF754FF45
:103C0800474A7B681A607B680022A3F83C217B68DE
:103C18000022A3F83E217B680022A3F840217B689C
:103C28000022A3F842217B68042283F844217B68A0
:103C3800002283F845217B680022A3F846217B688F
:103C4800002283F848217B68002283F849217B6899
:103C580003F5A67308211846FFF737FE7B6803F5BE
:103C6800AA7308211846FFF730FE7B6803F5AE7388
:103C780008211846FFF729FE7B6803F5B27308216F
:103C88001846FFF722FE7B6803F5B673082118462D
:103C9800FFF71BFE7B68002283F874217B680322F0
:103CA80083F875217B680022A3F876217B684FF49E
:103CB8007A72A3F878217B68142283F87A217B68CA
:103CC8006422A3F87C217B68082283F87E217B6824
:103CD8004FF4FA72A3F880217B684FF47A72A3F844
:103CE80082217B68032283F884217B680E2283F873
:103CF80085217B68142283F886217B68052283F856
:103D080087217B68022283F888217B6844F6206239
:103D1800C3F88C217B6818460837BD4680BD00BFB4
:103D2800345B030880B483B000AF78600B46FB7047
:103D3800FA787B68114683F849117B6883F8482133
:103D480000BF0C37BD4680BC704780B483B000AF5D
:103D580078607B6893F8753118460C37BD4680BC8F
:103D68007047000080B582B000AF78607B68184665
:103D7800FFF79AFE5C4A7B681A607B68002283F82A
:103D88003C217B68002283F83D217B68002283F870
:103D98003E217B68012283F83F217B68002283F85B
:103DA80040217B680022A3F842217B680022A3F807
:103DB80044217B680022A3F846217B680022C3F8CF
:103DC80048217B680022A3F84C217B680022C3F8B5
:103DD80050217B6803F5AA7308211846FFF775FD83
:103DE8007B6803F5AE7308211846FFF76EFD7B6804
:103DF80003F5B27308211846FFF767FD7B6803F5E2
:103E0800B67308211846FFF760FD7B6803F5BA739F
:103E180008211846FFF759FD7B6803F5BE73082192
:103E28001846FFF752FD7B68002283F884217B68DF
:103E38000022A3F886217B68002283F888217B680A
:103E4800322283F889217B68502283F88A217B6893
:103E58004FF42F72A3F88C217B6840F2CF72A3F83D
:103E68008E217B684FF4C862A3F890217B683222C8
:103E7800A3F892217B681D4AC3F894217B684EF60B
:103E88006022C3F898217B684FF4FA72A3F89C214A
:103E98007B684FF47A72A3F89E217B680D2283F821
:103EA800A0217B681E2283F8A1217B683C2283F82D
:103EB800A2217B68072283F8A3217B68062283F866
:103EC800A4217B680A2283F8A5217B680122C3F814
:103ED800A8217B684EF66022C3F8AC217B6818469F
:103EE8000837BD4680BD00BFF05A0308407E050074
:103EF80080B483B000AF78607B6800221A607B686A
:103F080000221A607B6818460C37BD4680BC704793
:103F180080B483B000AF78607B6800221A607B6849
:103F280018460C37BD4680BC704780B582B000AFDC
:103F380078607B6818462DF021F97B6818460837A9
:103F4800BD4680BD80B582B000AF78607B68043321
:103F58001846FFF7EAFF044A7B681A607B68184630
:103F68000837BD4680BD00BFD850030880B483B071
:103F780000AF7860044A7B681A607B6818460C3783
:103F8800BD4680BC704700BFD850030880B582B0DA
:103F980000AF78607868FFF7E9FF502178682FF064
:103FA80077F87B6818460837BD4680BD80B483B073
:103FB80000AF786000BF0C37BD4680BC704780B545
:103FC80082B000AF78602CF0AFFA00BF0837BD466A
:103FD80080BD80B582B000AF78602CF0B5FA00BF24
:103FE8000837BD4680BD80B582B000AF78600B460B
:103FF800FB70FB7818462CF0B7FA00BF0837BD46AF
:1040080080BD80B582B000AF78600B46FB70FB784E
:1040180018462CF0C1FA00BF0837BD4680BD80B5F0
:1040280082B000AF78600B46FB70FB7818462CF026
:10403800CBFA00BF0837BD4680BD000080B582B00E
:1040480000AF78607B681846FFF77CFF034A7B68FF
:104058001A607B6818460837BD4680BDB050030813
:1040680080B582B000AF7860054A7B681A607B68CB
:104078001846FFF77BFF7B6818460837BD4680BDAA
:10408800B050030880B582B000AF78607868FFF759
:10409800E7FF502178682EF0FBFF7B681846083749
:1040A800BD4680BD80B582B000AF78602AF0A6FC1E
:1040B80000BF0837BD4680BD80B483B000AF7860CC
:1040C8007B6800221A807B6800225A607B68002285
:1040D8009A607B6800229A817B6800229A737B68C9
:1040E80018460C37BD4680BC704780B582B000AF1B
:1040F80078607B68043318462FF0A1F87B6818466F
:104108000837BD4680BD000090B583B000AF786029
:104118007B6800221A707B681C1DC54B2360231D19
:1041280018462FF05FF81C34C24B2360231D184635
:104138002FF058F81C34C04B2360231D18462FF06D
:1041480051F81C34BD4B2360231D18462FF04AF844
:104158001C34BB4B2360231D18462FF043F81C3436
:10416800B84B2360231D18462FF03CF81C34B64B7F
:104178002360231D18462FF035F81C34B34B2360F9
:10418800231D18462FF02EF81C34B14B2360231D35
:1041980018462FF027F81C34AE4B2360231D184611
:1041A8002FF020F81C34AC4B2360231D18462FF049
:1041B80019F81C34A94B2360231D18462FF012F858
:1041C8001C34A74B2360231D18462FF00BF81C3412
:1041D800A44B2360231D18462FF004F81C34A24B6F
:1041E8002360231D18462EF0FDFF1C349F4B2360CF
:1041F800231D18462EF0F6FF1C349D4B2360231D0B
:1042080018462EF0EFFF1C349A4B2360231D1846E6
:104218002EF0E8FF1C34984B2360231D18462EF01F
:10422800E1FF1C34954B2360231D18462EF0DAFF5E
:104238001C34934B2360231D18462EF0D3FF1C34E7
:10424800904B2360231D18462EF0CCFF1C348E4B58
:104258002360231D18462EF0C5FF1C348B4B2360AA
:10426800231D18462EF0BEFF1C34894B2360231DE6
:1042780018462EF0B7FF1C34864B2360231D1846C2
:104288002EF0B0FF1C34844B2360231D18462EF0FB
:10429800A9FF1C34814B2360231D18462EF0A2FF72
:1042A8001C347F4B2360231D18462EF09BFF1C34C3
:1042B8007C4B2360231D18462EF094FF1C347A4B48
:1042C8002360231D18462EF08DFF1C34774B236086
:1042D800231D18462EF086FF1C346B4B2360231DCC
:1042E80018462EF07FFF1C34714B2360231D18469F
:1042F8002EF078FF1C346F4B2360231D18462EF0D8
:1043080071FF1C346C4B2360231D18462EF06AFF86
:104318001C34624B2360231D18462EF063FF1C34A7
:104328005F4B2360231D18462EF05CFF1C34564B50
:104338002360231D18462EF055FF1C345C4B236068
:10434800231D18462EF04EFF1C345A4B2360231DA4
:1043580018462EF047FF1C343B4B2360231D18469C
:104368002EF040FF1C34554B2360231D18462EF0B9
:1043780039FF1C344B4B2360231D18462EF032FFA7
:104388001C34474B2360231D18462EF02BFF1C348A
:104398003D4B2360231D18462EF024FF1C34484B48
:1043A8002360231D18462EF01DFF1C34414B23604B
:1043B800231D18462EF016FF1C34424B2360231D84
:1043C80018462EF00FFF1C343F4B2360231D184660
:1043D8002EF008FF1C343D4B2360231D18462EF099
:1043E80001FF1C343A4B2360231D18462EF0FAFEB9
:1043F8001C34184B2360231D18462EF0F3FE1C3482
:10440800344B2360231D18462EF0ECFE1C34324B2F
:104418002360231D18462EF0E5FE1C342F4B236025
:10442800231D18462EF0DEFE1C342D4B236059E068
:10443800804703088C47030898470308A8470308E0
:10444800B8470308C4470308D0470308E0470308F0
:10445800F0470308F8470308004803080C48030816
:10446800144803081C4803082C4803083C48030860
:104478004848030854480308604803086C48030880
:104488007C4803088C48030898480308A048030898
:10449800A8480308B8480308C4480308D0480308D4
:1044A800DC480308EC480308FC48030808490308EB
:1044B80014490308244903083449030844490308F4
:1044C80050490308604903086C4903087849030800
:1044D8008049030888490308944903089C4903084C
:1044E800A4490308231D18462EF07CFE1C349F4B5C
:1044F8002360231D18462EF075FE1C349C4B236048
:10450800231D18462EF06EFE1C349A4B2360231D83
:1045180018462EF067FE1C34974B2360231D18465F
:104528002EF060FE1C34954B2360231D18462EF098
:1045380059FE1C34924B2360231D18462EF052FE60
:104548001C34904B2360231D18462EF04BFE1C3460
:104558008D4B2360231D18462EF044FE1C348B4BD4
:104568002360231D18462EF03DFE1C34884B236023
:10457800231D18462EF036FE1C34864B2360231D5F
:1045880018462EF02FFE1C34834B2360231D18463B
:104598002EF028FE1C34814B2360231D18462EF074
:1045A80021FE1C347E4B2360231D18462EF01AFE74
:1045B8001C347C4B2360231D18462EF013FE1C343C
:1045C800794B2360231D18462EF00CFE1C34774BC4
:1045D8002360231D18462EF005FE1C34744B2360FF
:1045E800231D18462EF0FEFD1C34724B2360231D3C
:1045F80018462EF0F7FD1C346F4B2360231D184618
:104608002EF0F0FD1C346D4B2360231D18462EF050
:10461800E9FD1C346A4B2360231D18462EF0E2FD89
:104628001C34684B2360231D18462EF0DBFD1C3418
:10463800654B2360231D18462EF0D4FD1C34634BB4
:104648002360231D18462EF0CDFD1C34604B2360DB
:10465800231D18462EF0C6FD1C345E4B2360231D17
:1046680018462EF0BFFD1C345B4B2360231D1846F3
:104678002EF0B8FD1C34594B2360231D18462EF02C
:10468800B1FD1C34564B2360231D18462EF0AAFD9D
:104698001C34544B2360231D18462EF0A3FD1C34F4
:1046A800514B2360231D18462EF09CFD1C344F4BA4
:1046B8002360231D18462EF095FD1C344C4B2360B7
:1046C800231D18462EF08EFD1C344A4B2360231DF3
:1046D80018462EF087FD1C34474B2360231D1846CF
:1046E8002EF080FD1C34454B2360231D18462EF008
:1046F80079FD1C34424B2360231D18462EF072FDB1
:104708001C34404B2360231D18462EF06BFD1C34CF
:104718003D4B2360231D18462EF064FD1C343B4B93
:104728002360231D18462EF05DFD1C34384B236092
:10473800231D18462EF056FD04F11C03354A1A6055
:10474800043318462EF04EFD7B68334A03F6F423F3
:1047580092E8030018600433198002330A0C1A70B7
:104768007B6818460C37BD4690BD00BF2449030836
:10477800AC490308BC490308CC490308D8490308D5
:10478800F8470308E4490308E8490308EC49030823
:10479800F4490308FC490308044A03080C4A0308BF
:1047A800144A03081C4A0308204A0308244A030839
:1047B800284A03082C4A0308344A03083C4A0308D9
:1047C80088490308444A0308504A0308644A03080E
:1047D800784A03088C4A0308A44A0308B04A030825
:1047E800C04A0308D04A0308E84A0308004B0308F4
:1047F800084B0308144B0308204B0308284B0308F5
:104808002C4B0308304B03083C4B0308404B030870
:10481800444B03084C4B03085C4B030880B483B03B
:1048280000AF78607B6800221A807B6818460C37D6
:10483800BD4680BC704780B483B000AF78600B463B
:10484800FB70FB789AB27B681A8000BF0C37BD46B4
:1048580080BC704790B583B000AF78607B68043344
:10486800002B0CD07B68043303F52F647B6804337A
:104878009C4204D01C3C2046FFF737FCF6E77B68D7
:1048880018460C37BD4690BD80B582B000AF786041
:104898007B681846FFF7D2FB7B6850331846FFF752
:1048A800BDFF7B6854331846FFF706FC7B6864330A
:1048B8001846FFF729FC4A4A7B681A607B68494A10
:1048C800C3F8602B7B680022A3F8642B7B684FF643
:1048D800FF72A3F8662B7B684FF4FC62A3F8682B81
:1048E8007B684FF47842A3F86A2B7B68FF22A3F811
:1048F8006C2B7B684FF6E072A3F86E2B7B684CF24A
:104908001862A3F8702B7B68002283F8722B7B68EF
:1049180003F674331846FFF7EBFA7B6803F678332F
:104928001846FFF7E5FA7B6803F67C331846FFF76D
:10493800DFFA7B6803F538631846FFF7D9FA7B6816
:1049480003F684331846FFF7D3FA7B6803F68833F7
:104958001846FFF7DDFA7B68FF2283F88C2B7B680B
:104968009622A3F88E2B7B680022A3F8902B7B68F5
:104978000022A3F8922B7B680022A3F8942B7B6873
:104988000022A3F8962B7B68C822A3F8982B7B6893
:104998006E22A3F89A2B7B685A22A3F89C2B7B687B
:1049A8003C22A3F89E2B7B685A22A3F8A02B7B6895
:1049B8002022A3F8A22B7B681922A3F8A42B7B68DA
:1049C800094AC3F8A82B7B68064AC3F8AC2B7B6856
:1049D800044AC3F8B02B7B6818460837BD4680BD2B
:1049E80088500308246303085C59030880B582B023
:1049F80000AF78601A4A7B681A607B6803F68833D0
:104A080018462CF040F97B6803F6843318462AF0E0
:104A1800C6F97B6803F5386318462AF0C0F97B6845
:104A280003F67C3318462AF0BAF97B6803F6783324
:104A380018462AF0B4F97B6803F6743318462AF04E
:104A4800AEF97B6864331846FFF704FF7B681846A5
:104A5800FFF706FB7B6818460837BD4680BD00BFD8
:104A68008850030880B582B000AF78607868FFF797
:104A7800BDFF40F6B43178682EF00AFB7B68184613
:104A88000837BD4680BD000080B483B000AF7860B1
:104A98007B6800221A707B6803F58053002283F834
:104AA8002C207B6803F580534FF48052DA857B68AD
:104AB80003F580531A46134B13637B6803F5805341
:104AC8001A46114B53637B6803F580531A460F4B04
:104AD80093637B6803F580531A460D4BD3637B6859
:104AE80003F580531A460B4B13647B6803F5805318
:104AF8001A46094B53647B6818460C37BD4680BC80
:104B0800704700BF644B0308704B03087C4B0308D5
:104B1800884B0308944B03089C4B0308B0B483B03C
:104B280000AF78607B6801221A707B6800225A60A7
:104B38007B68134A083392E8030083E803007B6824
:104B4800104A03F1100413460FCB84E80F007B686A
:104B58000D4A203392E8030083E803007B680B4A80
:104B680003F1280415460FCD0FC495E8030084E827
:104B780003007B6818460C37BD46B0BC704700BFC1
:104B8800AC4B0308B44B0308C44B0308CC4B0308D5
:104B980080B582B000AF78607B680A331846FCF7AE
:104BA8000BFC7B680E331846FCF706FC7B6818463E
:104BB8000837BD4680BD80B582B000AF78607B689D
:104BC8001846FFF700F87B681E331846FFF7E0FF2A
:104BD8007B6856331846FFF7DBFF7B6818460837B3
:104BE800BD4680BD80B483B000AF78607B6893F821
:104BF800403018460C37BD4680BC704780B483B03F
:104C080000AF78607B68104903F11E020B4603CBA6
:104C1800106051607B680D4903F126020B4603CBF7
:104C2800106051607B680A4903F12E020B4603CBE2
:104C3800106051607B686422DA867B6818460C37FE
:104C4800BD4680BC704700BFE44B0308EC4B03082B
:104C5800F44B030880B582B000AF78607B681846D3
:104C6800FFF712FF7B6803F5825308331846FFF7F6
:104C7800A2FF7B6803F5865316331846FFF7BEFF7D
:104C88007B6803F5885310331846FFF747FF7B68A6
:104C980003F58A5310331846FEF795FF7B681846CC
:104CA8000837BD4680BD80B483B000AF78607B68AC
:104CB800B3F5007F05D24FF400727B68B2FBF3F3C3
:104CC80000E0012318460C37BD4680BC7047000041
:104CD80080B483B000AF7860044A7B681A607B6850
:104CE80018460C37BD4680BC704700BF54500308B7
:104CF80080B483B000AF7860044A7B681A607B6830
:104D080018460C37BD4680BC704700BF5450030896
:104D180080B582B000AF78607868FFF7E9FF0421BA
:104D280078682EF0B5F97B6818460837BD4680BD0F
:104D380080B582B000AF78607B68184601F0D4FB7C
:104D48007B6818460837BD4680BD000080B582B034
:104D580000AF78607B681846FFF7BAFF0B4A7B689C
:104D68001A607B68043318462EF03CFA7B681C33C3
:104D7800184601F0A5FB7B684433184601F0A0FBF8
:104D88007B6818460837BD4680BD00BFF85B03083E
:104D980080B582B000AF78600D4A7B681A607B6886
:104DA80044331846FFF7C4FF7B681C331846FFF7E7
:104DB800BFFF7B68043318462EF041FA7B6818461B
:104DC800FFF796FF7B6818460837BD4680BD00BFD1
:104DD800F85B030880B582B000AF78607868FFF7A9
:104DE800D7FF6C2178682EF053F97B68184608378E
:104DF800BD4680BD80B582B000AF78607B6818463C
:104E08002EF0F0F97B68183318462EF0EBF97B6822
:104E1800303318462EF0E6F97B6818460837BD4649
:104E280080BD80B582B000AF78607B6830331846AB
:104E38002EF005FA7B68183318462EF000FA7B68C6
:104E480018462EF0FCF97B6818460837BD4680BD29
:104E580080B582B000AF7860786801F07AFB7B6833
:104E680018460837BD4680BD80B582B000AF78606F
:104E78007B68184601F05DFB7B6818460837BD461D
:104E880080BD80B582B000AF78607B681846FFF7B8
:104E9800EBFF7B6818460837BD4680BD80B582B0F9
:104EA80000AF78607B681846FFF750FF084A7B68B8
:104EB8001A607B686C331846FFF79CFF7B68B43335
:104EC8001846FFF7DEFF7B6818460837BD4680BDE9
:104ED800C45B030880B582B000AF78607B68184671
:104EE800FFF734FF054A7B681A607B680022DA66A0
:104EF8007B6818460837BD4680BD00BF905B030835
:104F080080B582B000AF78607B6803F501531C332D
:104F18001846FFF7C3FF7B6803F504531C33184694
:104F2800FFF7D8FF7B6803F50053002283F88C2134
:104F38007B6803F500531A460023C2F890317B685A
:104F480003F500531A46044BC2F894317B6818469F
:104F58000837BD4680BD00BF445E030880B582B0F7
:104F680000AF78607B6803F504531C33184602F0E1
:104F7800B5FB7B6803F501531C33184602F082FB2E
:104F88007B6818460837BD4680BD000080B582B0F2
:104F980000AF78607B681846FFF75CFE7B6803F516
:104FA8008A531C331846FFF7ABFF7B6803F54B5356
:104FB80034331846FFF768FC7B6803F57A532833C7
:104FC8001846FEF715FE7B6803F5804338332E49F3
:104FD800184607F0F8FC7B6803F5804378332B49C3
:104FE800184607F0F0FC7B6803F581433833184610
:104FF800FEF7B8FE7B6803F5844368331846FFF76D
:105008008DFD7B6803F58543283308211846FEF794
:105018005CFC7B6803F58543303308211846FEF7AE
:1050280054FC7B6803F58543383308211846FEF79E
:105038004CFC7B6803F58043002283F8C0227B6820
:1050480003F580431E2283F8C1227B6803F5804361
:1050580040F63C72A3F8C2227B6803F580430F2216
:1050680083F8C4227B6803F580430E2283F8C522A7
:105078007B6803F58043142283F8C6227B681846B0
:105088000837BD4680BD00BFB85D0020905E002097
:1050980080B582B000AF78600B467B807B6803F5F3
:1050A800854328337A881146184615F0F7FE00BF65
:1050B8000837BD4680BD80B582B000AF78600B462A
:1050C8007B8013463B807B6803F5854330337A88C1
:1050D8001146184615F0E2FE7B6803F58543383320
:1050E8003A881146184615F0D9FE00BF0837BD4664
:1050F80080BD80B582B000AF78600B46FB707B68DE
:1051080003F57A5328331846FEF71FFE0346002B93
:105118000CBF01230023DBB2002B08D07B6803F50A
:105128007A532833FA7811461846FEF71EFD00BF59
:105138000837BD4680BD80B582B000AF78600B46A9
:10514800FB707B6803F57A5328331846FEF7FDFD9C
:105158000346012B0CBF01230023DBB2002B08D030
:105168007B6803F57A532833FA7811461846FEF718
:10517800FCFC00BF0837BD4680BD000080B483B08A
:1051880000AF78603960124A7B681A607B68002239
:105198001A717B6800229A607B6800229A817B687A
:1051A80000221A617B6800225A617B6800229A619A
:1051B8007B680022DA617B6800221A627B683A68A1
:1051C8009A607B6818460C37BD4680BC704700BFA4
:1051D8003850030880B483B000AF786000BF0C3744
:1051E800BD4680BC704780B483B000AF78600023B0
:1051F80018460C37BD4680BC704780B483B000AFFA
:10520800786000BF0C37BD4680BC704780B483B05F
:1052180000AF7860044A7B681A607B6818460C37D0
:10522800BD4680BC704700BF3850030880B582B0C7
:1052380000AF78607868FFF7E9FF242178682DF0DF
:1052480027FF7B6818460837BD4680BD80B582B009
:1052580000AF78607B6802331846FCF7ADF87B68CE
:1052680018460837BD4680BDB0B582B000AF78603B
:1052780039607B6839681846FFF780FF0E4A7B68FB
:105288001A607B68243309241D4604E02846FFF78A
:10529800DDFF013C0635002CF8DA7B6800221A662F
:1052A8007B6800225A667B68002283F868207B6846
:1052B80018460837BD46B0BD085E030880B582B001
:1052C80000AF786039607B6839681846FFF756FF89
:1052D8001F4A7B681A607B68002283F824207B6859
:1052E8000022A3F846207B680022A3F848207B68A8
:1052F800002283F84A207B680022DA647B68002257
:105308001A657B6800225A657B68002283F858205A
:105318007B684FF41672A3F85A207B680D4ADA6549
:105328007B6840F6B8321A667B6841F288325A6662
:105338007B684FF4E172A3F868207B684FF496729B
:10534800A3F86A207B6818460837BD4680BD00BFB1
:10535800EC5D0308C0D4010080B582B000AF78606E
:1053680039607B6839681846FFF708FF124A7B687E
:105378001A607B68012283F824207B68002283F866
:1053880032207B68002283F833207B6800225A632E
:105398007B6800229A637B6840F2DC529A877B68BC
:1053A8000022DA877B684FF49672A3F840207B6866
:1053B80018460837BD4680BDD05D030880B582B069
:1053C80000AF786039607B6839681846FFF7D6FE09
:1053D800124A7B681A607B6800225A627B68002246
:1053E8009A627B68002283F82C207B68002283F86D
:1053F8002D207B68002283F82E207B68002283F80A
:105408002F207B68002283F830207B6803225A868D
:105418007B6818460837BD4680BD00BFB45D0308E9
:1054280080B582B000AF786039607B68396818460B
:10543800FFF7A4FE284A7B681A607B6806229A84D4
:105448007B6841F288329A627B68002283F82C20BC
:105458007B6800221A637B6800225A637B680022FB
:105468009A637B6800229A877B680022DA877B68C8
:105478000022A3F840207B680022A3F842207B6822
:105488000022A3F844207B68FA22A3F846207B6810
:10549800002283F848207B680022DA647B680022B7
:1054A800A3F850207B68002283F852207B680622EC
:1054B800A3F854207B684FF4FA629A657B684FF42E
:1054C800C872A3F85C207B684FF4FA621A667B689E
:1054D80018460837BD4680BD985D030880B582B080
:1054E80000AF786039607B6839681846FFF746FE78
:1054F8000B4A7B681A607B68012283F824207B684A
:10550800642283F825207B68263300221A605A60BB
:105518009A60DA601A617B6818460837BD4680BD14
:105528007C5D030880B584B000AFF860B9607A602C
:10553800FB68B9681846FFF721FE054AFB681A6040
:10554800FB687A685A62FB6818461037BD4680BD0A
:10555800605D030880B584B000AFF860B9607A6018
:10556800FB68B9681846FFF709FE054AFB681A6028
:10557800FB687A685A62FB6818461037BD4680BDDA
:10558800445D030880B582B000AF786039607B68FD
:1055980039681846FFF7F2FD144A7B681A607B6881
:1055A80000229A847B680022DA847B68002283F8D0
:1055B80028207B68002283F829207B68012283F851
:1055C8002A207B684FF448729A857B684FF44872AA
:1055D800DA857B6840F2CF721A867B68022283F8EC
:1055E80032207B6818460837BD4680BD285D030811
:1055F80080B584B000AFF860B9607A60FB68B968BC
:105608001846FFF7BBFD074AFB681A60FB680222D1
:1056180083F82820FB687A685A62FB6818461037B6
:10562800BD4680BD0C5D030880B584B000AFF8604E
:10563800B9607A60FB68B9681846FFF79FFD0C4AA5
:10564800FB681A60FB68022283F82820FB680122A5
:1056580083F82920FB6800225A85FB6800229A8576
:10566800FB687A685A62FB6818461037BD4680BDE9
:10567800F05C030880B582B000AF786039607B6861
:1056880039681846FFF77AFD0E4A7B681A607B680E
:10569800002283F824207B68002283F825207B6879
:1056A80000229A627B68002283F82C207B68002203
:1056B80083F82D207B686422DA857B6818460837D2
:1056C800BD4680BD4451030880B582B000AF786004
:1056D800054A7B681A607B681846FFF797FD7B6868
:1056E80018460837BD4680BD4451030880B582B0CE
:1056F80000AF78607868FFF7E7FF302178682DF011
:10570800C7FC7B6818460837BD4680BD80B582B0A7
:1057180000AF786039607B6839681846FFF7AAFFE0
:10572800244A7B681A607B68303305211846FEF7E7
:10573800CCF87B6800229A637B680022DA637B6876
:1057480000221A647B6800225A647B6800229A64EB
:105758007B680022DA647B6800221A657B68002275
:10576800A3F854207B68012283F856207B68002226
:105778009A657B68012283F85C207B684FF4FA7293
:10578800A3F85E207B6840F2DC52A3F860207B68B7
:105798004FF4FA725A667B6840F6B832A3F868206C
:1057A8007B6847F23052DA667B6818460837BD4690
:1057B80080BD00BF605E030880B584B000AFF860AC
:1057C800B9607A60FB68B9681846FFF7D7FC254AC4
:1057D800FB681A60FB6800225A62FB68012283F8A2
:1057E8002820FB68012283F82920FB68002283F81F
:1057F8002A20FB68012283F82B20FB68012283F80A
:105808002C20FB68002283F82D20FB68002283F8F7
:105818002E20FB68642283F82F20FB68002283F87F
:105828003020FB68002283F83120FB68002283F8CF
:105838003220FB68002283F83320FB68002283F8BB
:105848003420FB68042283F83520FB68072283F89C
:105858003620FB687A685A62FB6818461037BD46DE
:1058680080BD00BFB85C030880B584B000AFF860A5
:10587800B9607A60FB68B9681846FFF77FFC1C4A74
:10588800FB681A60FB68002283F82C20FB68002262
:1058980083F82D20FB68002283F82E20FB68002265
:1058A8001A86FB68002283F83220FB68002283F8FE
:1058B8003320FB6800229A86FB68002283F8362092
:1058C800FB68002283F83720FB68022283F838201F
:1058D800FB68062283F83920FB6878225A87FB6820
:1058E8007A685A62FB6818461037BD4680BD00BF0B
:1058F800805C030880B584B000AFF860B9607A6056
:10590800FB68B9681846FFF739FC124AFB681A6049
:10591800FB68002283F82820FB6800225A85FB6870
:10592800FF2283F82C20FB68002283F82D20FB68D7
:10593800002283F82E20FB68012283F82F20FB68C1
:1059480078221A86FB687A685A62FB68184610370C
:10595800BD4680BD645C030880B584B000AFF860C4
:10596800B9607A60FB68B9681846FFF707FC144A03
:10597800FB681A60FB68002283F82820FB68002275
:1059880083F82920FB6800225A85FB68FF2283F8E8
:105998002C20FB68002283F82D20FB68012283F865
:1059A8002E20FB68022283F82F20FB6878221A86B3
:1059B800FB687A685A62FB6818461037BD4680BD96
:1059C800485C030880B584B000AFF860B9607A60BD
:1059D8003B60FB68B9681846FFF7D0FB064AFB68CE
:1059E8001A60FB687A685A62FB683A689A62FB68D0
:1059F80018461037BD4680BD2C5C030880B400AF44
:105A0800034B1B78DBB21846BD4680BC704700BF0D
:105A18003802002080B500AF034815F05EFA03464F
:105A28009BB2184680BD00BF3003002080B584B00B
:105A380000AF0346FB8017F0CBFF034603F59673D0
:105A4800FB600DE0214B5B6A002B0CBF0123002398
:105A5800DBB2002B04D04FF08042FB8853620AE08F
:105A680017F0B6FF0246FB6893428CBF0123002360
:105A7800DBB2002BE6D117F0ABFF034603F59673B4
:105A8800FB600DE0114B5B6A002B0CBF0123002368
:105A9800DBB2002B04D04FF080435B6A9BB210E06E
:105AA80017F096FF0246FB6893428CBF0123002340
:105AB800DBB2002BE6D14FF08043DB6A9BB20133A7
:105AC8009BB218461037BD4680BD00BF0004004099
