:020000040800F2
:100000000000012075CF010895B001089DB00108DE
:10001000A5B00108ADB00108B5B0010800000000AE
:10002000000000000000000000000000BDB001085A
:10003000C9B0010800000000D5B00108E1B0010816
:10004000BDCF0108BDCF0108BDCF0108BDCF01085C
:10005000BDCF0108BDCF0108BDCF0108BDCF01084C
:10006000BDCF0108BDCF0108BDCF0108EDB001082B
:10007000BDCF0108BDCF0108BDCF0108BDCF01082C
:10008000BDCF0108BDCF0108BDCF0108BDCF01081C
:1000900001B10108BDCF0108BDCF0108BDCF0108E6
:1000A000BDCF0108BDCF0108BDCF0108BDCF0108FC
:1000B00015B1010829B10108BDCF0108BDCF010864
:1000C000BDCF0108BDCF0108BDCF0108BDCF0108DC
:1000D000BDCF0108BDCF0108BDCF0108BDCF0108CC
:1000E000BDCF0108BDCF0108BDCF0108BDCF0108BC
:1000F000BDCF0108BDCF0108BDCF0108BDCF0108AC
:10010000BDCF0108BDCF0108BDCF0108BDCF01089B
:10011000BDCF0108BDCF01083DB10108BDCF010829
:10012000BDCF010851B10108BDCF010865B101087B
:1001300000000000000000000000000000000000BF
:1001400000000000000000000000000000000000AF
:10015000000000000000000000000000000000009F
:10016000000000000000000000000000000000008F
:10017000000000000000000000000000000000007F
:10018000000000000000000000000000000000006F
:10019000000000000000000000000000000000005F
:1001A000000000000000000000000000000000004F
:1001B000000000000000000000000000000000003F
:1001C000000000000000000000000000000000002F
:1001D000000000000000000000000000000000001F
:0401E0005FF8E0F1F3
:1001E80010B5054C237833B9044B13B10448AFF369
:1001F80000800123237010BDF801002000000000DA
:100208004037030808B5034B1BB103490348AFF354
:10021800008008BD00000000FC01002040370308F2
:10022800034613F8012B002AFBD1181A013870472E
:1002380081F0004102E000BF83F0004330B54FEA8F
:1002480041044FEA430594EA050F08BF90EA020FFC
:100258001FBF54EA000C55EA020C7FEA645C7FEA8F
:10026800655C00F0E2804FEA5454D4EB5555B8BFB2
:100278006D420CDD2C4480EA020281EA030382EA23
:10028800000083EA010180EA020281EA0303362DB5
:1002980088BF30BD11F0004F4FEA01314FF4801C88
:1002A8004CEA113102D0404261EB410113F0004F9A
:1002B8004FEA03334CEA133302D0524263EB430351
:1002C80094EA050F00F0A780A4F10104D5F1200EEF
:1002D8000DDB02FA0EFC22FA05F2801841F100014A
:1002E80003FA0EF2801843FA05F359410EE0A5F11E
:1002F80020050EF1200E012A03FA0EFC28BF4CF04F
:10030800020C43FA05F3C01851EBE37101F0004504
:1003180007D54FF0000EDCF1000C7EEB00006EEB11
:100328000101B1F5801F1BD3B1F5001F0CD349089B
:100338005FEA30004FEA3C0C04F101044FEA4452F2
:1003480012F5800F80F09A80BCF1004F08BF5FEA79
:10035800500C50F1000041EB045141EA050130BD59
:100368005FEA4C0C404141EB0101013C28BFB1F56B
:10037800801FE9D291F0000F04BF01460020B1FAB6
:1003880081F308BF2033A3F10B03B3F120020CDA89
:100398000C3208DD02F1140CC2F10C0201FA0CF067
:1003A80021FA02F10CE002F11402D8BFC2F1200CCC
:1003B80001FA02F120FA0CFCDCBF41EA0C01904082
:1003C800E41AA2BF01EB0451294330BD6FEA0404CB
:1003D8001F3C1CDA0C340EDC04F11404C4F12002B6
:1003E80020FA04F001FA02F340EA030021FA04F3C8
:1003F80045EA030130BDC4F10C04C4F1200220FA1F
:1004080002F001FA04F340EA0300294630BD21FA5C
:1004180004F0294630BD94F0000F83F4801306BF22
:1004280081F480110134013D4EE77FEA645C18BF16
:100438007FEA655C29D094EA050F08BF90EA020FAD
:1004480005D054EA000C04BF1946104630BD91EAA5
:10045800030F1EBF0021002030BD5FEA545C05D1A8
:100468004000494128BF41F0004130BD14F58004E7
:100478003CBF01F5801130BD01F0004545F0FE415B
:1004880041F470014FF0000030BD7FEA645C1ABF90
:10049800194610467FEA655C1CBF0B46024650EAC7
:1004A800013406BF52EA033591EA030F41F40021F3
:1004B80030BD00BF90F0000F04BF0021704730B579
:1004C8004FF4806404F132044FF000054FF000014E
:1004D80050E700BF90F0000F04BF0021704730B50F
:1004E8004FF4806404F1320410F0004548BF4042E4
:1004F8004FF000013EE700BF42004FEAE2014FEA39
:1005080031014FEA02701FBF12F07F4393F07F4F13
:1005180081F06051704732F07F4208BF704793F016
:100528007F4F04BF41F40021704730B54FF4607429
:1005380001F0004521F000411CE700BF50EA01022C
:1005480008BF704730B54FF000050AE050EA0102D5
:1005580008BF704730B511F0004502D5404261EB45
:1005680041014FF4806404F132045FEA915C3FF486
:10057800D8AE4FF003025FEADC0C18BF03325FEA23
:10058800DC0C18BF033202EBDC02C2F1200300FAD4
:1005980003FC20FA02F001FA03FE40EA0E0021FAF9
:1005A80002F11444BDE600BF70B54FF0FF0C4CF4E7
:1005B800E06C1CEA11541DBF1CEA135594EA0C0F99
:1005C80095EA0C0F00F0DEF82C4481EA030621EAD4
:1005D8004C5123EA4C5350EA013518BF52EA03350F
:1005E80041F4801143F4801338D0A0FB02CE4FF0C1
:1005F8000005E1FB02E506F00042E0FB03E54FF0F1
:100608000006E1FB03569CF0000F18BF4EF0010EE8
:10061800A4F1FF04B6F5007F64F5407404D25FEAE4
:100628004E0E6D4146EB060642EAC62141EA555197
:100638004FEAC52040EA5E504FEACE2EB4F1FD0CD9
:1006480088BFBCF5E06F1ED8BEF1004F08BF5FEA57
:10065800500E50F1000041EB045170BD06F0004609
:1006680046EA010140EA020081EA0301B4EB5C04B6
:10067800C2BFD4EB0C0541EA045170BD41F48011AE
:100688004FF0000E013C00F3AB8014F1360FDEBFD3
:10069800002001F0004170BDC4F10004203C35DAAF
:1006A8000C341BDC04F11404C4F1200500FA05F332
:1006B80020FA04F001FA05F240EA020001F00042D3
:1006C80021F0004110EBD37021FA04F642EB060149
:1006D8005EEA430E08BF20EAD37070BDC4F10C0473
:1006E800C4F1200500FA04F320FA05F001FA04F237
:1006F80040EA020001F0004110EBD37041F1000123
:100708005EEA430E08BF20EAD37070BDC4F120052D
:1007180000FA05F24EEA020E20FA04F301FA05F295
:1007280043EA020321FA04F001F0004121FA04F23D
:1007380020EA020000EBD3705EEA430E08BF20EA0D
:10074800D37070BD94F0000F0FD101F00046400047
:1007580041EB010111F4801F08BF013CF7D041EAC9
:10076800060195F0000F18BF704703F000465200CD
:1007780043EB030313F4801F08BF013DF7D043EA9E
:100788000603704794EA0C0F0CEA135518BF95EA54
:100798000C0F0CD050EA410618BF52EA4306D1D1DB
:1007A80081EA030101F000414FF0000070BD50EAFA
:1007B800410606BF1046194652EA430619D094EA84
:1007C8000C0F02D150EA013613D195EA0C0F05D16E
:1007D80052EA03361CBF104619460AD181EA0301C2
:1007E80001F0004141F0FE4141F470014FF000007A
:1007F80070BD41F0FE4141F4780170BD70B54FF015
:10080800FF0C4CF4E06C1CEA11541DBF1CEA135594
:1008180094EA0C0F95EA0C0F00F0A7F8A4EB050476
:1008280081EA030E52EA03354FEA013100F088806D
:100838004FEA03334FF0805545EA131343EA126336
:100848004FEA022245EA111545EA10654FEA0026EB
:100858000EF000419D4208BF964244F1FD0404F5A4
:10086800407402D25B084FEA3202B61A65EB030500
:100878005B084FEA32024FF480104FF4002CB6EBBD
:10088800020E75EB030E22BFB61A754640EA0C003D
:100898005B084FEA3202B6EB020E75EB030E22BF7D
:1008A800B61A754640EA5C005B084FEA3202B6EBBE
:1008B800020E75EB030E22BFB61A754640EA9C007D
:1008C8005B084FEA3202B6EB020E75EB030E22BF4D
:1008D800B61A754640EADC0055EA060E18D04FEA0B
:1008E800051545EA16754FEA06164FEAC30343EAAB
:1008F80052734FEAC2025FEA1C1CC0D111F4801F78
:100908000BD141EA00014FF000004FF0004CB6E770
:1009180011F4801F04BF01430020B4F1FD0C88BF0F
:10092800BCF5E06F3FF6AFAEB5EB030C04BFB6EB1A
:10093800020C5FEA500C50F1000041EB045170BD0D
:100948000EF0004E4EEA113114EB5C04C2BFD4EB3A
:100958000C0541EA045170BD41F480114FF0000EBE
:10096800013C90E645EA060E8DE60CEA135594EA3A
:100978000C0F08BF95EA0C0F3FF43BAF94EA0C0F3D
:100988000AD150EA01347FF434AF95EA0C0F7FF4B2
:1009980025AF104619462CE795EA0C0F06D152EA06
:1009A80003353FF4FDAE1046194622E750EA4106EA
:1009B80018BF52EA43067FF4C5AE50EA41047FF4FB
:1009C8000DAF52EA43057FF4EBAE12E74FF0FF3C60
:1009D80006E000BF4FF0010C02E000BF4FF0010C31
:1009E8004DF804CD4FEA410C7FEA6C5C4FEA430CAA
:1009F80018BF7FEA6C5C1BD001B050EA410C0CBFF9
:100A080052EA430C91EA030F02BF90EA020F00205A
:100A1800704710F1000F91EA030F58BF994208BFC1
:100A280090422CBFD8176FEAE37040F0010070477E
:100A38004FEA410C7FEA6C5C02D150EA013C07D1D5
:100A48004FEA430C7FEA6C5CD6D152EA033CD3D020
:100A58005DF8040B704700BF8446104662468C461A
:100A68001946634600E000BF01B5FFF7B7FF00284D
:100A780048BF10F1000F01BD4DF808EDFFF7F4FF76
:100A88000CBF012000205DF808FB00BF4DF808ED01
:100A9800FFF7EAFF34BF012000205DF808FB00BF24
:100AA8004DF808EDFFF7E0FF94BF012000205DF846
:100AB80008FB00BF4DF808EDFFF7CEFF94BF0120FB
:100AC80000205DF808FB00BF4DF808EDFFF7C4FFF4
:100AD80034BF012000205DF808FB00BF4FEA410C3D
:100AE8007FEA6C5C02D150EA013C0AD14FEA430C20
:100AF8007FEA6C5C02D152EA033C02D14FF000005D
:100B080070474FF0010070474FEA410212F500129A
:100B180015D211D56FF47873B3EB625212D94FEA3C
:100B2800C12343F0004343EA505311F0004F23FA26
:100B380002F018BF404270474FF00000704750EA7B
:100B4800013005D111F0004008BF6FF00040704738
:100B58004FF00000704700BF4A0011D212F5001292
:100B680011D20DD56FF47873B3EB62520ED44FEAFD
:100B7800C12343F0004343EA505323FA02F070477D
:100B88004FF00000704750EA013002D14FF0FF30BB
:100B980070474FF0000070474FEA4102B2F1E0435E
:100BA80024BFB3F5001CDCF1FE5C0DD901F0004C4C
:100BB8004FEAC0024CEA5070B2F1004F40EB83009C
:100BC80008BF20F00100704711F0804F21D113F1C8
:100BD8003872BCBF01F00040704741F480114FEA01
:100BE8005252C2F11802C2F1200C10FA0CF320FA8A
:100BF80002F018BF40F001004FEAC1234FEAD323A7
:100C080003FA0CFC40EA0C0023FA02F34FEA430310
:100C1800CCE77FEA625307D150EA01331EBF4FF099
:100C2800FE4040F44000704701F0004040F0FE40B4
:100C380040F40000704700BF80F0004002E000BFB1
:100C480081F0004142001FBF5FEA410392EA030FAF
:100C58007FEA226C7FEA236C6AD04FEA1262D2EBF9
:100C68001363C1BFD218414048404140B8BF5B42FE
:100C7800192B88BF704710F0004F40F4000020F097
:100C88007F4018BF404211F0004F41F4000121F0AD
:100C98007F4118BF494292EA030F3FD0A2F10102F7
:100CA80041FA03FC10EB0C00C3F1200301FA03F135
:100CB80000F0004302D5494260EB4000B0F5000F58
:100CC80013D3B0F1807F06D340084FEA310102F117
:100CD8000102FE2A51D2B1F1004F40EBC25008BFC9
:100CE80020F0010040EA03007047490040EB000093
:100CF800013A28BFB0F5000FEDD2B0FA80FCACF194
:100D0800080CB2EB0C0200FA0CF0AABF00EBC250C0
:100D180052421843BCBFD0401843704792F0000FAE
:100D280081F4000106BF80F400000132013BB5E701
:100D38004FEA41037FEA226C18BF7FEA236C21D077
:100D480092EA030F04D092F0000F08BF08467047DC
:100D580090EA010F1CBF0020704712F07F4F04D1AA
:100D6800400028BF40F00040704712F100723CBFBD
:100D780000F50000704700F0004343F0FE4040F4E7
:100D8800000070477FEA226216BF08467FEA2363A5
:100D98000146420206BF5FEA412390EA010F40F490
:100DA800800070474FF0000304E000BF10F00043DC
:100DB80048BF40425FEA000C08BF704743F09643C3
:100DC80001464FF000001CE050EA010208BF7047DE
:100DD8004FF000030AE000BF50EA010208BF704765
:100DE80011F0004302D5404261EB41015FEA010C7A
:100DF80002BF84460146002043F0B64308BFA3F172
:100E08008053A3F50003BCFA8CF2083AA3EBC25353
:100E180010DB01FA02FC634400FA02FCC2F1200272
:100E2800BCF1004F20FA02F243EB020008BF20F0A9
:100E38000100704702F1200201FA02FCC2F120020F
:100E480050EA4C0021FA02F243EB020008BF20EA04
:100E5800DC7070474FF0FF0C1CEAD0521EBF1CEA32
:100E6800D15392EA0C0F93EA0C0F6FD01A4480EA20
:100E7800010C400218BF5FEA41211ED04FF0006309
:100E880043EA501043EA5111A0FB01310CF0004035
:100E9800B1F5000F3EBF490041EAD3715B0040EA5B
:100EA800010062F17F02FD2A1DD8B3F1004F40EB2B
:100EB800C25008BF20F00100704790F0000F0CF0FE
:100EC800004C08BF49024CEA502040EA51207F3AC2
:100ED800C2BFD2F1FF0340EAC250704740F400009D
:100EE8004FF00003013A5DDC12F1190FDCBF00F08E
:100EF80000407047C2F10002410021FA02F1C2F13C
:100F0800200200FA02FC5FEA310040F1000053EAD7
:100F18004C0308BF20EADC70704792F0000F00F025
:100F2800004C02BF400010F4000F013AF9D040EA2B
:100F38000C0093F0000F01F0004C02BF490011F4BF
:100F4800000F013BF9D041EA0C018FE70CEAD153BD
:100F580092EA0C0F18BF93EA0C0F0AD030F0004C3D
:100F680018BF31F0004CD8D180EA010000F00040F1
:100F7800704790F0000F17BF90F0004F084691F0AF
:100F8800000F91F0004F14D092EA0C0F01D14202E9
:100F98000FD193EA0C0F03D14B0218BF084608D1B2
:100FA80080EA010000F0004040F0FE4040F40000FC
:100FB800704740F0FE4040F4400070474FF0FF0C8F
:100FC8001CEAD0521EBF1CEAD15392EA0C0F93EAD6
:100FD8000C0F69D0A2EB030280EA010C49024FEA28
:100FE800402037D04FF0805343EA111143EA1013E1
:100FF8000CF000408B4238BF5B0042F17D024FF499
:10100800000C8B4224BF5B1A40EA0C00B3EB510F73
:1010180024BFA3EB510340EA5C00B3EB910F24BF5C
:10102800A3EB910340EA9C00B3EBD10F24BFA3EBE1
:10103800D10340EADC001B0118BF5FEA1C1CE0D1A9
:10104800FD2A3FF650AF8B4240EBC25008BF20F05C
:10105800010070470CF0004C4CEA50207F32C2BFB0
:10106800D2F1FF0340EAC250704740F400004FF04D
:101078000003013A37E792F0000F00F0004C02BF7E
:10108800400010F4000F013AF9D040EA0C0093F048
:10109800000F01F0004C02BF490011F4000F013BA2
:1010A800F9D041EA0C0195E70CEAD15392EA0C0F0A
:1010B80008D142027FF47DAF93EA0C0F7FF470AF42
:1010C800084676E793EA0C0F04D14B023FF44CAF85
:1010D80008466EE730F0004C18BF31F0004CCAD11A
:1010E80030F000427FF45CAF31F000437FF43CAF56
:1010F8005FE700BF4FF0FF3C06E000BF4FF0010C78
:1011080002E000BF4FF0010C4DF804CD4FEA400259
:101118004FEA41037FEA226C18BF7FEA236C11D0A3
:1011280001B052EA530C18BF90EA010F58BFB2EB56
:10113800030088BFC81738BF6FEAE17018BF40F0D6
:10114800010070477FEA226C02D15FEA402C05D18A
:101158007FEA236CE4D15FEA412CE1D05DF8040B0F
:10116800704700BF844608466146FFE70FB5FFF7A2
:10117800C9FF002848BF10F1000F0FBD4DF808ED5A
:10118800FFF7F4FF0CBF012000205DF808FB00BF4B
:101198004DF808EDFFF7EAFF34BF012000205DF8A5
:1011A80008FB00BF4DF808EDFFF7E0FF94BF0120F2
:1011B80000205DF808FB00BF4DF808EDFFF7D2FFEF
:1011C80094BF012000205DF808FB00BF4DF808ED32
:1011D800FFF7C8FF34BF012000205DF808FB00BFFF
:1011E8004FEA40024FEA41037FEA226C02D15FEAEC
:1011F800402C08D17FEA236C02D15FEA412C02D14E
:101208004FF0000070474FF0010070474FEA40026E
:10121800B2F1FE4F0FD34FF09E03B3EB12620DD91C
:101228004FEA002343F0004310F0004F23FA02F086
:1012380018BF404270474FF00000704712F1610F2D
:1012480001D1420205D110F0004008BF6FF0004004
:1012580070474FF00000704780B582B000AF7860EB
:101268007B681B7883F00103DBB2002B06D17B6817
:1012780008331946786800F047F800E000BF0837DF
:10128800BD4680BD80B582B000AF78607B681B78B2
:1012980083F00103DBB2002B06D17B6810331946BB
:1012A800786800F031F800E000BF0837BD4680BD1F
:1012B80080B582B000AF78607B681B7883F001034B
:1012C800DBB2002B06D17B6820331946786800F022
:1012D8001BF800E000BF0837BD4680BD80B582B06E
:1012E80000AF78607B681B7883F00103DBB2002BCA
:1012F80006D17B6828331946786800F005F800E0C5
:1013080000BF0837BD4680BD80B582B000AF7860A9
:1013180039607B685B68002B0AD17B683A685A6041
:101328000021054820F09AFE044820F051FC00E016
:1013380000BF0837BD4680BDF85B0020605D002017
:1013480080B584B000AF78607B685B68991C7A6868
:1013580051601B88FB817B685B68991C7A685160C7
:101368001B88BB81BB89002B0ED10021104820F0BF
:101378002FFF104820F08CFC0D4B1B6800225A638D
:101388007B6800225A600FE0FB895A1E084B1B68D5
:10139800DA62FB895B089AB2054B1B685A63BB8902
:1013A8005A1E044B1B68DA621037BD4680BD00BF69
:1013B800F85B0020605D002080B483B000AF7860E7
:1013C8007B681A46002313607B6818460C37BD46B5
:1013D80080BC704780B483B000AF78607B68DB78EE
:1013E80043F04003DAB27B68DA7000BF0C37BD46C1
:1013F80080BC704780B483B000AF78607B68DB78CE
:1014080063F07F03DAB27B68DA7000BF0C37BD4641
:1014180080BC704780B483B000AF78607B68DB78AD
:1014280023F04003DAB27B68DA7000BF0C37BD46A0
:1014380080BC704780B483B000AF78607B68DB788D
:1014480003F07F03DAB27B68DA7000BF0C37BD4661
:1014580080BC704780B483B000AF78607B68DB786D
:1014680003F04003002B14BF01230023DBB218460E
:101478000C37BD4680BC704780B483B000AF78603D
:101488007B68DB785BB2DBB2DB09DBB218460C3772
:10149800BD4680BC704780B483B000AF78607B687D
:1014A8000022DA707B68DA787B689A707B689A78B1
:1014B8007B685A707B685A787B681A7000BF0C3753
:1014C800BD4680BC704780B483B000AF78607B684D
:1014D8009B8818460C37BD4680BC704780B483B0E3
:1014E80000AF78607B68DB8F03F00103002B14BF2B
:1014F80001230023DBB218460C37BD4680BC704779
:1015080080B483B000AF78607B68DB8F03F400732E
:10151800002B14BF01230023DBB218460C37BD464D
:1015280080BC704790B585B000AF78607B6818467E
:101538000BF0A1FA0346BB73BB7B002B40F0B480D1
:10154800786801F0EDF90023FB737B6803F58A5393
:1015580010331846FFF7B7FF0346002B14BF0123CB
:101568000023DBB2002B04D0786801F06FF9034642
:10157800FB737A687B6803F5835306331946104674
:101588000BF0B8FB03467B737B7B002B08D07B6892
:1015980003F5835306331946786800F0DFF822E034
:1015A8007B6803F582530833184601F017FB7B6804
:1015B80003F5835310337A6802F5805214461946AE
:1015C800786800F0DFFE034623677B6803F58353E2
:1015D80014337A6802F5805214461946786800F088
:1015E800D1FE034663677A687B6803F5825312333A
:1015F800194610460BF08FFC034683F00103DBB25B
:10160800002B06D07B6803F582530833184601F097
:101618004FFB7B6803F58A531033002118460EF000
:10162800D0FD03461946786800F062F97B6803F537
:10163800835310331946786800F05AF97B6803F52C
:10164800835314331946786800F052F97B6803F520
:1016580082530833184601F0A3FDFB7B002B10D002
:101668007B7B83F00103DBB2002B08D07A687B68B0
:1016780003F583530633194610460BF0FFFB00238E
:101688004AE07B6803F58A5310331846FFF71BFFBF
:101698000346012B8CBF01230023DBB2002B01D0B2
:1016A800012339E0022337E07B6803F582530833CE
:1016B800184601F093FA7B6803F5825308331846FD
:1016C80001F0F6FA7B6803F58653163302211846B3
:1016D80002F030F87B6803F58353103319467868B5
:1016E80000F006F97B6803F58353143319467868CC
:1016F80000F0FEF87B6803F582530833184601F0C2
:101708004FFDBB7B012B01D1032305E0BB7B022BE3
:1017180001D1042300E0002318461437BD4690BDCC
:1017280080B582B000AF78607B6803F58A531033C8
:101738001846FFF7C8FE0346002B14BF01230023F9
:10174800DBB2002B04D0786801F080F8012300E0B8
:10175800002318460837BD4680BD000090B585B007
:1017680000AF786039603B685B88FB813B689B8889
:10177800BB813B68DB887B813B681B8C03F00103E2
:10178800002B14D1B7F90E30184619F00DFE034698
:10179800FB81B7F90C30184619F006FE0346BB81E9
:1017A800B7F90A30184619F0FFFD03467B81FB891B
:1017B800444A12881146444A1288184619F0C2FD54
:1017C8000346FB81BB893F4A128811463E4A12886C
:1017D800184619F0B7FD0346BB817B893B4A12883E
:1017E80011463B4A1288184619F0ACFD03467B8126
:1017F8003B681B8C03F00103002B14D1B7F90E30A2
:10180800184619F0B7FD0346FB81B7F90C301846A6
:1018180019F0B0FD0346BB81B7F90A30184619F034
:10182800A9FD03467B813B68FA895A803B68BA89DF
:101838009A803B687A89DA803B689B7D1E2B02D9A7
:101848003B681E229A753B689B7E1E2B02D93B681B
:101858001E229A763B680A333C681946786800F07D
:1018680091FD03461A46A272C3F30722E272C3F33C
:1018780007422273C3F3076363733B680E333C6804
:101888001946786800F07EFD03461A46A273C3F332
:101898000722E273C3F307422274C3F30763637436
:1018A8003B6893F82230FF220A21184619F04AFDB6
:1018B8000346DAB23B6883F8222000BF1437BD46DE
:1018C80090BD00BF084E03080C4E03080E4E0308D7
:1018D800104E030880B582B000AF78607B6808338B
:1018E8001846FFF769FD7B6818460837BD4680BD76
:1018F80080B588B000AF786039607B6803F58A539B
:101908001033396818460EF090FC0346BB83B7F9CC
:101918001C30002B01DA00237FE00123FB777B6872
:1019280003F58A531033BA8B114618460EF063FC40
:101938000346FB767B6803F58653163339681846E9
:1019480001F060FF0346BB76FB7EFF2B0AD17B6864
:1019580003F586531633BA7E1146184601F0EAFE9F
:1019680000235AE007F108031846FFF7B3FF786829
:10197800FA7E07F1080100230BF073FB0346002BE6
:1019880014BF01230023DBB2002B0BD07B6803F5C7
:1019980086531633BA7E1146184601F0CBFE002353
:1019A800FB7739E007F1080308331846FFF764FDB1
:1019B800034683F00103DBB2002B09D07B6803F5F3
:1019C80086531633BA7E1146184601F0B3FE23E05B
:1019D8007B6803F58653163307F10802114618464B
:1019E80001F034FF034683F00103DBB2002B09D07A
:1019F8007B6803F586531633BA7E1146184601F004
:101A080099FE09E07B6803F586531633BA7E07F121
:101A18000801184601F044FCFB7F18462037BD46F4
:101A280080BD80B584B000AF786039607B6803F50D
:101A3800865316333968184601F0E4FE0346FB73F3
:101A480039687868FFF754FF0346002B17D0FB7BF3
:101A5800002B07D17B6803F580533A687033106810
:101A6800186009E0FB7B012B06D17B6803F58053E6
:101A78003A68743310681860786800F0B1F900BFEC
:101A88001037BD4680BD80B584B000AF78600B4686
:101A9800FB70FB781946786800F01CF8024607F1DD
:101AA8000803106818607B6803F58A53103307F140
:101AB8000802114618460EF0B8FB0346FB81B7F939
:101AC8000E30002B01DA0023FB81FB891846103702
:101AD800BD4680BD80B582B000AF78600B46FB7014
:101AE800FB78022B09D17B6803F58A531033002158
:101AF80018460EF066FB03460BE0FB78002B04D17A
:101B08007B6803F58353103303E07B6803F5835345
:101B1800143318460837BD4680BD80B586B000AF7F
:101B2800F860084611461A4603467B810B463B81FE
:101B38001346FB71FB6803F586501630FB79B7F93D
:101B48000820798901F0A2FC0346FB82FB6803F5B3
:101B5800825308331846FFF7C1FC034683F001039C
:101B6800DBB2002B06D0B7F91630184619F002FC84
:101B78000346FB82FB8A18461837BD4680BD000025
:101B88002DE9F0418EB002AFF860084611461A46BA
:101B980003467B810B463B811346FB71B7F908402E
:101BA800FB6803F586531633FA791146184601F097
:101BB800C5FB0346E31ABB61FB6803F5865316337E
:101BC800FA790021184601F043FC03461A46BB691E
:101BD8009BB21344FB85FB6803F586531633FA79E9
:101BE8000321184601F034FC03461A46BB699BB230
:101BF8001344BB85FB6803F582530833F979012246
:101C0800184600F077FD03467B85FB6803F5825391
:101C18000833F9790122184600F0B2FD03463B85E6
:101C280097F84830002B01D064237B85FB6803F5C7
:101C3800825308331846FFF751FC034683F001032B
:101C4800DBB2002B1BD0B7F92E30184619F092FBE7
:101C58000346FB85B7F92C30184619F08BFB034671
:101C6800BB85B7F92A30184619F084FB03467B85F3
:101C7800B7F92830184619F07DFB03463B857B8968
:101C8800798D3A8D184619F05DFB03467B81002358
:101C9800FB84474B1B88BB847C89FD8DBE8DFB680C
:101CA80003F586531633FA790021184601F062FBD2
:101CB80003469846FB6803F586531633FA790321E1
:101CC800184601F057FB034600934346324629461F
:101CD800204619F0ABFA03467B847A8CF98CBB8CCE
:101CE8000B44D90F0B445B109A420CDDBA8CFB8C69
:101CF800D31A002B00DA03339B105B429AB27B8C19
:101D080013447B840AE0BA8CFB8CD31A002B00DACC
:101D180003339B109AB27B8C13447B84002387F88F
:101D280021303AE0FB79B7F90820798CF868FFF799
:101D3800F4FE0346FB82FA8A7B899A4201D17B8CA6
:101D480030E0FA8A7B899A4210D27B8CFB84FA8C29
:101D5800BB8C1344DA0F13445B10FB83FA8B7B8C28
:101D68009A4213D17B8C0133FB830FE07B8CBB84BD
:101D7800FA8CBB8C1344DA0F13445B10FB83FA8B89
:101D88007B8C9A4202D17B8C013BFB83FB8B7B844F
:101D980097F82130013387F8213097F82130132B39
:101DA800C0D97B8C18463037BD46BDE8F08100BFEE
:101DB800044E030880B586B000AFF860B9601346DA
:101DC800FB71FB791946B868FFF784FE7861FB68F8
:101DD800796918460DF05EFFF8681837BD4680BD72
:101DE80080B582B000AF78607B6803F58253083312
:101DF800184600F035FE0346002B10D17A687B6840
:101E080003F583530633194610460BF037F87B6801
:101E180003F582530833184601F0C2F900E000BF09
:101E28000837BD4680BD80B584B000AFF860B960A2
:101E38001346FB71FB79002B18D1BB681B689AB25B
:101E4800FB6803F58053A3F85420BB685B689AB21B
:101E5800FB6803F58053A3F85620BB689B689AB2C9
:101E6800FB6803F58053A3F8582033E0FB79022B75
:101E780018D1BB681B689AB2FB6803F58053A3F8B6
:101E88006020BB685B689AB2FB6803F58053A3F8CF
:101E98006220BB689B689AB2FB6803F58053A3F87D
:101EA800642017E0BB681B689AB2FB6803F580538F
:101EB800A3F85A20BB685B689AB2FB6803F58053A5
:101EC800A3F85C20BB689B689AB2FB6803F5805353
:101ED800A3F85E20FA68FB6803F5825312331946AB
:101EE80010460BF075F800BF1037BD4680BD80B5B1
:101EF8008AB000AFF8607A601A460B46FB72134648
:101F0800BB7207F114031846FFF7E4FC7B681B88D3
:101F1800BB827B685B88FB827B689B883B837B6892
:101F2800DB887B8397F8303087F82030FB7A1946B6
:101F3800F868FFF7CFFD024607F11C031068186028
:101F4800FB6803F58653163307F114021146184649
:101F580001F07CFC0346002B24D0BA7A07F1140365
:101F68000833114618460DF04DFFFB6807F11401C0
:101F7800002218460BF019F90346FB84B7F92630FE
:101F8800002B0FDBFB6803F58A531033FA8CD0B2B1
:101F980007F1140202F10801024618460EF0DCF8B7
:101FA800012306E007F1140308331846FFF742FA45
:101FB800002318462837BD4680BD80B584B000AFE1
:101FC80078600B46FB70FB7819467868FFF782FD4E
:101FD800F860F868FFF750FA034618461037BD4610
:101FE80080BD80B588B000AF78600B467B807B6889
:101FF80003F58A5310331846FFF765FA0346012B99
:1020080094BF01230023DBB2002B01D0002390E012
:102018000023FB7707F10C031846FFF75BFC7B688E
:1020280003F58A5310337A88114618460EF0E3F800
:102038000346BB83B7F91C30FF2B2CD17B6803F513
:102048008A5310337A88114618460EF0BAF80246B9
:1020580007F108031068186007F1080318460DF027
:10206800C5FD034683F00103DBB2002B3BD007F12B
:1020780008031846FFF7AEF9BB687B617B6803F578
:102088008653163307F10C021146184601F088FBF7
:102098000123FB7727E07868BB8BDAB207F10C01E4
:1020A80001230AF0DEFF0346002B0CBF01230023A7
:1020B800DBB2002B17D007F10C0308331846FFF7E3
:1020C800C9F90346002B06D007F10C03083318465C
:1020D800FFF7A0F905E007F10C0308331846FFF7EE
:1020E80079F90123FB77FB7F83F00103DBB2002B37
:1020F80001D000231DE07B6807F10C01012218467E
:102108000BF053F80346BB83B7F91C30002B0FDBE9
:102118007B6803F58A531033BA8BD0B207F10C02EF
:1021280002F10801024618460EF016F8012300E0F5
:10213800002318462037BD4680BD90B589B000AF52
:10214800F8607A601A460B46FB721346BB72FB684E
:1021580003F58A5310331846FFF7B5F90346002BE9
:102168000CBF01230023DBB2002B17D00023FB7721
:102178000EE0FA7F13465B0013445B001A467B6847
:10218800134402331846FFF786F9FB7F0133FB77C8
:10219800FA7FBB7A9A42ECD30023EEE0FB7A9BB23B
:1021A800013B9BB2BB830323FB762AE097F83030D0
:1021B80083F00103DBB2002B0FD1FB6803F58A53D0
:1021C8001033BA8B114618460DF0FBFF034618462C
:1021D800FFF740F90346002B01D0012300E000235C
:1021E800002B0AD0FB7E013BFB76FB7E002B0CBF4D
:1021F80001230023DBB2002B08D1BB8B013B9BB230
:10220800BB83B7F91C30002BD0DC00E000BF0023F3
:10221800BB76B7F91C30002B80F284800023BB8387
:1022280080E0B7F91C30002B71D0FB6803F58A53A6
:102238001033BA8B114618460DF0C3FF024607F15A
:1022480014031068186097F83030002B0CD007F191
:1022580014031846FFF7FEF8034683F00103DBB2C8
:10226800002B01D0012300E00023002B51D197F867
:102278003430002B11D0FB6803F58653163307F171
:1022880014021146184601F0BDFA03461A4697F89B
:102298003830934201D0012300E00023002B3AD1CB
:1022A80097F8343083F00103DBB2002B0DD097F898
:1022B8003830002B09D107F1140318460DF0C4FD7E
:1022C8000346002B01D1012300E00023002B24D179
:1022D800BA7E13465B0013445B001A467B681344BE
:1022E800BA8B1A80BA7E13465B0013445B001A4609
:1022F8007B681344023307F1140210681860BB7E30
:102308000133BB76BA7EBB7A9A421ED206E000BF82
:1023180004E000BF02E000BF00E000BFBB8B013358
:102328009BB2BB83B7F91C40FB6803F58A53103393
:102338001846FFF7C8F803469C42B4BF01230023A0
:10234800DBB2002B7FF46DAF00E000BFBB7E7B7675
:102358000EE07A7E13465B0013445B001A467B68E6
:10236800134402331846FFF796F87B7E01337B76D9
:102378007A7EBB7A9A42ECD3BB7E18462437BD4698
:1023880090BD000090B58BB000AF786039607B6875
:1023980003F58A531033396818460DF046FF034693
:1023A800FB8338680DF050FD03467B777B6803F5A7
:1023B8008A531033FA8B114618460DF002FF024675
:1023C80007F1140310681860B7F91E30002B6BDA98
:1023D8004FF6FF73FB840023BB842CE07B6803F576
:1023E8008A531033BA8C114618460DF0EAFE02469D
:1023F80007F110031068186007F1100318460DF074
:1024080023FD03461A467B7F93420CBF012300231A
:10241800DBB2002B0CD0BB8CFB8407F110031846F1
:10242800FFF718F80346002B02D03B69BB6123E194
:10243800BB8C0133BB847B6803F58A531033184681
:10244800FFF741F803461A46BB8C934234BF012379
:102458000023DBB2002BC1D17B6803F58A5310330C
:10246800FA8C114618460DF0ACFE024607F114032B
:102478001068186007F1140318460DF0B7FB0346FF
:10248800002B0ED0854B1C68844B1B681846FDF743
:10249800C7FE0346DBB2797F07F1140022460DF030
:1024A80005FB7B69BB61E7E0B7F91E30002B0DD156
:1024B8007B6803F58A531033002118460DF081FE1E
:1024C800024607F1180310681860D5E007F11403F5
:1024D8001846FEF7BFFF0346002B02D07B69BB619D
:1024E800CAE0FB8B013B7B8418E07B6803F58A53C9
:1024F80010337A8C114618460DF063FE024607F138
:102508000C031068186007F10C031846FEF7A2FFC9
:102518000346002B06D17B8C013B7B847B8C002BF4
:10252800E3D100E000BFFB8B01333B8418E07B68FC
:1025380003F58A5310333A8C114618460DF041FEC4
:10254800024607F108031068186007F108031846E7
:10255800FEF780FF0346002B14D13B8C01333B84EC
:102568007B6803F58A5310331846FEF7ACFF034621
:102578001A463B8C934234BF01230023DBB2002B65
:10258800D5D100E000BF7B8C002B0DD17B6803F513
:102598008A5310331846FEF796FF03461A463B8CBB
:1025A800934201D3012300E00023002B02D07B6972
:1025B800BB6161E07B8C002B0ED17B6803F58A53ED
:1025C80010333A8C114618460DF0FBFD024607F110
:1025D8001403106818604DE07B6803F58A531033C4
:1025E8001846FEF770FF03461A463B8C93422CBFF1
:1025F80001230023DBB2002B0ED07B6803F58A533E
:1026080010337A8C114618460DF0DBFD024607F1AF
:102618001403106818602DE0B7F91E207B8CD31ABC
:1026280083EAE372A2EBE372398CB7F91E30CB1A56
:10263800002BB8BF5B429A420EDA7B6803F58A53D7
:1026480010337A8C114618460DF0BBFD024607F18F
:102658001403106818600DE07B6803F58A53103383
:102668003A8C114618460DF0ACFD024607F11403EA
:10267800106818607B69BB6100233A7E62F3070328
:102688007A7E62F30F23BA7E62F31743FA7E62F30F
:102698001F6318462C37BD4690BD00BF4800002078
:1026A80080B586B000AFF860B96011461A460B468F
:1026B800FB711346BB71FB6803F586501630BB7976
:1026C80097F90720B96800F073FEBB791946F868D6
:1026D800FFF700FA78617869FEF77CFE97F82030FA
:1026E800002B02D07869FEF785FE00BF1837BD467B
:1026F80080BD000080B584B000AF78600B46FB70E9
:102708001346BB70FB78022B02D11A4B1B8801E0E1
:10271800194B1B88FB81BB7883F00103DBB2002BCC
:102728000AD07868FEF7DAFE034683F00103DBB2CD
:10273800002B01D0012300E00023002B14D0B7F9AF
:102748000E30184618F016FE0346FB81FA890B4B2B
:10275800A3FB0213D9080B469B000B445B00D31A5A
:102768009BB2FA89D31AFB81FB8918461037BD46FC
:1027780080BD00BF0E4E0308084E0308CDCCCCCC5C
:1027880090B583B000AF78600B46FB701346BB7002
:10279800BB78002B05D17868FEF7A0FE0346002B16
:1027A80001D0012400E000247868FEF7A9FE034662
:1027B800F9782246786800F005F8034618460C3781
:1027C800BD4690BD80B584B000AF7860084611461C
:1027D8001A460346FB700B46BB7013467B70174BBB
:1027E8001B88FB817B78002B03D0154B1B88FB8152
:1027F80002E0144B1B88FB81BB7883F00103DBB23A
:10280800002B16D0B7F90E30184618F0B3FD034662
:10281800FB81FA890C4BA3FB0213D9080B469B00DA
:102828000B445B00D31A9BB2FA89D31A9BB20A33C2
:10283800FB81FB8918461037BD4680BD104E030842
:102848000A4E03080C4E0308CDCCCCCC90B589B009
:1028580000AF786007F108031846FFF73BF800233C
:10286800FB770023BB833EE07868BB8BDAB207F1C5
:10287800080101230AF0F5FB0346FB76FB7E002BDB
:102888002AD17B6803F58653163307F108021146EF
:10289800184600F0DBFF034683F00103DBB2002B90
:1028A80005D007F1080308331846FEF7C3FD7B6817
:1028B80003F58A531033BA8BD0B207F1080202F13C
:1028C8000801024618460DF047FC0346002B06D0C7
:1028D800FB7F0133FB7702E0FB7E012B15D0BB8B1E
:1028E80001339BB2BB83B7F91C407B6803F58A535D
:1028F80010331846FEF7E7FD03469C42B4BF012398
:102908000023DBB2002BAFD100E000BF7B68184684
:102918000AF0A8F9FB7F18462437BD4690BD000091
:1029280090B58BB000AF78600023FB84002387F854
:10293800233007F10C031846FEF73EFD0EE097F82A
:10294800232007F1100107F10C0318460DF0EFF8EA
:102958000346002B02D0FB8C0133FB847B6807F114
:102968001001102218460AF041FD034687F823306B
:1029780097F82330002B14BF01230023DBB2002B70
:10298800DDD17B6818460AF0D1FDFB8C0133FB844E
:102998007B6803F58A531033FA8C114618460DF0FC
:1029A80095FB0346002B54D02C4B1C682B4B1B6803
:1029B8001846FDF735FC0346DBB207F10C0022464A
:1029C80005210DF073F87B6803F58A53103307F17E
:1029D8000C02002118460DF098FB0123BB842CE063
:1029E8007B6807F11001102218460AF0FFFC034625
:1029F80087F8233097F82330002B23D097F823202B
:102A080007F1100107F10C0318460DF090F8034682
:102A1800002B12D07B6803F58A53103307F10C02A0
:102A2800B98C18460DF071FB034683F00103DBB245
:102A3800002B09D1BB8C0133BB84BA8CFB8C9A4226
:102A4800CED302E000BF00E000BF7B6818460AF062
:102A58006DFDFB8C18462C37BD4690BD4C00002000
:102A680080B582B000AF78607B681A8C7B68B3F859
:102A780058309A4201D00023ABE07B685A8C7B68BF
:102A8800B3F85A309A4201D00023A2E07B689A8CAE
:102A98007B68B3F85C309A4201D0002399E07B68E8
:102AA800DA8C7B68B3F85E309A4201D0002390E05C
:102AB8007B681A8E7B68B3F868309A4201D000238D
:102AC80087E07B6893F832207B6893F86A309A42F3
:102AD80001D000237DE07B6893F834207B6893F86D
:102AE8006C309A4201D0002373E07B68DA8E7B68F1
:102AF800B3F86E309A4201D000236AE07B6893F8FD
:102B080038207B6893F870309A4201D0002360E047
:102B18007B68DA8F7B68B3F876309A4201D000235D
:102B280057E07B6893F833207B6893F86B309A42C0
:102B380001D000234DE07B6893F840207B6893F830
:102B480078309A4201D0002343E07B685A8F7B6833
:102B5800B3F872309A4201D000233AE07B6893F8C8
:102B68003C207B6893F874309A4201D0002330E00F
:102B78007B6803F128027B686033194610460DF024
:102B880059F8034683F00103DBB2002B01D0002380
:102B98001FE07B6803F12C027B68643319461046FA
:102BA8000DF048F8034683F00103DBB2002B01D097
:102BB80000230EE07B6803F142007B687A3314221D
:102BC800194630F087F90346002B01D0002300E0B6
:102BD800012318460837BD4680BD0000B0B582B055
:102BE80000AF78607B68EB221A847B68EB225A84FA
:102BF8007B68C8229A847B684FF49662DA847B6883
:102C0800052283F834207B68B4221A867B68052263
:102C180083F832207B68B422DA867B68052283F841
:102C280038207B68B322DA877B68502283F8332008
:102C38007B68802283F840207B68012283F841204A
:102C48007B68002283F83C207B68B4225A877B6823
:102C5800423314221449184630F04EF97B6803F1C8
:102C68002804124B1D68114B1B681846FDF7D8FA4B
:102C78000346DBB22A46012120460CF017FF7B6889
:102C880003F12C04094B1D68084B1B681846FDF717
:102C9800C7FA0346DBB22A46032120460CF006FF9A
:102CA80000BF0837BD46B0BD204E030848000020CD
:102CB80080B483B000AF78607B6840F6FC029A81EC
:102CC8007B683222DA817B6840F2DF221A827B68D5
:102CD80040F2C7525A827B683B229A827B6840F254
:102CE800FB12DA827B68C8221A837B6840225A83E7
:102CF8007B68C3229A8300BF0C37BD4680BC7047EF
:102D080080B584B000AFF860B9601346FB71FB79F9
:102D1800002B07D1C8230A2240F23F21F86817F098
:102D280099F811E0FB79022B06D132234022962133
:102D3800F86817F08FF807E040F2A46303224FF415
:102D4800FA71F86817F086F8F8681037BD4680BD44
:102D580080B483B000AF78600B46FB70FB78012B22
:102D680003D17B6893F8383009E0FB78002B03D156
:102D78007B6893F8343002E07B6893F83C3018465F
:102D88000C37BD4680BC704780B483B000AF786014
:102D98000B46FB70FB78012B02D17B68DB8E07E0CA
:102DA800FB78002B02D17B681B8E01E07B685B8F70
:102DB80018460C37BD4680BC704780B483B000AF5E
:102DC80078600B46FB70FB78022B02D17B689B8CEA
:102DD80007E0FB78012B02D17B685B8C01E07B6804
:102DE8001B8C18460C37BD4680BC704780B582B036
:102DF80000AF78607B6893F84230002B06D17B687F
:102E0800423314220449184630F076F87B6842337E
:102E180018460837BD4680BD204E030880B584B0EB
:102E280000AF7860084611461A460346FB700B4609
:102E3800BB7013467B707B68DB8F03F00103002BAC
:102E480014BF01230023FB73FA7BBB789A423FD05F
:102E5800BB78002B1ED07B681B8C1BB2184618F061
:102E6800A3FA03469AB27B681A847B685B8C1BB210
:102E7800184618F099FA03469AB27B685A847B6818
:102E88009B8C1BB2184618F08FFA03469AB27B68DF
:102E98009A841DE07B681B8C1BB2184618F06AFAEE
:102EA80003469AB27B681A847B685B8C1BB218460F
:102EB80018F060FA03469AB27B685A847B689B8C48
:102EC8001BB2184618F056FA03469AB27B689A84E1
:102ED8007B68DB8F03F00C039AB27B68DA87BB78D8
:102EE800002B06D07B68DB8F43F001039AB27B6826
:102EF800DA87FB78002B06D07B68DB8F43F0020370
:102F08009AB27B68DA877B78002B06D07B68DB8FE8
:102F180043F080039AB27B68DA873B7E002B06D0A9
:102F28007B68DB8F43F010039AB27B68DA873B7FBC
:102F3800002B06D07B68DB8F43F020039AB27B68B6
:102F4800DA8797F82030002B06D07B68DB8F43F4B4
:102F580080739AB27B68DA8797F82430002B06D002
:102F68007B68DB8F43F400739AB27B68DA8797F843
:102F7800283064220121184618F0E4F90346DAB231
:102F88007B6883F8402097F82430002B16D0002265
:102F980000217868FFF7F4FB0346BB817B681B8C34
:102FA800BA899A4202D27B68BA891A847B685B8C98
:102FB800BA899A4202D27B68BA895A8400BF10370C
:102FC800BD4680BD80B483B000AF78600846114626
:102FD8001A460346FB700B46BB7013467B707B6832
:102FE8007A7883F834207B683A8A1A867B683A7D37
:102FF80083F832207B68DB8F23F00C039AB27B685E
:10300800DA87FB78002B06D07B68DB8F43F004035C
:103018009AB27B68DA87BB78002B06D07B68DB8F97
:1030280043F008039AB27B68DA873B7E4B2B01D9C1
:103038004B233B76BB8BB3F5A07F02D94FF4A0732B
:10304800BB83BB8B042B01D80523BB833B7E043396
:103058003B763B7E174AA2FB03239B083B763B7ECD
:103068001B01DAB27B6883F833207B6893F833302E
:1030780023F00F03DAB27B6883F833207B6893F878
:1030880033305AB2BB8B013B0B4981FB0301C9109A
:10309800DB17CB1A5BB203F00F035BB213435BB2CF
:1030A800DAB27B6883F8332000BF0C37BD4680BC9A
:1030B800704700BFCDCCCCCC6766666680B582B061
:1030C80000AF78600B46FB7013463B807B683A88FC
:1030D800DA86FB781E220021184618F033F90346D9
:1030E800DAB27B6883F8382000BF0837BD4680BD58
:1030F80080B483B000AF7860084611461A4603468C
:10310800FB700B46BB7013463B80FB78002B07D047
:103118007B68DB8F43F040039AB27B68DA8706E06E
:103128007B68DB8F23F040039AB27B68DA877B6881
:10313800BA7883F83C207B683A885A8700BF0C37F6
:10314800BD4680BC704780B483B000AF78600B4642
:103158007B8013467B707B78002B03D17B687A8851
:103168001A8405E07B78012B02D17B687A885A841F
:1031780000BF0C37BD4680BC704780B483B000AF39
:1031880078600B467B8013463B807B687A889A84FC
:103198007B683A88DA8400BF0C37BD4680BC70472C
:1031A80080B582B000AF78607B6803F156007B6819
:1031B8001E33382219462FF049FF00BF0837BD4695
:1031C80080BD80B582B000AF78607B6803F11E00D7
:1031D8007B685633382219462FF038FF00BF08376E
:1031E800BD4680BD80B485B000AF78607B6893F839
:1031F80033301B09FB73FB7B1A4692001344DBB286
:1032080018461437BD4680BC704780B485B000AFFF
:1032180078607B6893F8333003F00F03FB81FB89F8
:1032280001339BB21A46920013449B009BB2184686
:103238001437BD4680BC704780B584B000AFF860D5
:10324800B9601346FB71FB79002B0BD1BB689B89D6
:103258001946BB68DB891A46BB681B8AF86816F0F2
:10326800F9FD19E0FB79022B0BD1BB681B8B1946C2
:10327800BB685B8B1A46BB689B8BF86816F0EAFD47
:103288000AE0BB685B8A1946BB689B8A1A46BB681A
:10329800DB8AF86816F0DEFDF8681037BD4680BD99
:1032A80080B487B000AFF860B9601346FB71FB7952
:1032B800FB75FB7D022B3CD8FA7DBB681888F96842
:1032C80013469B0013445B000B4402461A80FA7DA8
:1032D800BB685888F96813469B0013445B000B448D
:1032E800023302461A80FA7DBB689888F96813464B
:1032F8009B0013445B000B44043302461A80FA7D9A
:10330800BB68D888F96813469B0013445B000B44DC
:10331800063302461A80FA7DBB6893F90C00F968F7
:1033280013469B0013445B000B44083302461A7093
:1033380000E000BF1C37BD4680BC704780B485B034
:1033480000AF78600B46FB70FB78FB73FB7B022BAE
:1033580001D90023FB73FA7B796813469B00134459
:103368005B000B44083393F9003018461437BD4608
:1033780080BC704780B485B000AF78600B46FB70A6
:103388001346BB70FB78032B01D900230AE0BB78F6
:10339800FB73FA7BF878796813469B00134403445F
:1033A80031F8133018461437BD4680BC704700000A
:1033B80090B486B000AFF860B96011461A460B4663
:1033C800FB711346BB71BB79BB750023FB7511E01C
:1033D800FB7D5B00BA681344BA7DF87D1C88F968E8
:1033E80013469B0013440344224621F81320FB7D17
:1033F8000133FB75FB7D032BEAD9BA7DF9681346C7
:103408009B0013445B000B4406331A880F4B1B8840
:103418009A420BD9BA7D0D4B1888F96813469B0060
:1034280013445B000B44063302461A80BA7DF968E0
:1034380013469B0013445B000B440833FA791A7057
:1034480000BF1837BD4690BC704700BF044E030844
:1034580080B483B000AF78600B46FB701346BB7036
:10346800BB78022B06D1FB787A6810335B001344D3
:10347800DB8805E0FB787A680C335B001344DB8853
:1034880018460C37BD4680BC704700002DE9F04156
:1034980088B002AFF860084611461A4603467B8199
:1034A8000B463B811346FB71FB793B750023FB827E
:1034B8003B7D022B01D900230EE1B7F908103A7DB4
:1034C800F86813469B0013445B000344083393F9E0
:1034D8000030CB1A3B613A7DF96813469B001344D0
:1034E8005B000B441B887A899A421FD27C893A7DFB
:1034F800F96813469B0013445B000B441B881E4667
:10350800B7F90850FB791A460021F868FFF7A0FFC1
:1035180003461A463B69134400932B463246002162
:10352800204617F0ADFE0346FB82C9E03A7DF968F4
:1035380013469B0013445B000B4406331B887A89AF
:103548009A424BD801237B7544E03A7D787DF9682F
:1035580013469B001344034431F813307A899A4286
:1035680035D27C893A7D7B7D581EF96813469B00CD
:103578001344034431F813301E463A7D787DF968C8
:1035880013469B001344034431F8133098467B7D5F
:10359800013BDBB2FA791946F868FFF759FF034691
:1035A8001A463B69D518FA797B7D1946F868FFF702
:1035B8004FFF03461A463B69134400932B46424685
:1035C8003146204617F05CFE0346FB8278E07B7D9F
:1035D80001337B757B7D032BB7D971E03A7DF968A0
:1035E80013469B0013445B000B44023319883A7D51
:1035F800F86813469B0013445B00034406331B889A
:10360800994232D27C893A7DF96813469B0013446B
:103618005B000B4402331B881E463A7DF96813464B
:103628009B0013445B000B4406331B889846FB79C8
:103638001A460121F868FFF70BFF03461A463B6953
:10364800D518FB791A460321F868FFF701FF0346EE
:103658001A463B69134400932B464246314620469E
:1036680017F0E4FD0346FB822AE07C893A7DF9687D
:1036780013469B0013445B000B4402331B881E4611
:10368800184B1B889846FB791A460121F868FFF702
:10369800DFFE03461A463B69D518FB791A46032113
:1036A800F868FFF7D5FE03461A463B6913440093B2
:1036B8002B4642463146204617F0B8FD0346FB82AA
:1036C800B7F91630B7F9081040F2E732184617F084
:1036D80039FE0346FB82FB8A18461837BD46BDE80B
:1036E800F08100BF044E030890B486B000AFF860C4
:1036F800B9601346FB71FB79BB750023FB7510E0BD
:10370800BA7DFC7DFB7D5B00B9681944F8681346F7
:103718009B001344234430F813300B80FB7D0133A6
:10372800FB75FB7D032BEBD900BF00BF1837BD46E7
:1037380090BC704790B484B000AF78600B46FB70C3
:10374800FB78BB730023FB7312E0FB7BBA7BF87B2F
:10375800796814335B000B44DC88796813469B0056
:1037680013440344224621F81320FB7B0133FB73E7
:10377800FB7B032BE9D9094B1B78BA7B58B27968D4
:1037880013469B0013445B000B44083302461A702F
:1037980000BF1037BD4690BC704700BF124E0308EB
:1037A80080B485B000AF786039600023FB73FB7B81
:1037B8005A1CFA737A6814335B001344DA883B683E
:1037C8001A80FB7B5A1CFA737A6814335B00134423
:1037D800DA883B685A80FB7B5A1CFA737A68143380
:1037E8005B001344DA883B689A80FB7B7A68143361
:1037F8005B001344DA883B68DA8000BF1437BD46A3
:1038080080BC704780B584B000AF78603960386894
:103818000CF01AFB0346FB73FB7B052B0AD0052B28
:103828000EDC022B02DC002B08DA09E0033B012B3B
:1038380006D801E0022305E0012303E0002301E0AC
:1038480000BF032318461037BD4680BD80B483B03F
:1038580000AF786039603B681A883B685B889A4299
:1038680009D23B685B881A463B681B88D31A7A687A
:10387800D28E934201DA002324E03B685A883B68E1
:103888009B889A4209D23B689B881A463B685B88AA
:10389800D31A7A68D28E934201DA002312E03B6889
:1038A8009A883B68DB889A4209D23B68DB881A46CB
:1038B8003B689B88D31A7A68D28E934201DA002338
:1038C80000E0012318460C37BD4680BC704780B421
:1038D80083B000AF78600B46FB707B6808221A70D3
:1038E8007B6800225A607B68FA781A707B6800222D
:1038F8005A607B6818460C37BD4680BC704780B458
:1039080083B000AF78600B46FB707B68FA781A705A
:103918007B6800225A6000BF0C37BD4680BC7047E8
:1039280080B483B000AF786039607B681B78DBB205
:103938001A463B6802FB03F31A467B685A6000BFCD
:103948000C37BD4680BC704780B483B000AF786048
:103958000B46FB707B68002283F842207B680022BC
:1039680083F840207B68FA7883F841207B68184602
:103978000C37BD4680BC704780B582B000AF786018
:103988000B46FB707B68FA7811461846FFF79FFFD5
:103998007B6800221A727B6800225A727B684FF497
:1039A800C8725A817B684FF4FA729A817B6818460C
:1039B8000837BD4680BD80B483B000AF78607B68AF
:1039C80014221A607B6800229A807B680022DA80C1
:1039D8007B6800229A607B680A22DA607B680A2288
:1039E8001A617B6800225A617B680A229A617B68A7
:1039F8000522DA617B680B221A847B68012283F82E
:103A080022207B6818460C37BD4680BC70470000F2
:103A180080B582B000AF78607B68234A127811467F
:103A28001846FFF791FF7B6844331F4A1278114606
:103A38001846FFF789FF7B6888331B4A12781146BE
:103A48001846FFF781FF7B680022A3F8CC207B682B
:103A58000022A3F8CE207B680022A3F8D0207B6840
:103A68000022A3F8D2207B68002283F8D4207B6848
:103A78000022C3F8D8207B68002283F8DC207B680A
:103A8800002283F8DD207B680022A3F8DE207B6813
:103A98000022A3F8E0207B680022A3F8E2207B68DC
:103AA80018460837BD4680BD064E030880B582B06B
:103AB80000AF78607B6804331846FFF77CFF7B68AB
:103AC80028331846FFF7A4FF0E4A7B681A607B6804
:103AD80003F5867308211846FFF74EFF7B6803F548
:103AE8008E7308211846FFF747FF7B6803F5967326
:103AF80008211846FFF740FF7B6818460837BD467F
:103B080080BD00BFEC40030880B483B000AF78608C
:103B1800044A7B681A607B6818460C37BD4680BC2F
:103B2800704700BFEC40030880B582B000AF7860F2
:103B38007868FFF7E9FF4FF49E7178682EF094FAE1
:103B48007B6818460837BD4680BD80B582B000AF97
:103B580078600B467B807B6803F586737A8811460C
:103B6800184616F0A9FE00BF0837BD4680BD80B5CF
:103B780082B000AF78600B46FB707B6803F58E72ED
:103B8800FB78002B01D0642300E00023194610467F
:103B980016F092FE00BF0837BD4680BD80B582B0E2
:103BA80000AF78600B46FB707B6803F59672FB7874
:103BB800002B01D0642300E000231946104616F0BC
:103BC8007BFE00BF0837BD4680BD80B582B000AF20
:103BD80078607B6800221A607B6800229A807B6884
:103BE80006331846FDF7E8FB7B6818460837BD46DC
:103BF80080BD000080B582B000AF78607B68184651
:103C0800FFF754FF474A7B681A607B680022A3F8D5
:103C18003C217B680022A3F83E217B680022A3F8A0
:103C280040217B680022A3F842217B68042283F8A4
:103C380044217B68002283F845217B680022A3F891
:103C480046217B68002283F848217B68002283F89C
:103C580049217B6803F5A67308211846FFF737FE4C
:103C68007B6803F5AA7308211846FFF730FE7B68C6
:103C780003F5AE7308211846FFF729FE7B6803F5A4
:103C8800B27308211846FFF722FE7B6803F5B67366
:103C980008211846FFF71BFE7B68002283F8742171
:103CA8007B68032283F875217B680022A3F87621BC
:103CB8007B684FF47A72A3F878217B68142283F822
:103CC8007A217B686422A3F87C217B68082283F828
:103CD8007E217B684FF4FA72A3F880217B684FF449
:103CE8007A72A3F882217B68032283F884217B6897
:103CF8000E2283F885217B68142283F886217B684D
:103D0800052283F887217B68022283F888217B6853
:103D180044F62062C3F88C217B6818460837BD46F4
:103D280080BD00BF204B030880B483B000AF78602B
:103D38000B46FB70FA787B68114683F849117B685B
:103D480083F8482100BF0C37BD4680BC704780B45B
:103D580083B000AF78607B6893F8753118460C37EC
:103D6800BD4680BC7047000080B582B000AF786067
:103D78007B681846FFF79AFE524A7B681A607B6890
:103D8800002283F83C217B68002283F83D217B6870
:103D9800002283F83E217B68012283F83F217B685B
:103DA800002283F840217B680022A3F842217B6827
:103DB8000022A3F844217B680022A3F846217B68EF
:103DC8000022C3F848217B6803F5A673082118462A
:103DD800FFF77DFD7B6803F5AA7308211846FFF7F6
:103DE80076FD7B6803F5AE7308211846FFF76FFD73
:103DF8007B6803F5B27308211846FFF768FD7B68F6
:103E080003F5B67308211846FFF761FD7B680022A9
:103E180083F874217B680022A3F876217B6800224E
:103E280083F878217B68462283F879217B686322AE
:103E380083F87A217B684FF42F72A3F87C217B6882
:103E480040F2CF72A3F87E217B684FF4C862A3F8D2
:103E580080217B687D22A3F882217B683222A3F827
:103E680084217B68184AC3F888217B684EF6602253
:103E7800C3F88C217B684FF4FA72A3F890217B6811
:103E88004FF47A72A3F892217B681E2283F894215A
:103E98007B683C2283F895217B680D2283F8962164
:103EA8007B680A2283F897217B680122C3F898214E
:103EB8007B68064AC3F89C217B6818460837BD46CC
:103EC80080BD00BFDC4A0308407E0500E093040083
:103ED80080B483B000AF78607B6800221A607B688A
:103EE80000221A607B6818460C37BD4680BC7047B4
:103EF80080B483B000AF78607B6800221A607B686A
:103F080018460C37BD4680BC704780B582B000AFFC
:103F180078607B6818462CF01DF97B6818460837CE
:103F2800BD4680BD80B582B000AF78607B68043341
:103F38001846FFF7EAFF044A7B681A607B68184650
:103F48000837BD4680BD00BFC440030880B483B0B5
:103F580000AF7860044A7B681A607B6818460C37A3
:103F6800BD4680BC704700BFC440030880B582B01E
:103F780000AF78607868FFF7E9FF502178682EF085
:103F880073F87B6818460837BD4680BD80B483B097
:103F980000AF786000BF0C37BD4680BC704780B565
:103FA80082B000AF78602BF0ABFA00BF0837BD468F
:103FB80080BD80B582B000AF78602BF0B1FA00BF49
:103FC8000837BD4680BD80B582B000AF78600B462B
:103FD800FB70FB7818462BF0B3FA00BF0837BD46D4
:103FE80080BD80B582B000AF78600B46FB70FB786F
:103FF80018462BF0BDFA00BF0837BD4680BD80B516
:1040080082B000AF78600B46FB70FB7818462BF047
:10401800C7FA00BF0837BD4680BD000080B582B032
:1040280000AF78607B681846FFF77CFF034A7B681F
:104038001A607B6818460837BD4680BD9C40030857
:1040480080B582B000AF7860054A7B681A607B68EB
:104058001846FFF77BFF7B6818460837BD4680BDCA
:104068009C40030880B582B000AF78607868FFF79D
:10407800E7FF502178682DF0F7FF7B68184608376E
:10408800BD4680BD80B582B000AF786029F0A2FC43
:1040980000BF0837BD4680BD80B483B000AF7860EC
:1040A8007B6800221A807B6800225A607B680022A5
:1040B8009A607B6800229A817B6800229A737B68E9
:1040C80018460C37BD4680BC704780B582B000AF3B
:1040D80078607B68043318462EF09DF87B68184694
:1040E8000837BD4680BD000090B583B000AF78604A
:1040F8007B6800221A707B681C1DC54B2360231D3A
:1041080018462EF05BF81C34C24B2360231D18465A
:104118002EF054F81C34C04B2360231D18462EF093
:104128004DF81C34BD4B2360231D18462EF046F86D
:104138001C34BB4B2360231D18462EF03FF81C345B
:10414800B84B2360231D18462EF038F81C34B64BA4
:104158002360231D18462EF031F81C34B34B23601E
:10416800231D18462EF02AF81C34B14B2360231D5A
:1041780018462EF023F81C34AE4B2360231D184636
:104188002EF01CF81C34AC4B2360231D18462EF06F
:1041980015F81C34A94B2360231D18462EF00EF881
:1041A8001C34A74B2360231D18462EF007F81C3437
:1041B800A44B2360231D18462EF000F81C34A24B94
:1041C8002360231D18462DF0F9FF1C349F4B2360F4
:1041D800231D18462DF0F2FF1C349D4B2360231D30
:1041E80018462DF0EBFF1C349A4B2360231D18460C
:1041F8002DF0E4FF1C34984B2360231D18462DF046
:10420800DDFF1C34954B2360231D18462DF0D6FF87
:104218001C34934B2360231D18462DF0CFFF1C340C
:10422800904B2360231D18462DF0C8FF1C348E4B7D
:104238002360231D18462DF0C1FF1C348B4B2360CF
:10424800231D18462DF0BAFF1C34894B2360231D0B
:1042580018462DF0B3FF1C34864B2360231D1846E7
:104268002DF0ACFF1C34844B2360231D18462DF021
:10427800A5FF1C34814B2360231D18462DF09EFF9B
:104288001C347F4B2360231D18462DF097FF1C34E8
:104298007C4B2360231D18462DF090FF1C347A4B6D
:1042A8002360231D18462DF089FF1C34774B2360AB
:1042B800231D18462DF082FF1C346B4B2360231DF1
:1042C80018462DF07BFF1C34714B2360231D1846C4
:1042D8002DF074FF1C346F4B2360231D18462DF0FE
:1042E8006DFF1C346C4B2360231D18462DF066FFB0
:1042F8001C34624B2360231D18462DF05FFF1C34CD
:104308005F4B2360231D18462DF058FF1C34564B75
:104318002360231D18462DF051FF1C345C4B23608D
:10432800231D18462DF04AFF1C345A4B2360231DC9
:1043380018462DF043FF1C343B4B2360231D1846C1
:104348002DF03CFF1C34554B2360231D18462DF0DF
:1043580035FF1C344B4B2360231D18462DF02EFFD0
:104368001C34474B2360231D18462DF027FF1C34AF
:104378003D4B2360231D18462DF020FF1C34484B6D
:104388002360231D18462DF019FF1C34414B236070
:10439800231D18462DF012FF1C34424B2360231DA9
:1043A80018462DF00BFF1C343F4B2360231D184685
:1043B8002DF004FF1C343D4B2360231D18462DF0BF
:1043C800FDFE1C343A4B2360231D18462DF0F6FEE3
:1043D8001C34184B2360231D18462DF0EFFE1C34A7
:1043E800344B2360231D18462DF0E8FE1C34324B55
:1043F8002360231D18462DF0E1FE1C342F4B23604B
:10440800231D18462DF0DAFE1C342D4B236059E08D
:1044180058370308643703087037030880370308E0
:10442800903703089C370308A8370308B8370308F0
:10443800C8370308D0370308D8370308E437030818
:10444800EC370308F4370308043803081438030862
:10445800203803082C380308383803084438030880
:104468005438030864380308703803087838030898
:1044780080380308903803089C380308A8380308D4
:10448800B4380308C4380308D4380308E0380308EC
:10449800EC380308FC3803080C3903081C390308F6
:1044A8002839030838390308443903085039030800
:1044B80058390308603903086C390308743903084C
:1044C8007C390308231D18462DF078FE1C34A94BAF
:1044D8002360231D18462DF071FE1C34A64B236063
:1044E800231D18462DF06AFE1C34A44B2360231D9F
:1044F80018462DF063FE1C34A14B2360231D18467B
:104508002DF05CFE1C349F4B2360231D18462DF0B4
:1045180055FE1C349C4B2360231D18462DF04EFE7F
:104528001C349A4B2360231D18462DF047FE1C347B
:10453800974B2360231D18462DF040FE1C34954BE5
:104548002360231D18462DF039FE1C34924B23603E
:10455800231D18462DF032FE1C34904B2360231D7A
:1045680018462DF02BFE1C348D4B2360231D184656
:104578002DF024FE1C348B4B2360231D18462DF090
:104588001DFE1C34884B2360231D18462DF016FE93
:104598001C34864B2360231D18462DF00FFE1C3457
:1045A800834B2360231D18462DF008FE1C34814BD5
:1045B8002360231D18462DF001FE1C347E4B23601A
:1045C800231D18462DF0FAFD1C347C4B2360231D57
:1045D80018462DF0F3FD1C34794B2360231D184633
:1045E8002DF0ECFD1C34774B2360231D18462DF06D
:1045F800E5FD1C34744B2360231D18462DF0DEFDA9
:104608001C34724B2360231D18462DF0D7FD1C3433
:104618006F4B2360231D18462DF0D0FD1C346D4BC5
:104628002360231D18462DF0C9FD1C346A4B2360F6
:10463800231D18462DF0C2FD1C34684B2360231D32
:1046480018462DF0BBFD1C34654B2360231D18460E
:104658002DF0B4FD1C34634B2360231D18462DF048
:10466800ADFD1C34604B2360231D18462DF0A6FDBC
:104678001C345E4B2360231D18462DF09FFD1C340F
:104688005B4B2360231D18462DF098FD1C34594BB5
:104698002360231D18462DF091FD1C34564B2360D2
:1046A800231D18462DF08AFD1C34544B2360231D0E
:1046B80018462DF083FD1C34514B2360231D1846EA
:1046C8002DF07CFD1C344F4B2360231D18462DF024
:1046D80075FD1C344C4B2360231D18462DF06EFDD0
:1046E8001C344A4B2360231D18462DF067FD1C34EB
:1046F800474B2360231D18462DF060FD1C34454BA5
:104708002360231D18462DF059FD1C34424B2360AD
:10471800231D18462DF052FD1C34404B2360231DE9
:1047280018462DF04BFD1C343D4B2360231D1846C5
:104738002DF044FD1C343B4B2360231D18462DF0FF
:104748003DFD04F11C03384A1A60043318462DF065
:1047580035FD7B68354A03F6483392E80300186054
:104768000433198002330A0C1A707B6818460C3718
:10477800BD4690BDFC380308843903089439030802
:10478800A4390308B0390308D0370308BC39030833
:10479800C0390308C4390308CC390308D4390308DD
:1047A800DC390308E4390308EC390308F439030851
:1047B800F8390308FC390308003A0308043A0308E7
:1047C8000C3A030860390308143A0308203A03082E
:1047D800343A0308483A0308583A0308643A030885
:1047E800743A03088C3A0308A43A0308AC3A03085D
:1047F800B83A0308C43A0308CC3A0308D03A030885
:10480800D43A0308E43A0308F03A0308003B0308E3
:10481800103B0308243B0308303B0308443B0308D0
:10482800483B03084C3B0308543B0308643B03081C
:1048380080B483B000AF78607B6800221A807B6800
:1048480018460C37BD4680BC704780B483B000AFB3
:1048580078600B46FB70FB789AB27B681A8000BFC1
:104868000C37BD4680BC704790B583B000AF786008
:104878007B680433002B0CD07B68043303F6443484
:104888007B6804339C4204D01C3C2046FFF71DFC87
:10489800F6E77B6818460C37BD4690BD80B582B0F8
:1048A80000AF78607B681846FFF7B8FB7B68503329
:1048B8001846FFF7BDFF7B6854331846FFF7ECFB3B
:1048C8007B6864331846FFF70FFC4A4A7B681A6016
:1048D8007B68494AC3F8B42B7B680022A3F8B82B3D
:1048E8007B684FF6FF72A3F8BA2B7B684FF4FC6223
:1048F800A3F8BC2B7B684FF47842A3F8BE2B7B68E7
:10490800FF22A3F8C02B7B684FF6E072A3F8C22BF6
:104918007B684CF21862A3F8C42B7B68002283F8EA
:10492800C62B7B6803F6C8331846FFF7D1FA7B68B5
:1049380003F6CC331846FFF7CBFA7B6803F53D63E3
:104948001846FFF7C5FA7B6803F6D4331846FFF715
:10495800BFFA7B6803F6D8331846FFF7B9FA7B68C5
:1049680003F6DC331846FFF7C3FA7B68FF2283F8A7
:10497800E02B7B689622A3F8E22B7B680022A3F841
:10498800E42B7B680022A3F8E62B7B680022A3F8BF
:10499800E82B7B680022A3F8EA2B7B68C822A3F8DF
:1049A800EC2B7B686E22A3F8EE2B7B685A22A3F8C7
:1049B800F02B7B683C22A3F8F22B7B685A22A3F8E1
:1049C800F42B7B682022A3F8F62B7B681922A3F826
:1049D800F82B7B68094AC3F8FC2B7B68064AC3F8A6
:1049E800002C7B68044AC3F8042C7B6818460837F7
:1049F800BD4680BD74400308F452030848490308C3
:104A080080B582B000AF78601A4A7B681A607B680C
:104A180003F6DC3318462BF022F97B6803F6D8330B
:104A2800184629F0A8F97B6803F6D433184629F00C
:104A3800A2F97B6803F53D63184629F09CF97B6869
:104A480003F6CC33184629F096F97B6803F6C83389
:104A5800184629F090F97B6864331846FFF704FF7D
:104A68007B681846FFF7ECFA7B6818460837BD469E
:104A780080BD00BF7440030880B582B000AF786085
:104A88007868FFF7BDFF40F6084178682DF0ECFA2A
:104A98007B6818460837BD4680BD000080B483B0E7
:104AA80000AF78607B6800221A707B6803F580533A
:104AB800002283F82C207B6803F580534FF4805242
:104AC800DA857B6803F580531A46134B13637B68BA
:104AD80003F580531A46114B53637B6803F58053E3
:104AE8001A460F4B93637B6803F580531A460D4BA8
:104AF800D3637B6803F580531A460B4B13647B68BA
:104B080003F580531A46094B53647B6818460C37E3
:104B1800BD4680BC704700BF6C3B0308783B030868
:104B2800843B0308903B03089C3B0308A43B030811
:104B3800B0B483B000AF78607B6801221A707B68DC
:104B480000225A607B68134A083392E8030083E81E
:104B580003007B68104A03F1100413460FCB84E866
:104B68000F007B680D4A203392E8030083E80300B6
:104B78007B680B4A03F1280415460FCD0FC495E84E
:104B8800030084E803007B6818460C37BD46B0BCB8
:104B9800704700BFB43B0308BC3B0308CC3B030889
:104BA800D43B030880B582B000AF78607B680A33D5
:104BB8001846FCF701FC7B680E331846FCF7FCFB33
:104BC8007B6818460837BD4680BD80B582B000AF07
:104BD80078607B681846FEF7F8FF7B681E33184636
:104BE800FFF7E0FF7B6856331846FFF7DBFF7B686B
:104BF80018460837BD4680BD80B483B000AF7860E2
:104C08007B6893F8403018460C37BD4680BC704727
:104C180080B483B000AF78607B68104903F11E024E
:104C28000B4603CB106051607B680D4903F12602E7
:104C38000B4603CB106051607B680A4903F12E02D2
:104C48000B4603CB106051607B686422DA867B6870
:104C580018460C37BD4680BC704700BFEC3B0308C4
:104C6800F43B0308FC3B030880B582B000AF7860D2
:104C78007B681846FFF712FF7B6803F582530833F9
:104C88001846FFF7A2FF7B6803F5865316331846CC
:104C9800FFF7BEFF7B6803F5885310331846FFF70C
:104CA80047FF7B6803F58A5310331846FEF78DFFDC
:104CB8007B6818460837BD4680BD80B483B000AF16
:104CC80078607B68B3F5007F05D24FF400727B688B
:104CD800B2FBF3F300E0012318460C37BD4680BC55
:104CE8007047000080B483B000AF7860044A7B68E6
:104CF8001A607B6818460C37BD4680BC704700BFF9
:104D08004040030880B483B000AF7860044A7B68F1
:104D18001A607B6818460C37BD4680BC704700BFD8
:104D28004040030880B582B000AF78607868FFF72C
:104D3800E9FF042178682DF097F97B681846083751
:104D4800BD4680BD80B582B000AF78607B681846EC
:104D580001F0F0FA7B6818460837BD4680BD0000B0
:104D680080B582B000AF78607B681846FFF7BAFF5D
:104D78000B4A7B681A607B68043318462DF01EFACC
:104D88007B681C33184601F0C1FA7B684433184627
:104D980001F0BCFA7B6818460837BD4680BD00BFE5
:104DA800E44B030880B582B000AF78600D4A7B6899
:104DB8001A607B6844331846FFF7C4FF7B681C33CE
:104DC8001846FFF7BFFF7B68043318462DF023FA17
:104DD8007B681846FFF796FF7B6818460837BD467C
:104DE80080BD00BFE44B030880B582B000AF786097
:104DF8007868FFF7D7FF6C2178682DF035F97B6864
:104E080018460837BD4680BD80B582B000AF7860CF
:104E18007B6818462DF0D2F97B68183318462DF0B8
:104E2800CDF97B68303318462DF0C8F97B681846F1
:104E38000837BD4680BD80B582B000AF78607B681A
:104E4800303318462DF0E7F97B68183318462DF0F3
:104E5800E2F97B6818462DF0DEF97B6818460837BA
:104E6800BD4680BD80B582B000AF7860786801F03B
:104E780096FA7B6818460837BD4680BD80B582B073
:104E880000AF78607B68184601F079FA7B681846AD
:104E98000837BD4680BD80B582B000AF78607B68BA
:104EA8001846FFF7EBFF7B6818460837BD4680BDFC
:104EB80080B582B000AF78607B681846FFF750FF76
:104EC800084A7B681A607B686C331846FFF79CFFBA
:104ED8007B68B4331846FFF7DEFF7B68184608374F
:104EE800BD4680BDB04B030880B582B000AF786086
:104EF8007B681846FFF734FF054A7B681A607B68B1
:104F08000022DA667B6818460837BD4680BD00BFB8
:104F18007C4B030880B582B000AF78607B6803F5EE
:104F280001531C331846FFF7C3FF7B6803F504538E
:104F38001C331846FFF7D8FF7B6803F5005300229F
:104F480083F88C217B6803F500531A460023C2F8C6
:104F580090317B6803F500531A46044BC2F894312C
:104F68007B6818460837BD4680BD00BF144E03084D
:104F780080B582B000AF78607B6803F504531C33BA
:104F8800184602F0A3FA7B6803F501531C33184650
:104F980002F070FA7B6818460837BD4680BD0000ED
:104FA80080B582B000AF78607B681846FFF75CFE7A
:104FB8007B6803F58A531C331846FFF7ABFF7B6801
:104FC80003F54B5334331846FFF768FC7B6803F549
:104FD8007B533C331846FEF70DFE7B6803F581438F
:104FE8000C332E49184607F0C2FA7B6803F5814353
:104FF8004C332B49184607F0BAFA7B6803F582430D
:105008000C331846FEF7B0FE7B6803F585432C3356
:105018001846FFF78DFD7B6803F585436C3308213F
:105028001846FEF754FC7B6803F585437433082162
:105038001846FEF74CFC7B6803F585437C33082152
:105048001846FEF744FC7B6803F58043002283F88A
:1050580004237B6803F580431E2283F805237B68BD
:1050680003F5804340F63C72A3F806237B6803F5FA
:1050780080430F2283F808237B6803F580430E22C0
:1050880083F809237B6803F58043142283F80A23F5
:105098007B6818460837BD4680BD00BFD05C00203D
:1050A800A85D002080B582B000AF78600B467B8099
:1050B8007B6803F585436C337A881146184615F0EA
:1050C80099FA00BF0837BD4680BD80B582B000AFF1
:1050D80078600B467B8013463B807B6803F58543ED
:1050E80074337A881146184615F084FA7B6803F5FC
:1050F80085437C333A881146184615F07BFA00BF81
:105108000837BD4680BD80B582B000AF78600B46D9
:10511800FB707B6803F57B533C331846FEF717FE9C
:105128000346002B0CBF01230023DBB2002B08D061
:105138007B6803F57B533C33FA7811461846FEF733
:1051480016FD00BF0837BD4680BD80B582B000AFF0
:1051580078600B46FB707B6803F57B533C3318463D
:10516800FEF7F5FD0346012B0CBF01230023DBB23C
:10517800002B08D07B6803F57B533C33FA78114643
:105188001846FEF7F4FC00BF0837BD4680BD000096
:1051980080B483B000AF78603960124A7B681A60C7
:1051A8007B6800221A717B6800229A607B68002263
:1051B8009A817B6800221A617B6800225A617B68A9
:1051C80000229A617B680022DA617B6800221A62F9
:1051D8007B683A689A607B6818460C37BD4680BC85
:1051E800704700BF2440030880B483B000AF7860E4
:1051F80000BF0C37BD4680BC704780B483B000AF99
:105208007860002318460C37BD4680BC704780B4D0
:1052180083B000AF786000BF0C37BD4680BC7047D4
:1052280080B483B000AF7860044A7B681A607B68FA
:1052380018460C37BD4680BC704700BF24400308A1
:1052480080B582B000AF78607868FFF7E9FF242165
:1052580078682CF009FF7B6818460837BD4680BD82
:1052680080B582B000AF78607B6802331846FCF7DF
:10527800A3F87B6818460837BD4680BDB0B582B034
:1052880000AF786039607B6839681846FFF780FF9F
:105298000E4A7B681A607B68243309241D4604E0A3
:1052A8002846FFF7DDFF013C0635002CF8DA7B685D
:1052B80000221A667B6800225A667B68002283F8FF
:1052C80068207B6818460837BD46B0BDD84D03082E
:1052D80080B582B000AF786039607B68396818465D
:1052E800FFF756FF1C4A7B681A607B68002283F828
:1052F80024207B680022A3F846207B680022A3F8BC
:1053080048207B68002283F84A207B680022DA6400
:105318007B6800221A657B6800225A657B68002238
:1053280083F858207B684FF41672A3F85A207B68DC
:105338000A4ADA657B6840F6B8321A667B6841F239
:1053480088325A667B684FF49672A3F868207B68A7
:1053580018460837BD4680BDBC4D0308C0D40100BF
:1053680080B582B000AF786039607B6839681846CC
:10537800FFF70EFF124A7B681A607B68012283F8E8
:1053880024207B68002283F832207B68002283F87F
:1053980033207B6800225A637B6800229A637B680B
:1053A80040F2DC529A877B680022DA877B684FF4E8
:1053B8009672A3F840207B6818460837BD4680BD22
:1053C800A04D030880B582B000AF786039607B6873
:1053D80039681846FFF7DCFE124A7B681A607B685A
:1053E80000225A627B6800229A627B68002283F856
:1053F8002C207B68002283F82D207B68002283F80C
:105408002E207B68002283F82F207B68002283F8F7
:1054180030207B6803225A867B6818460837BD46C9
:1054280080BD00BF844D030880B582B000AF7860AE
:1054380039607B6839681846FFF7AAFE284A7B68F6
:105448001A607B6806229A847B6841F288329A62E5
:105458007B68002283F82C207B6800221A637B6813
:1054680000225A637B6800229A637B6800229A872D
:105478007B680022DA877B680022A3F840207B68DB
:105488000022A3F842207B680022A3F844207B680E
:10549800FA22A3F846207B68002283F848207B681C
:1054A8000022DA647B680022A3F850207B6800227F
:1054B80083F852207B680622A3F854207B684FF4B7
:1054C800FA629A657B684FF4C872A3F85C207B681F
:1054D8004FF4FA621A667B6818460837BD4680BDE5
:1054E800684D030880B582B000AF786039607B688A
:1054F80039681846FFF74CFE094A7B681A607B68D2
:10550800243300221A605A609A60DA601A617B6854
:10551800672283F838207B6818460837BD4680BD67
:105528004C4D030880B582B000AF786039607B6865
:1055380039681846FFF72CFE054A7B681A607B68B5
:1055480000225A627B6818460837BD4680BD00BFF6
:10555800304D030880B483B000AF786039607B6851
:105568003A685A6200BF0C37BD4680BC70470000DD
:1055780080B582B000AF786039607B6839681846BA
:10558800FFF706FE034A7B681A607B6818460837EF
:10559800BD4680BD144D030880B582B000AF786069
:1055A80039607B6839681846FFF7F2FD124A7B6854
:1055B8001A607B6800229A847B680022DA847B6800
:1055C800002283F828207B68012283F829207B6841
:1055D8004FF448725A857B684FF448729A857B6805
:1055E80040F2CF72DA857B68032283F830207B682B
:1055F80018460837BD4680BDF84C030880B582B010
:1056080000AF786039607B6839681846FFF7C0FDDD
:10561800054A7B681A607B68022283F824207B682D
:1056280018460837BD4680BDDC4C030880B582B0FB
:1056380000AF786039607B6839681846FFF7A8FDC5
:105648000E4A7B681A607B68002283F824207B68F6
:10565800002283F825207B6800229A627B6800225A
:1056680083F82C207B68002283F82D207B68642235
:10567800DA857B6818460837BD4680BD3041030887
:1056880080B582B000AF7860054A7B681A607B6895
:105698001846FFF7C5FD7B6818460837BD4680BD2C
:1056A8003041030880B582B000AF78607868FFF7B2
:1056B800E7FF302178682CF0D7FC7B68184608375C
:1056C800BD4680BD80B582B000AF786039607B6828
:1056D80039681846FFF7AAFF204A7B681A607B687A
:1056E800303305211846FEF7F2F87B6800229A63EA
:1056F8007B680022DA637B6800221A647B680022D8
:105708005A647B6800229A647B680022DA647B68AA
:105718000022A3F850207B68012283F852207B687E
:1057280000225A657B68012283F858207B684FF471
:10573800FA72A3F85A207B6840F2DC52A3F85C2086
:105748007B684FF4FA721A667B6840F6B832A3F8A1
:1057580064207B6818460837BD4680BD304E030874
:1057680080B584B000AFF860B9607A60FB68B9684A
:105778001846FFF70DFD254AFB681A60FB680022F2
:105788005A62FB68012283F82820FB68012283F80B
:105798002920FB68002283F82A20FB68012283F86D
:1057A8002B20FB68012283F82C20FB68002283F859
:1057B8002D20FB68002283F82E20FB68642283F8E2
:1057C8002F20FB68002283F83020FB68002283F832
:1057D8003120FB68002283F83220FB68002283F81E
:1057E8003320FB68002283F83420FB68042283F806
:1057F8003520FB68072283F83620FB687A685A62EE
:10580800FB6818461037BD4680BD00BFA44C03088E
:1058180080B584B000AFF860B9607A60FB68B96899
:105828001846FFF7B5FC1C4AFB681A60FB680022A3
:1058380083F82C20FB68002283F82D20FB680022C7
:1058480083F82E20FB6800221A86FB68002283F862
:105858003220FB68002283F83320FB6800229A86F6
:10586800FB68002283F83620FB68002283F8372083
:10587800FB68022283F83820FB68062283F8392067
:10588800FB6878225A87FB687A685A62FB68184670
:105898001037BD4680BD00BF6C4C030880B584B08E
:1058A80000AFF860B9607A60FB68B9681846FFF71E
:1058B8006FFC124AFB681A60FB68002283F82820F4
:1058C800FB6800225A85FB68FF2283F82C20FB68BE
:1058D800002283F82D20FB68002283F82E20FB6825
:1058E800012283F82F20FB6878221A86FB687A68E1
:1058F8005A62FB6818461037BD4680BD504C0308F5
:1059080080B584B000AFF860B9607A60FB68B968A8
:105918001846FFF73DFC144AFB681A60FB68002232
:1059280083F82820FB68002283F82920FB680022DE
:105938005A85FB68FF2283F82C20FB68002283F835
:105948002D20FB68012283F82E20FB68022283F8B1
:105958002F20FB6878221A86FB687A685A62FB68EF
:1059680018461037BD4680BD344C030880B584B056
:1059780000AFF860B9607A603B60FB68B9681846A8
:10598800FFF706FC064AFB681A60FB687A685A62E9
:10599800FB683A689A62FB6818461037BD4680BDB6
:1059A800184C030880B400AF034B1B78DBB21846D1
:1059B800BD4680BC704700BF3802002080B500AFEC
:1059C800034814F036FE03469BB2184680BD00BF5C
:1059D8003C02002080B584B000AF0346FB8017F07E
:1059E80043FB034603F59673BB602E4B5B6A9BB281
:1059F8000233FB81FB89632B12D9FB89633BFB8153
:105A08000EE0284B5A6AFB899A420CBF01230023F7
:105A1800DBB2002B04D04FF08042FB8853620AE0CF
:105A280017F022FB0246BB6893428CBF0123002378
:105A3800DBB2002BE5D117F017FB034603F596738D
:105A4800BB60184B5B6A9BB20233FB81FB89632BFB
:105A580012D9FB89633BFB810EE0124B5A6AFB8922
:105A68009A420CBF01230023DBB2002B04D04FF075
:105A780080435B6A9BB210E017F0F6FA0246BB68F7
:105A880093428CBF01230023DBB2002BE5D14FF0FA
:105A98008043DB6A9BB201339BB218461037BD4680
:105AA80080BD00BF0004004080B586B002AF9C48AE
:105AB80017F000FF9B4817F0FDFE9B4B01221A7060
:105AC80005229A49974817F013FC00BF964B1B789C
